{"abi":[{"type":"function","name":"addBootstrapNode","inputs":[{"name":"netAddress","type":"string","internalType":"string"}],"outputs":[],"stateMutability":"nonpayable"},{"type":"function","name":"claim","inputs":[],"outputs":[],"stateMutability":"nonpayable"},{"type":"function","name":"confirmChange","inputs":[{"name":"_configurationNumber","type":"uint64","internalType":"uint64"}],"outputs":[],"stateMutability":"nonpayable"},{"type":"function","name":"confirmNextChange","inputs":[],"outputs":[],"stateMutability":"nonpayable"},{"type":"function","name":"join","inputs":[{"name":"publicKey","type":"bytes","internalType":"bytes"}],"outputs":[],"stateMutability":"payable"},{"type":"function","name":"kill","inputs":[],"outputs":[],"stateMutability":"nonpayable"},{"type":"function","name":"leave","inputs":[],"outputs":[],"stateMutability":"nonpayable"},{"type":"function","name":"pause","inputs":[],"outputs":[],"stateMutability":"nonpayable"},{"type":"function","name":"paused","inputs":[],"outputs":[{"name":"","type":"bool","internalType":"bool"}],"stateMutability":"view"},{"type":"function","name":"preFund","inputs":[],"outputs":[],"stateMutability":"payable"},{"type":"function","name":"preRelease","inputs":[{"name":"amount","type":"uint256","internalType":"uint256"}],"outputs":[],"stateMutability":"nonpayable"},{"type":"function","name":"setFederatedPower","inputs":[{"name":"validators","type":"address[]","internalType":"address[]"},{"name":"publicKeys","type":"bytes[]","internalType":"bytes[]"},{"name":"powers","type":"uint256[]","internalType":"uint256[]"}],"outputs":[],"stateMutability":"nonpayable"},{"type":"function","name":"stake","inputs":[],"outputs":[],"stateMutability":"payable"},{"type":"function","name":"submitCheckpoint","inputs":[{"name":"checkpoint","type":"tuple","internalType":"struct BottomUpCheckpoint","components":[{"name":"subnetID","type":"tuple","internalType":"struct SubnetID","components":[{"name":"root","type":"uint64","internalType":"uint64"},{"name":"route","type":"address[]","internalType":"address[]"}]},{"name":"blockHeight","type":"uint256","internalType":"uint256"},{"name":"blockHash","type":"bytes32","internalType":"bytes32"},{"name":"nextConfigurationNumber","type":"uint64","internalType":"uint64"},{"name":"msgs","type":"tuple[]","internalType":"struct IpcEnvelope[]","components":[{"name":"kind","type":"uint8","internalType":"enum IpcMsgKind"},{"name":"to","type":"tuple","internalType":"struct IPCAddress","components":[{"name":"subnetId","type":"tuple","internalType":"struct SubnetID","components":[{"name":"root","type":"uint64","internalType":"uint64"},{"name":"route","type":"address[]","internalType":"address[]"}]},{"name":"rawAddress","type":"tuple","internalType":"struct FvmAddress","components":[{"name":"addrType","type":"uint8","internalType":"uint8"},{"name":"payload","type":"bytes","internalType":"bytes"}]}]},{"name":"from","type":"tuple","internalType":"struct IPCAddress","components":[{"name":"subnetId","type":"tuple","internalType":"struct SubnetID","components":[{"name":"root","type":"uint64","internalType":"uint64"},{"name":"route","type":"address[]","internalType":"address[]"}]},{"name":"rawAddress","type":"tuple","internalType":"struct FvmAddress","components":[{"name":"addrType","type":"uint8","internalType":"uint8"},{"name":"payload","type":"bytes","internalType":"bytes"}]}]},{"name":"nonce","type":"uint64","internalType":"uint64"},{"name":"value","type":"uint256","internalType":"uint256"},{"name":"message","type":"bytes","internalType":"bytes"}]}]},{"name":"signatories","type":"address[]","internalType":"address[]"},{"name":"signatures","type":"bytes[]","internalType":"bytes[]"}],"outputs":[],"stateMutability":"nonpayable"},{"type":"function","name":"unpause","inputs":[],"outputs":[],"stateMutability":"nonpayable"},{"type":"function","name":"unstake","inputs":[{"name":"amount","type":"uint256","internalType":"uint256"}],"outputs":[],"stateMutability":"nonpayable"},{"type":"function","name":"validateActiveQuorumSignatures","inputs":[{"name":"signatories","type":"address[]","internalType":"address[]"},{"name":"hash","type":"bytes32","internalType":"bytes32"},{"name":"signatures","type":"bytes[]","internalType":"bytes[]"}],"outputs":[],"stateMutability":"view"},{"type":"event","name":"ActiveValidatorCollateralUpdated","inputs":[{"name":"validator","type":"address","indexed":false,"internalType":"address"},{"name":"newPower","type":"uint256","indexed":false,"internalType":"uint256"}],"anonymous":false},{"type":"event","name":"ActiveValidatorLeft","inputs":[{"name":"validator","type":"address","indexed":false,"internalType":"address"}],"anonymous":false},{"type":"event","name":"ActiveValidatorReplaced","inputs":[{"name":"oldValidator","type":"address","indexed":false,"internalType":"address"},{"name":"newValidator","type":"address","indexed":false,"internalType":"address"}],"anonymous":false},{"type":"event","name":"CollateralClaimed","inputs":[{"name":"validator","type":"address","indexed":false,"internalType":"address"},{"name":"amount","type":"uint256","indexed":false,"internalType":"uint256"}],"anonymous":false},{"type":"event","name":"ConfigurationNumberConfirmed","inputs":[{"name":"number","type":"uint64","indexed":false,"internalType":"uint64"}],"anonymous":false},{"type":"event","name":"NewActiveValidator","inputs":[{"name":"validator","type":"address","indexed":false,"internalType":"address"},{"name":"power","type":"uint256","indexed":false,"internalType":"uint256"}],"anonymous":false},{"type":"event","name":"NewCollateralRelease","inputs":[{"name":"validator","type":"address","indexed":false,"internalType":"address"},{"name":"amount","type":"uint256","indexed":false,"internalType":"uint256"},{"name":"releaseBlock","type":"uint256","indexed":false,"internalType":"uint256"}],"anonymous":false},{"type":"event","name":"NewStakingChangeRequest","inputs":[{"name":"op","type":"uint8","indexed":false,"internalType":"enum StakingOperation"},{"name":"validator","type":"address","indexed":false,"internalType":"address"},{"name":"payload","type":"bytes","indexed":false,"internalType":"bytes"},{"name":"configurationNumber","type":"uint64","indexed":false,"internalType":"uint64"}],"anonymous":false},{"type":"event","name":"NewWaitingValidator","inputs":[{"name":"validator","type":"address","indexed":false,"internalType":"address"},{"name":"power","type":"uint256","indexed":false,"internalType":"uint256"}],"anonymous":false},{"type":"event","name":"Paused","inputs":[{"name":"account","type":"address","indexed":false,"internalType":"address"}],"anonymous":false},{"type":"event","name":"SubnetBootstrapped","inputs":[{"name":"","type":"tuple[]","indexed":false,"internalType":"struct Validator[]","components":[{"name":"weight","type":"uint256","internalType":"uint256"},{"name":"addr","type":"address","internalType":"address"},{"name":"metadata","type":"bytes","internalType":"bytes"}]}],"anonymous":false},{"type":"event","name":"Unpaused","inputs":[{"name":"account","type":"address","indexed":false,"internalType":"address"}],"anonymous":false},{"type":"event","name":"WaitingValidatorCollateralUpdated","inputs":[{"name":"validator","type":"address","indexed":false,"internalType":"address"},{"name":"newPower","type":"uint256","indexed":false,"internalType":"uint256"}],"anonymous":false},{"type":"event","name":"WaitingValidatorLeft","inputs":[{"name":"validator","type":"address","indexed":false,"internalType":"address"}],"anonymous":false},{"type":"error","name":"AddressInsufficientBalance","inputs":[{"name":"account","type":"address","internalType":"address"}]},{"type":"error","name":"AddressShouldBeValidator","inputs":[]},{"type":"error","name":"BottomUpCheckpointAlreadySubmitted","inputs":[]},{"type":"error","name":"CannotConfirmFutureChanges","inputs":[]},{"type":"error","name":"CannotReleaseZero","inputs":[]},{"type":"error","name":"CannotSubmitFutureCheckpoint","inputs":[]},{"type":"error","name":"CollateralIsZero","inputs":[]},{"type":"error","name":"DuplicatedGenesisValidator","inputs":[]},{"type":"error","name":"EmptyAddress","inputs":[]},{"type":"error","name":"EnforcedPause","inputs":[]},{"type":"error","name":"ExpectedPause","inputs":[]},{"type":"error","name":"FailedInnerCall","inputs":[]},{"type":"error","name":"InvalidCheckpointEpoch","inputs":[]},{"type":"error","name":"InvalidFederationPayload","inputs":[]},{"type":"error","name":"InvalidPublicKeyLength","inputs":[]},{"type":"error","name":"InvalidSignatureErr","inputs":[{"name":"","type":"uint8","internalType":"uint8"}]},{"type":"error","name":"MaxMsgsPerBatchExceeded","inputs":[]},{"type":"error","name":"MethodNotAllowed","inputs":[{"name":"reason","type":"string","internalType":"string"}]},{"type":"error","name":"NoCollateralToWithdraw","inputs":[]},{"type":"error","name":"NotAllValidatorsHaveLeft","inputs":[]},{"type":"error","name":"NotEnoughBalance","inputs":[]},{"type":"error","name":"NotEnoughCollateral","inputs":[]},{"type":"error","name":"NotEnoughFunds","inputs":[]},{"type":"error","name":"NotEnoughGenesisValidators","inputs":[]},{"type":"error","name":"NotOwner","inputs":[]},{"type":"error","name":"NotOwnerOfPublicKey","inputs":[]},{"type":"error","name":"NotValidator","inputs":[{"name":"","type":"address","internalType":"address"}]},{"type":"error","name":"PQDoesNotContainAddress","inputs":[]},{"type":"error","name":"PQEmpty","inputs":[]},{"type":"error","name":"ReentrancyError","inputs":[]},{"type":"error","name":"SubnetAlreadyBootstrapped","inputs":[]},{"type":"error","name":"SubnetAlreadyKilled","inputs":[]},{"type":"error","name":"SubnetNotBootstrapped","inputs":[]},{"type":"error","name":"WithdrawExceedingCollateral","inputs":[]}],"bytecode":{"object":"0x6080806040523461001657614f1a908161001c8239f35b600080fdfe608080604052600436101561001357600080fd5b600090813560e01c9081630b7fbe6014611a405750806310fd4261146118de5780632e17de7814611893578063350a14bf146118655780633a4b66f11461178c5780633f4ba83a1461171457806341c0e1b5146116585780634e71d92d146114c45780635c975abb146114945780636170b162146110ed57806366783c9b1461101157806379979f57146108045780638456cb591461079c578063c7ebdaef14610756578063cc2dc2b9146106d6578063d66d9e19146106795763da5d09ee146100dc57600080fd5b34610508576060366003190112610508576004356001600160401b0381116106755761010c903690600401611bd7565b906024356001600160401b0381116106715761012c903690600401611bd7565b916044356001600160401b03811161066d5761014c903690600401611bd7565b9094610156612645565b61015e613541565b600160ff600a541661016f81611fd3565b0361063d5781810361062b5784810361062b5760055460f81c1561044a57865b8181106101a0575050505050505080f35b6101b46101ae828888613a1a565b906135cc565b6001600160a01b036101cf6101ca848689613a35565b6122d1565b166001600160a01b0390911603610438576102396101f16101ca838588613a35565b6101fc838989613a1a565b61020a85888d969496613a35565b35610225604051958693604060208601526060850191612024565b90604083015203601f198101845283611b4b565b6001600160401b036013541660405161025181611b30565b600381526020810184815260018060a01b03841660408301528260005260146020526040600020908251610284816128f7565b61028d816128f7565b60ff80198454169116178255518051906001600160401b038211610422576102c5826102bc6001860154611dae565b60018601611dff565b602090601f831160011461039b579261031083600080516020614e8583398151915298969460029460019c9b9997600092610390575b50508160011b916000199060031b1c19161790565b898201555b01906040888060a01b03910151166001600160601b0360a01b8254161790556001600160401b0361034582612a74565b166001600160401b0319601354161760135561038160405193849360809060038652898060a01b03166020860152806040860152840190611ee7565b9060608301520390a10161018f565b0151905038806102fb565b906001840160005260206000209160005b601f198516811061040a57508360029360019b9a9896938c93600080516020614e858339815191529b9997601f198116106103f1575b505050811b0189820155610315565b015160001960f88460031b161c191690553880806103e2565b919260206001819286850151815501940192016103ac565b634e487b7160e01b600052604160045260246000fd5b604051634be9251d60e11b8152600490fd5b93929190946001600160401b036006541685111561061957865b85811061051a575050505050505080600554600160f81b60018060f81b038216176005557f4914d88063275a25a13b2df37125e216745d812f94c56504be4bd78cf60c9593604051806104b6816133c3565b0390a18154906001600160a01b0316803b15610516578290602460405180948193637903ab2760e11b83528160048401525af1801561050b576104f857505080f35b61050190611b02565b6105085780f35b80fd5b6040513d84823e3d90fd5b5050fd5b6105286101ae828787613a1a565b6001600160a01b03919082806105426101ca858c8a613a35565b169116036104385761056061055b6101ca838a88613a35565b613c47565b6106075761060160019261058c61057b6101ca858c8a613a35565b610586858b8b613a1a565b91613608565b6105af61059d6101ca858c8a613a35565b6105a8858d89613a35565b3590613be0565b6105f76105c06101ca858c8a613a35565b6105cb858d89613a35565b35926105d8868c8c613a1a565b919092604051956105e887611b30565b86521660208501523691611b87565b604082015261313d565b01610464565b604051630472b35360e41b8152600490fd5b60405163031480b160e51b8152600490fd5b604051637e65935960e01b8152600490fd5b610669610648612666565b60405163015538b160e01b8152602060048201529182916024830190611ee7565b0390fd5b8580fd5b8380fd5b5080fd5b5034610508578060031936011261050857600080516020614ec583398151915260018154146106c4578060018392556106b061261a565b6106b8612645565b6106c0612525565b5580f35b6040516329f745a760e01b8152600490fd5b5034610508576060366003190112610508576001600160401b03600435818111610752573660238201121561075257610719903690602481600401359101611c32565b60443591821161075257366023830112156107525761074561074f923690602481600401359101611c88565b90602435906123a5565b80f35b8280fd5b50346105085780600319360112610508576001600160401b036000198160135416019081116107885761074f90612a8c565b634e487b7160e01b82526011600452602482fd5b50346105085780600319360112610508576107b5613541565b6107bd61261a565b600080516020614ea5833981519152600160ff198254161790557f62e78cea01bee320cd4e420270b5ea74000d11b0c9f74754ebdbfc544b05a2586020604051338152a180f35b503461050857600319606036820112610675576001600160401b03600435116106755760a09060043536030112610508576024356001600160401b03811161067557610854903690600401611bd7565b90604435916001600160401b038311610671576108d46108cc9261087f6108da953690600401611bd7565b94909161088a61261a565b610898600435600401613834565b60405160208101906108c1816108b3600435600401856120ae565b03601f198101835282611b4b565b519020943691611c32565b933691611c88565b916123a5565b6004803560248101358352601a60205260408320916108fa91018061222c565b6001600160401b0361090b82612241565b166001600160401b031983541617825561092d60018301916020810190612255565b91906001600160401b038311610ffd57610947838361229d565b90845260208420845b838110610fe25785856024600435013560028201556044600435013560038201556001600160401b03610987606460043501612241565b166001600160401b03196004830154161760048201556109b1608460043501600435600401612255565b91600160401b8311610fce576005810154836005830155808410610f41575b506005018352602083208391805b848410610a685760043560240135600155600554869081906001600160a01b0316803b15610a655781604051809263fba0fa4d60e01b8252818381610a2b600435600401600483016120ae565b03925af1801561050b57610a51575b5061074f610a4c606460043501612241565b612a8c565b610a5a90611b02565b610508578082610a3a565b50fd5b803560be1983360301811215610f3d576003818401351015610f3d57610a9081840135611fd3565b60ff1984541660ff828501351617845560018401610aef610ab860208487010184870161222c565b91610ac3838061222c565b906001600160401b03610ad583612241565b166001600160401b03198254161790556020810190612255565b906001600160401b038211610e9557610b0b826002890161229d565b600287018a5260208a208a5b838110610f225750505050806020610b3092019061222c565b80359060ff82168203610e765760ff610b5d921660ff196003880154161760038701556020810190612373565b906001600160401b038211610e6257610b8682610b7d6004890154611dae565b60048901611dff565b8890601f8311600114610eb457610bb492918a9183610ea95750508160011b916000199060031b1c19161790565b60048501555b60058401610bd1610ab8858401604081019061222c565b906001600160401b038211610e9557610bed826006890161229d565b600687018a5260208a208a5b838110610e7a5750505050806020610c1292019061222c565b80359060ff82168203610e765760ff610c3f921660ff196007880154161760078701556020810190612373565b906001600160401b038211610e6257610c6882610c5f6008890154611dae565b60088901611dff565b8890601f8311600114610df1579180610c9b92610ce395948c92610de65750508160011b916000199060031b1c19161790565b60088601555b600985016001600160401b03610cbb606084880101612241565b825467ffffffffffffffff1916911617905583016080810135600a86015560a0810190612373565b906001600160401b038211610dd257610d0c82610d03600b880154611dae565b600b8801611dff565b8790601f8311600114610d5f5792610d4283600c946020946001978d92610d545750508160011b916000199060031b1c19161790565b600b8701555b019301930192916109de565b013590508c806102fb565b600b860189526020892091895b601f1985168110610dba575083602093600196938793600c97601f19811610610da0575b505050811b01600b870155610d48565b0135600019600384901b60f8161c191690558b8080610d90565b90926020600181928686013581550194019101610d6c565b634e487b7160e01b88526041600452602488fd5b013590508b806102fb565b600887018a5260208a20918a5b601f1985168110610e4a5750918391600193610ce39695601f19811610610e30575b505050811b016008860155610ca1565b0135600019600384901b60f8161c191690558a8080610e20565b90926020600181928686013581550194019101610dfe565b634e487b7160e01b89526041600452602489fd5b8880fd5b6001906020610e88856122d1565b9401938184015501610bf9565b634e487b7160e01b8a52604160045260248afd5b013590508a806102fb565b600487939293018a5260208a20908a935b601f1984168510610f0a576001945083601f19811610610ef0575b505050811b016004850155610bba565b0135600019600384901b60f8161c19169055898080610ee0565b81810135835560209485019460019093019201610ec5565b6001906020610f30856122d1565b9401938184015501610b17565b8680fd5b600c818102048103610fba57600c848102048403610fba576005820185526020852084600c0281015b82600c0282018110610f7d5750506109d0565b8087600c9255610f8f6001820161232e565b610f9b6005820161232e565b8760098201556000600a820155610fb4600b82016122e5565b01610f6a565b634e487b7160e01b85526011600452602485fd5b634e487b7160e01b84526041600452602484fd5b6001906020610ff0856122d1565b9401938184015501610950565b634e487b7160e01b85526041600452602485fd5b503461050857602036600319011261050857600435600080516020614ec583398151915260018154146106c4576001815581156110db5760055460f81c6110c957338352601c602052816040842054106110b7576106c08392338452601c60205260408420611081828254611f0c565b905561108e818554611f0c565b8455338452601c6020526040842054156110a9575b336137ba565b6110b2336136e9565b6110a3565b60405163569d45cf60e11b8152600490fd5b604051631b39f2f360e11b8152600490fd5b604051631036b5ad60e31b8152600490fd5b506020366003190112610508576004356001600160401b0381116106755736602382011215610675576001600160401b0381600401351161067557366024826004013583010111610675576001600080516020614ec583398151915254146106c4576001600080516020614ec58339815191525561116961261a565b611171612645565b60055460f81c80611487575b341561147557336000908152600c60205260409020600201546114005760418260040135036113ee57336001600160a01b036111c06004850135602486016135cc565b160361043857611203578060246111dd9260040135910133613608565b6111e734336132b7565b6111ef613470565b80600080516020614ec58339815191525580f35b61121536826004013560248401611b87565b6001600160401b0360135416906040519061122f82611b30565b6002825260208201908152336040830152826000526014602052604060002090825161125a816128f7565b611263816128f7565b60ff80198454169116178255518051906001600160401b03821161042257611292826102bc6001860154611dae565b602090601f831160011461136657926112db83600080516020614e8583398151915298969460029461134e99976000926103905750508160011b916000199060031b1c19161790565b60018201555b0190604060018060a01b03910151166001600160601b0360a01b8254161790556001600160401b0361131282612a74565b166001600160401b0319601354161760135560405192839260028452336020850152608060408501526080840190602481600401359101612024565b9060608301520390a16113613433612f47565b6111ef565b906001840160005260206000209160005b601f19851681106113d657508360029361134e989693600193600080516020614e858339815191529b9997601f198116106113bd575b505050811b0160018201556112e1565b015160001960f88460031b161c191690553880806113ad565b91926020600181928685015181550194019201611377565b6040516318dca5e960e21b8152600490fd5b61066960405161140f81611b30565b603281527f4d6574686f64206e6f7420616c6c6f7765642069662076616c696461746f72206020820152711a185cc8185b1c9958591e481a9bda5b995960721b604082015260405191829163015538b160e01b8352602060048401526024830190611ee7565b604051635a78c58160e11b8152600490fd5b61148f6126e3565b61117d565b5034610508578060031936011261050857602060ff600080516020614ea583398151915254166040519015158152f35b5034610508578060031936011261050857600190600080516020614ec5833981519152828154146106c4578281556114fa61261a565b3360009081526016602052604090209283549061ffff9081831692831561164657829060101c16918391808795818a01915b6115c0575b505050866115a2937f197c586353eaed0a1c53e6e540445b94befab8f932c8115d112115ecbeeed514959363ffff000093899a54911693849260101b169063ffffffff191617179055156115a9575b61158a81336137ba565b60408051338152602081019290925290918291820190565b0390a15580f35b336000908152601660205260409020859055611580565b90919394838116968288101561163d57876000526020809185825260406000206040516115ec81611b15565b89825492838352015493849101524310611632578594938896889461161386958a95611d8b565b9c6000525260008260408220828155015501169660001901169461152c565b985050509493611531565b96509493611531565b6040516364b0557f60e01b8152600490fd5b5034610508578060031936011261050857611671612645565b61ffff611687816010541682600d541690613599565b16611702576005548060f81c156116f0576006805468ff00000000000000001916600160401b17905581906001600160a01b0316803b15610a655781906004604051809481936341c0e1b560e01b83525af1801561050b576116e7575080f35b61074f90611b02565b60405163dfd06d8f60e01b8152600490fd5b604051636b62255160e11b8152600490fd5b503461050857806003193601126105085761172d613541565b600080516020614ea5833981519152805460ff81161561177a5760ff191690557f5db9ee0a495bf2e6ff9c91a7834c1ba4fdd244a5e8aa4e537bd38aeae4b073aa6020604051338152a180f35b604051638dfc202b60e01b8152600490fd5b5080600319360112610508576117a061261a565b6117a8612645565b6117b06126e3565b341561147557336000908152600c6020526040902060020154156117f45760055460f81c6117ea576117e234336132b7565b61074f613470565b61074f3433612f47565b61066960405161180381611b30565b602e81527f4d6574686f64206e6f7420616c6c6f7765642069662076616c696461746f722060208201526d1a185cc81b9bdd081a9bda5b995960921b604082015260405191829163015538b160e01b8352602060048401526024830190611ee7565b5034610508576020366003190112610508576004356001600160401b03811681036106755761074f90612a8c565b503461050857602036600319011261050857600080516020614ec583398151915260018154146106c4578060018392556118cb61261a565b6118d3612645565b6106c0600435611e46565b50346105085760209081600319360112610508576001600160401b0391600435838111610752573660238201121561075257611924903690602481600401359101611b87565b9261192d61261a565b338352600e825261ffff60408420541615611a2857835115611a16573383526017825260408320918451918211610fce576119728261196c8554611dae565b85611dff565b80601f83116001146119b25750819084956119a29495926103905750508160011b916000199060031b1c19161790565b90555b6119ae33613a45565b5080f35b90601f198316958486528286209286905b8882106119fe575050836001959697106119e5575b505050811b0190556119a5565b015160001960f88460031b161c191690553880806119d8565b806001859682949686015181550195019301906119c3565b604051637138356f60e01b8152600490fd5b604051633b4f6e2b60e21b8152336004820152602490fd5b905081600319360112610675573415611af3575060055460f81c6110c957338152601c602052604081205415611a9a575b338152601c60205260408120611a88348254611d8b565b9055611a95348254611d8b565b815580f35b601d54600160401b811015611adf57611abc816001611ada9301601d55611d07565b81546001600160a01b0360039290921b91821b19163390911b179055565b611a71565b634e487b7160e01b82526041600452602482fd5b631036b5ad60e31b8152600490fd5b6001600160401b03811161042257604052565b604081019081106001600160401b0382111761042257604052565b606081019081106001600160401b0382111761042257604052565b90601f801991011681019081106001600160401b0382111761042257604052565b6001600160401b03811161042257601f01601f191660200190565b929192611b9382611b6c565b91611ba16040519384611b4b565b829481845281830111611bbe578281602093846000960137010152565b600080fd5b35906001600160401b0382168203611bbe57565b9181601f84011215611bbe578235916001600160401b038311611bbe576020808501948460051b010111611bbe57565b6001600160401b0381116104225760051b60200190565b35906001600160a01b0382168203611bbe57565b9291611c3d82611c07565b91611c4b6040519384611b4b565b829481845260208094019160051b8101928311611bbe57905b828210611c715750505050565b838091611c7d84611c1e565b815201910190611c64565b92919092611c9584611c07565b91611ca36040519384611b4b565b829480845260208094019060051b830192828411611bbe5780915b848310611ccd57505050505050565b82356001600160401b038111611bbe57820184601f82011215611bbe578691611cfc8683858095359101611b87565b815201920191611cbe565b601d54811015611d3e57601d6000527f6d4407e7be21f808e6509aa9fa9143369579dd7d760fe20a2c09680fc146134f0190600090565b634e487b7160e01b600052603260045260246000fd5b601854811015611d3e5760186000527fb13d2d76d1f4b7be834882e410b3e3a8afaf69f83600ae24db354391d2378d2e0190600090565b91908201809211611d9857565b634e487b7160e01b600052601160045260246000fd5b90600182811c92168015611dde575b6020831014611dc857565b634e487b7160e01b600052602260045260246000fd5b91607f1691611dbd565b818110611df3575050565b60008155600101611de8565b9190601f8111611e0e57505050565b611e3a926000526020600020906020601f840160051c83019310611e3c575b601f0160051c0190611de8565b565b9091508190611e2d565b611e4e6126e3565b8015611eb257336000908152600c60205260409020600201548015611a2857811015611ea15760055460f81c15611e8957611e3a90336126f8565b80611e97611e3a9233613aae565b6110a38133613b01565b60405162d11df360e61b8152600490fd5b60405163c79cad7b60e01b8152600490fd5b60005b838110611ed75750506000910152565b8181015183820152602001611ec7565b90602091611f0081518092818552858086019101611ec4565b601f01601f1916010190565b91908203918211611d9857565b9035603e1982360301811215611bbe570190565b9035601e1982360301811215611bbe5701602081359101916001600160401b038211611bbe578160051b36038313611bbe57565b60408201916001600160401b03611f7783611bc3565b1681526060611f8c6020936020810190611f2d565b83919560406020839601525201929160005b828110611fac575050505090565b909192938280600192838060a01b03611fc489611c1e565b16815201950193929101611f9e565b60031115611fdd57565b634e487b7160e01b600052602160045260246000fd5b9035601e1982360301811215611bbe5701602081359101916001600160401b038211611bbe578136038313611bbe57565b908060209392818452848401376000828201840152601f01601f1916010190565b61206e6120636120558380611f19565b604085526040850190611f61565b916020810190611f19565b91602081830391015281359160ff8316809303611bbe5761209b6040916120ab9484526020810190611ff3565b9190928160208201520191612024565b90565b60209182825260c0906120c18180611f19565b936120d860a09560a08387015260c0860190611f61565b604092828101356040870152606094604082013560608801526120fd60608301611bc3565b9461211e6080936001600160401b0380981660808b01526080810190611f2d565b969099601f199960a08b8289030191015287865286860193878960051b8801019b809b6000985b8b8a1061215d57505050505050505050505050505090565b909192939495969798999a9b9c9d8e83838303018a523560be1985360301811215611bbe578401908135906003821015611bbe578f8e938361219f8695611fd3565b83526121ad81850182611f19565b89858501528984016121be91612045565b6121ca828e0183611f19565b848203858f01526121db9190612045565b918b6121e8838301611bc3565b16908401528d808201359084015289810161220291611ff3565b90928a81840391015261221492612024565b9f019d9c9b9a60010199980196959493929190612145565b903590603e1981360301821215611bbe570190565b356001600160401b0381168103611bbe5790565b903590601e1981360301821215611bbe57018035906001600160401b038211611bbe57602001918160051b36038313611bbe57565b81810292918115918404141715611d9857565b90600160401b8111610422578154908083558181106122bb57505050565b611e3a9260005260206000209182019101611de8565b356001600160a01b0381168103611bbe5790565b6122ef8154611dae565b90816122f9575050565b81601f6000931160011461230b575055565b90808391825261232a601f60208420940160051c840160018501611de8565b5555565b6003611e3a91600081556001810180546000825580612357575b505060006002820155016122e5565b61236c91600052602060002090810190611de8565b3880612348565b903590601e1981360301821215611bbe57018035906001600160401b038211611bbe57602001918136038313611bbe57565b9291908351936123b485611c07565b60406123c36040519283611b4b565b8682526123cf87611c07565b60209790601f190136848a013760005b8181106124a857505060009661ffff80600d541660019283916001945b612455575b5050505050506064612420612427969760ff60055460e01c169061228a565b0491613925565b90156124305750565b6006811015611fdd5760405163282ef1c160e01b815260ff9091166004820152602490fd5b90919293949a8486168281116124a1576000908152600f84528c902054849392918691859161249691612490906001600160a01b0316613c47565b90611d8b565b9d97011694936123fc565b509a612401565b9197916001600160a01b03806124be8388613911565b5116600052600e845261ffff8a60002054161561250157906124ed6001926124e68389613911565b5116613c47565b6124f78287613911565b52019791976123df565b899061250f60249388613911565b519151633b4f6e2b60e21b815291166004820152fd5b60055460f81c61260d575b336000908152600c60205260409020600201548015611a285761255233613cd2565b506000903382526017602052816040812061256d8154611dae565b806125d0575b50505060055460f81c1561258c57611e3a9150336126f8565b611e3a91338152601c6020526040812054806125af575b5050611e978133613aae565b816125be826125c99454611f0c565b90556110a3336136e9565b38806125a3565b82601f82116001146125e8575050555b813880612573565b9091808252612606601f60208420940160051c840160018501611de8565b55556125e0565b6126156126e3565b612530565b60ff600080516020614ea5833981519152541661263357565b60405163d93c066560e01b8152600490fd5b60ff60065460401c1661265457565b60405163248c8efb60e11b8152600490fd5b60405190608082018281106001600160401b03821117610422576040526045825264185c1c195960da1b6060837f4d6574686f64206e6f7420616c6c6f776564206966207065726d697373696f6e60208201527f656420697320656e61626c656420616e64207375626e657420626f6f7473747260408201520152565b60ff600a54166126f281611fd3565b61063d57565b9190604051928160208501526020845261271184611b15565b6001600160401b0360135416936040519461272b86611b30565b60018652602086019582875260018060a01b0384166040820152816000526014602052604060002096815161275f816128f7565b612768816128f7565b60ff80198a54169116178855519687516001600160401b038111610422576127a0816127976001850154611dae565b60018501611dff565b6020601f821160011461286c5761285e94926127ec83600080516020614e85833981519152989694600294611e3a9d9e6000926103905750508160011b916000199060031b1c19161790565b60018201555b0190604060018060a01b03910151166001600160601b0360a01b8254161790556001600160401b0361282382612a74565b166001600160401b031960135416176013556040519283926001845260018060a01b0387166020850152608060408501526080840190611ee7565b9060608301520390a1613aae565b6001830160005260206000209960005b601f19841681106128df575092600183611e3a9b9c60029461285e9997600080516020614e858339815191529b9997601f198116106128c6575b505050811b0160018201556127f2565b015160001960f88460031b161c191690553880806128b6565b828201518c556001909b019a6020928301920161287c565b60041115611fdd57565b80546000939261291082611dae565b918282526020936001916001811690816000146129785750600114612937575b5050505050565b90939495506000929192528360002092846000945b83861061296457505050500101903880808080612930565b80548587018301529401938590820161294c565b60ff19168685015250505090151560051b010191503880808080612930565b90808214612a70576129a98154611dae565b906001600160401b038211610422576129c68261196c8554611dae565b600090601f8311600114612a05576129f69291600091836129fa5750508160011b916000199060031b1c19161790565b9055565b0154905038806102fb565b815260208082208483528183209291601f1985169083905b828210612a57575050908460019594939210612a3e575b505050811b019055565b015460001960f88460031b161c19169055388080612a34565b8495819295850154815560018091019601940190612a1d565b5050565b9060016001600160401b0380931601918211611d9857565b6013546001600160401b0382811692908083168410612ab75760405163040aaa0560e11b8152600490fd5b808360401c168410612f415780604093841c165b848282161115612b3257505091602091612b057f246f00b61ce672242f33bb680a47147cd54d3dfd04dbb76956ba42f88087bf6394612a74565b67ffffffffffffffff60401b60135491831b169067ffffffffffffffff60401b19161760135551908152a1565b80612b5183926001600160401b03166000526014602052604060002090565b9060018060a01b036002928184820154169160ff825416612b71816128f7565b808603612bde5750506001600160a01b039091166000908152600c60205260409020612ba39160010190600301612997565b612bc0816001600160401b03166000526014602052604060002090565b91600090818455600193612bd58582016122e5565b01550116612acb565b9092919550612bec816128f7565b600392818403612d93575050612c17946001958691612c108b518094819301612901565b0382611b4b565b80519560209682018a83898301920312611bbe5787830151898111611bbe5783019281603f85011215611bbe5783898d95015192612c60612c5785611b6c565b96519687611b4b565b8386528d8483010111611bbe578c92612c7e91848c88019101611ec4565b01519380612c9e8560018060a01b0316600052600c602052604060002090565b01928051928a8411612d7e578a99612cc085612cba8854611dae565b88611dff565b8093601f8611600114612d05575050509180612cf992612d00979695946000926103905750508160011b916000199060031b1c19161790565b9055613be0565b612ba3565b909193601f9b9a9998979695939b1984169b866000528c84600020946000915b8210612d6357505084612d009a9b9c9d10612d49575b50505050811b019055613be0565b01519060f884600019921b161c1916905538808080612d3b565b8383015186558f9d509487019492830192908101908e612d25565b60246000634e487b7160e01b81526041600452fd5b91909250612db19394956001948591612c108c518094819301612901565b808051602092839181010312611bbe57818691015194612dd0816128f7565b03612ef757612ddf8483613b01565b836015544390612dee91611d8b565b918b51612dfa81611b15565b8381528181018381526001600160a01b038616600090815260166020526040902090988e919283549161ffff9b8c94848680961695869160101c1690612e3f91613599565b60009e8f9116905282870188528d209251835551910155612e5f90613586565b1661ffff198254161790558b519384528301528982015260607f083b080788e20bd0930c2bca2ae4fbc51a59ced08c1b5992271f8cb439498a6391a16005541690813b15610752578291602483928a5195869384926345f5448560e01b845260048401525af1908115612eec57509084939291612edd575b50612ba3565b612ee690611b02565b38612ed7565b8751903d90823e3d90fd5b5082935091612f069192613b90565b6005541690813b15611bbe578651916316989f6f60e21b83528260048160009485945af1908115612eec57509084939291612edd5750612ba3565b50505050565b91906040519281602085015260208452612f6084611b15565b6001600160401b03601354169360405194612f7a86611b30565b60008652602086019582875260018060a01b03841660408201528160005260146020526040600020968151612fae816128f7565b612fb7816128f7565b60ff80198a54169116178855519687516001600160401b03811161042257612fe6816127976001850154611dae565b6020601f82116001146130b2576130a4949261303283600080516020614e85833981519152989694600294611e3a9d9e6000926103905750508160011b916000199060031b1c19161790565b60018201555b0190604060018060a01b03910151166001600160601b0360a01b8254161790556001600160401b0361306982612a74565b166001600160401b031960135416176013556040519283926000845260018060a01b0387166020850152608060408501526080840190611ee7565b9060608301520390a1613c24565b6001830160005260206000209960005b601f1984168110613125575092600183611e3a9b9c6002946130a49997600080516020614e858339815191529b9997601f1981161061310c575b505050811b016001820155613038565b015160001960f88460031b161c191690553880806130fc565b828201518c556001909b019a602092830192016130c2565b90601b5491600160401b83101561042257600180840180601b55841015611d3e576003600094601b865202938251857f3ad8aa4f87544323a9d1e5dd902f40c356527a7955687113db5f9a85ad579dc1015560407f3ad8aa4f87544323a9d1e5dd902f40c356527a7955687113db5f9a85ad579dc37f3ad8aa4f87544323a9d1e5dd902f40c356527a7955687113db5f9a85ad579dc287019660209760018060a01b036020880151166001600160601b0360a01b82541617905501930151908151926001600160401b038411611adf576132218461321b8754611dae565b87611dff565b602096601f85116001146132545750509482916129f6949596926103905750508160011b916000199060031b1c19161790565b96919290601f198516978685526020852094915b8983106132a0575050508360019596971061328757505050811b019055565b015160001960f88460031b161c19169055388080612a34565b838501518655948501949381019391810191613268565b906132cc906132c68184613c24565b82613b90565b60055460f81c156132db575b50565b600080601b80549160005b83811061336f575b50505050156132fa5750565b80612c106105f76001613322611e3a9560018060a01b0316600052600c602052604060002090565b01549260036133438260018060a01b0316600052600c602052604060002090565b01906040519461335286611b30565b85526001600160a01b031660208501526040519283918290612901565b828252600381027f3ad8aa4f87544323a9d1e5dd902f40c356527a7955687113db5f9a85ad579dc201546001600160a01b038781169116146133b3576001016132e6565b50505050506001388080806132ee565b602080820160208352601b54809152604091604084019360408360051b82010194601b6000527f3ad8aa4f87544323a9d1e5dd902f40c356527a7955687113db5f9a85ad579dc1946000925b858410613420575050505050505090565b9091929394959685600361345f600193603f198682030188526060908c5481528c86808060a01b03910154168582015281888201520160028c01612901565b99019401940192959493919061340f565b600b546002548110156134805750565b61ffff600d54166001600160401b0360065416111561349c5750565b600580546001600160f81b038116600160f81b179091556040517f4914d88063275a25a13b2df37125e216745d812f94c56504be4bd78cf60c959390806134e2816133c3565b0390a160018060a01b0316906134fb6000548092611d8b565b91803b15611bbe5760246000926040519485938492637903ab2760e11b845260048401525af1801561353557156132d857611e3a90611b02565b6040513d6000823e3d90fd5b7f806e0cbb9fce296bbc336a48f42bf1dbc69722d18d90d6fe705b7582c2bb4bd5546001600160a01b0316330361357457565b6040516330cd747160e01b8152600490fd5b90600161ffff80931601918211611d9857565b91909161ffff80809416911601918211611d9857565b156135b657565b634e487b7160e01b600052600160045260246000fd5b906135d9604182146135af565b80600111611bbe576135f49136916000190190600101611b87565b80516020909101206001600160a01b031690565b6001600160a01b03166000908152600c6020526040902090929190600301906001600160401b03811161042257613649816136438454611dae565b84611dff565b6000601f82116001146136855781906129f693949560009261367a5750508160011b916000199060031b1c19161790565b0135905038806102fb565b601f19821694838252602091602081209281905b8882106136d1575050836001959697106136b757505050811b019055565b0135600019600384901b60f8161c19169055388080612a34565b80600184968294958701358155019501920190613699565b601d90601d549160005b8381106137005750505050565b61370981611d07565b90546003916001600160a01b039190831b1c81168582161461372f5750506001016136f3565b9293509360001991828201918211611d985761375e8461375161377c94611d07565b905490891b1c1691611d07565b90919060018060a01b038084549260031b9316831b921b1916179055565b825480156137a457019261378f84611d07565b81939154921b1b191690555538808080612f41565b634e487b7160e01b600052603160045260246000fd5b81471061381c576000918291829182916001600160a01b03165af13d15613817573d6137e581611b6c565b906137f36040519283611b4b565b8152600060203d92013e5b1561380557565b604051630a12f52160e11b8152600490fd5b6137fe565b60405163cd78605960e01b8152306004820152602490fd5b6001600160401b03908160055460a01c16916080820190836138568385612255565b9050116138ff5760015460035490602085013592818411156138ed5782156138d757829116049060018201809211611d98576138919161228a565b908181116138c557146138c0576138a791612255565b905014611e3a5760405163fae4eadb60e01b8152600490fd5b505050565b60405163dd88982f60e01b8152600490fd5b634e487b7160e01b600052601260045260246000fd5b60405163d6bb62dd60e01b8152600490fd5b60405163351c700760e01b8152600490fd5b8051821015611d3e5760209160051b010190565b84519294600094908415613a0d5782518514801590613a02575b6139f5579392919085945b84861061396d57505050505050101561396557600090600590565b600190600090565b9091929394956139876139808884613911565b5184613c96565b50613991816128f7565b6139e4576001600160a01b03806139a88a88613911565b51169116036139d4576139c86001916139c18988613911565b5190611d8b565b9601949392919061394a565b5050505050505050600090600390565b505050505050505050600090600490565b5050505050905090600190565b50835185141561393f565b5050505050905090600290565b90821015611d3e57613a319160051b810190612373565b9091565b9190811015611d3e5760051b0190565b600081815260196020526040812054613aa957601854600160401b811015611adf579082613a95613a7e84600160409601601855611d54565b819391549060031b91821b91600019901b19161790565b905560185492815260196020522055600190565b905090565b6001600160a01b03166000818152600c60205260409020600201549091808210613aef57613adb91611f0c565b90600052600c602052600260406000200155565b60405163ac69360360e01b8152600490fd5b90613b6e613b769260018060a01b038116906000828152600c602052613b2e856001604084200154611f0c565b928152600c602052604081206002810184815481159081613b87575b5015613b7b57509082600392613b6994835581600184015555016122e5565b613da8565b600b54611f0c565b600b55565b92505060010155613da8565b90501538613b4a565b90611e3a91613bd860018060a01b0382169283600052600c602052613bbd81600160406000200154611d8b565b93600052600c60205283600160406000200155600b54611d8b565b600b5561417d565b9060018060a01b038216600052600c60205260406000208181549155818114600014613c0b57505050565b811115613c1b57611e3a9161417d565b611e3a91613da8565b60018060a01b0316600052600c6020526129f66002604060002001918254611d8b565b600160ff600a5416613c5881611fd3565b03613c78576001600160a01b03166000908152600c602052604090205490565b6001600160a01b03166000908152600c602052604090206001015490565b8151919060418303613cc757613cc092506020820151906060604084015193015160001a90614475565b9192909190565b505060009160029190565b6000818152601960205260408120549091908015613da35760001990808201818111610fba5760185490838201918211613d8f57818103613d5b575b5050506018548015613d4757810190613d2682611d54565b909182549160031b1b19169055601855815260196020526040812055600190565b634e487b7160e01b84526031600452602484fd5b613d79613d6a613a7e93611d54565b90549060031b1c928392611d54565b9055845260196020526040842055388080613d0e565b634e487b7160e01b86526011600452602486fd5b505090565b909160018060a01b03928383169060009382855260206011815261ffff9560409487868320541661403557808252600e835287868320541615614024578415613f5c5750613df583614b34565b97613dff84613c47565b985b6001808a83161115613f4d5781617fff911c1690818452600f85528a613e2b848a87205416613c47565b1115613e4057613e3b9082614bf2565b613e01565b505091939597509193955b6010541615613f4557613e5c614dce565b60018252600f835285818184205416926012613e7785613c47565b95613e80614dc0565b600183525220541691613e9283613c47565b11613eda57505091516001600160a01b03909216825260208201527f143db27bc2036653dc6f962ff9d0b803163d4af50c256ca9e6927b3d6dcd01979080604081015b0390a1565b91509150613ed57ffaeb8de771b867cf357f6b459a7002b62ec45d544a8078a3ecd91200cc826d7593613f0b61493d565b613f13614763565b613f1c846148c8565b613f2583614a88565b516001600160a01b03928316815292909116602083015281906040820190565b505050505050565b50509193959750919395613e4b565b829450613f907f4a4c5d1a281180eea1e99d8177fa4798b9f7e019d5c57e7d8d73c6a22199aa5b939298949996979961463d565b8651908152a160105416613fa45750505050565b7f2e8038f5812f763c6ef0c5427cb5a05ce6d7064af2ba7d1d270bc02660b019fd9360128492613fd2614dc0565b6001835252205416614018613fe682613c47565b92613fef614763565b613ff8836148c8565b516001600160a01b03909216825260208201929092529081906040820190565b0390a138808080612f41565b8551632a55ca5360e01b8152600490fd5b849697929498939598156141425750919261404f85614afd565b9361405986613c47565b93859261fffe968795600196879260011b168160105416925b6140c7575b50509a516001600160a01b039098168852505050506020840194909452509293507fda148fac2e1063174be7bc0895576bdaba90fd14e575463fa26a967cb895cadd925090508060408101613ed5565b81811683811161413c578e9080851115614120575050806140ea6140f092613586565b90614ddc565b9690965b89101561411b579061410b88969594939288614b59565b8987871b16909192939495614072565b614077565b865260128552852054909690614137908716613c47565b6140f4565b50614077565b949150507f3168ba660eed6ef1dc2258b2247cc05fd0f2f350d39e6ad2e2ebc76a8000b40b95969294506141769150614519565b51908152a1565b919060018060a01b0392838116600094818652602091600e835261ffff916040978389822054166143605783600a5460081c1684600d54161061432c576141c2614dce565b60019260018252600f8652828a83205416886141dd82613c47565b106142d05750815260118552838982205416614227575050505050613ed57f19fe3ca603e87854a0747cc10abf06bac64d61bac73d6d15f2fd3ca448f152649394613ff883614a88565b61423086614afd565b9261423a87613c47565b935b8186821611614292575b505097516001600160a01b0390951685525050505060208101919091529091507fda148fac2e1063174be7bc0895576bdaba90fd14e575463fa26a967cb895cadd908060408101613ed5565b80856142b186617fff8f95871c169485885260128c5287205416613c47565b10156142ca57906142c3839282614b59565b905061423c565b50614246565b969750899493507ffaeb8de771b867cf357f6b459a7002b62ec45d544a8078a3ecd91200cc826d7598999250613ed59560119161430b61493d565b83525220541661431e57613f1c846148c8565b61432784614519565b613f13565b5050505050613ed57f2e8038f5812f763c6ef0c5427cb5a05ce6d7064af2ba7d1d270bc02660b019fd9394613ff8836148c8565b979291506143718594979695614b34565b9761437b85613c47565b976143858a614da9565b84600d5416905b85811682811161443e57828110156144225750806143ac6143b292613586565b90614e34565b9b909b5b8b11156143d5576143c7908c614bf2565b6143d08b614da9565b61438c565b505093516001600160a01b0390951685525050505060208101919091529092507f143db27bc2036653dc6f962ff9d0b803163d4af50c256ca9e6927b3d6dcd019791508060408101613ed5565b849c919c52600f8352614439858886205416613c47565b6143b6565b50505050505050613ed591929395507f143db27bc2036653dc6f962ff9d0b803163d4af50c256ca9e6927b3d6dcd01979450613ff8565b91907f7fffffffffffffffffffffffffffffff5d576e7357a4501ddfe92f46681b20a084116144f957926020929160ff608095604051948552168484015260408301526060820152600092839182805260015afa156144ed5780516001600160a01b038116156144e457918190565b50809160019190565b604051903d90823e3d90fd5b50505060009160039190565b61ffff9081166000190191908211611d9857565b61452290614afd565b61ffff8060105416916145358382614b59565b8161453f84614505565b1661ffff19601054161760105561455583614c81565b8181168093146138c0576000918383526012602094601260205260018060a01b039060409061459261458c8460408a205416613c47565b87614d05565b865260126020526145a882604088205416613c47565b95859361fffe988997600198899160011b168860105416915b6145d4575b505050505050505050505050565b888116828111614637578281101561461c5750806140ea6145f492613586565b9890985b8b10156146175761460a8a988a614b59565b979687811b8c16906145c1565b6145c6565b8599919952838352614632878787205416613c47565b6145f8565b506145c6565b61464690614b34565b9061ffff9081600d54169061465b8285614bf2565b8261466583614505565b1661ffff19600d541617600d5561467b82614cc3565b82841680921461475d57600092919291838352600f92602094600f60205260018060a01b03916040916146bc6146b685604085205416613c47565b8a614d5a565b8152600f6020526146d283604083205416613c47565b956146dc89614da9565b9785600d5416985b8681168a811161474f578a8110156147345750806143ac61470492613586565b9a909a5b89111561472757614719908b614bf2565b6147228a614da9565b6146e4565b5050505050505092505050565b849b919b5282825261474a868686205416613c47565b614708565b505050505050505092505050565b92505050565b61ffff80601054169081156148b657906001614781828211156135af565b6000818152601260208181526040808420805487865282862080546001600160a01b0392831680895260118752858920805461ffff199081168d17909155918416808a52868a20805484168c17905588885283546001600160a01b0319908116909217909355898952845416909117909255939692949192614816918961480783614505565b16906010541617601055614c81565b848152601260205261482c838383205416613c47565b9585948660028a60105416915b61484b575b5050505050505050505050565b8a81168281116148b057828110156148955750806140ea61486b92613586565b9a909a5b8a10156148905761488189988c614b59565b999687811b61fffe1690614839565b61483e565b859b919b528383526148ab878787205416613c47565b61486f565b5061483e565b6040516340d9b01160e01b8152600490fd5b611e3a9061493761ffff916148e083600d5416613586565b9260018060a01b0382169081600052600e60205260406000209085169161ffff1991838382541617905582600052600f6020526040600020906001600160601b0360a01b825416179055600d541617600d55613c47565b90614d5a565b61ffff80600d54169081156148b6579060019061495c818311156135af565b6000828152600f60208181526040808420805486865282862080546001600160a01b03928316808952600e8752858920805461ffff199081168c17909155918416808a52868a20805484168d17905588885283546001600160a01b03199081169092179093558a8952845416909117909255929587959394929392916149f691908a6149e783614505565b1690600d541617600d55614cc3565b848252600f602052614a0c848484205416613c47565b958598600281600d5416995b614a29575050505050505050505050565b8181168a81116148b0578a811015614a6d5750806143ac614a4992613586565b9a909a5b89111561489057614a5e908b614bf2565b614a678a614da9565b87614a18565b859b919b52838352614a83878787205416613c47565b614a4d565b611e3a90614af761ffff91614aa08360105416613586565b9260018060a01b0382169081600052601160205260406000209085169161ffff199183838254161790558260005260126020526040600020906001600160601b0360a01b8254161790556010541617601055613c47565b90614d05565b6001600160a01b031660009081526011602052604090205461ffff16908115614b2257565b60405163f2755e3760e01b8152600490fd5b6001600160a01b03166000908152600e602052604090205461ffff16908115614b2257565b614b7e61ffff808060105416931693614b74848611156135af565b16918211156135af565b6000828152601260208181526040808420805486865282862080546001600160a01b0392831680895260118752858920805461ffff19908116909b1790559216808852938720805490981689179097559390925284546001600160a01b031990811690931790945593909152825416179055565b614c0d61ffff8080600d5416931693614b74848611156135af565b6000828152600f60208181526040808420805486865282862080546001600160a01b03928316808952600e8752858920805461ffff19908116909b1790559216808852938720805490981689179097559390925284546001600160a01b031990811690931790945593909152825416179055565b61ffff16600090815260126020908152604080832080546001600160a01b031981169091556001600160a01b0316835260119091529020805461ffff19169055565b61ffff166000908152600f6020908152604080832080546001600160a01b031981169091556001600160a01b03168352600e9091529020805461ffff19169055565b9190915b60018061ffff83161115614d545781617fff911c169083614d3f60008481526012602052604060018060a01b0391205416613c47565b1015614d5457614d4f9082614b59565b614d09565b50509050565b9190915b60018061ffff83161115614d545781617fff911c169083614d946000848152600f602052604060018060a01b0391205416613c47565b1115614d5457614da49082614bf2565b614d5e565b60011b906201fffe61fffe831692168203611d9857565b61ffff60105416156148b657565b61ffff600d5416156148b657565b91909161ffff928382166000526012602052614e1f60018060a01b03614e088160406000205416613c47565b958316600052601260205260406000205416613c47565b90818510614e2d5750509190565b9350919050565b919061ffff808416600052600f602052614e7560018060a01b03614e5e8160406000205416613c47565b928416600052600f60205260406000205416613c47565b9384821115614e2d575050919056fe1c593a2b803c3f9038e8b6743ba79fbc4276d2770979a01d2768ed12bea3243fc451c9429c27db68f286ab8a68f311f1dccab703ba9423aed29cd397ae63f863691bb03ffc16c56fc96b82fd16cd1b3715f0bc3cdc6407005f49bb6205860095a264697066735822122049f2298fb6e971c6296b937e9508e4f966cf930987a6d078f9eed033036c99a064736f6c63430008180033","linkReferences":{}},"methodIdentifiers":{"addBootstrapNode(string)":"10fd4261","claim()":"4e71d92d","confirmChange(uint64)":"350a14bf","confirmNextChange()":"c7ebdaef","join(bytes)":"6170b162","kill()":"41c0e1b5","leave()":"d66d9e19","pause()":"8456cb59","paused()":"5c975abb","preFund()":"0b7fbe60","preRelease(uint256)":"66783c9b","setFederatedPower(address[],bytes[],uint256[])":"da5d09ee","stake()":"3a4b66f1","submitCheckpoint(((uint64,address[]),uint256,bytes32,uint64,(uint8,((uint64,address[]),(uint8,bytes)),((uint64,address[]),(uint8,bytes)),uint64,uint256,bytes)[]),address[],bytes[])":"79979f57","unpause()":"3f4ba83a","unstake(uint256)":"2e17de78","validateActiveQuorumSignatures(address[],bytes32,bytes[])":"cc2dc2b9"},"id":129}