{"abi":[{"type":"function","name":"pause","inputs":[],"outputs":[],"stateMutability":"nonpayable"},{"type":"function","name":"paused","inputs":[],"outputs":[{"name":"","type":"bool","internalType":"bool"}],"stateMutability":"view"},{"type":"function","name":"unpause","inputs":[],"outputs":[],"stateMutability":"nonpayable"},{"type":"event","name":"Paused","inputs":[{"name":"account","type":"address","indexed":false,"internalType":"address"}],"anonymous":false},{"type":"event","name":"Unpaused","inputs":[{"name":"account","type":"address","indexed":false,"internalType":"address"}],"anonymous":false},{"type":"error","name":"EnforcedPause","inputs":[]},{"type":"error","name":"ExpectedPause","inputs":[]},{"type":"error","name":"NotOwner","inputs":[]}],"bytecode":{"object":"0x6080806040523461001657610214908161001c8239f35b600080fdfe604060808152600436101561001357600080fd5b600090813560e01c80633f4ba83a146101105780635c975abb146100ce57638456cb591461004057600080fd5b346100ca57816003193601126100ca57610058610199565b7fc451c9429c27db68f286ab8a68f311f1dccab703ba9423aed29cd397ae63f863805460ff81166100b95760ff19166001179055513381527f62e78cea01bee320cd4e420270b5ea74000d11b0c9f74754ebdbfc544b05a25890602090a180f35b825163d93c066560e01b8152600490fd5b5080fd5b50346100ca57816003193601126100ca5760209060ff7fc451c9429c27db68f286ab8a68f311f1dccab703ba9423aed29cd397ae63f863541690519015158152f35b50346100ca57816003193601126100ca57610129610199565b7fc451c9429c27db68f286ab8a68f311f1dccab703ba9423aed29cd397ae63f863805460ff8116156101885760ff19169055513381527f5db9ee0a495bf2e6ff9c91a7834c1ba4fdd244a5e8aa4e537bd38aeae4b073aa90602090a180f35b8251638dfc202b60e01b8152600490fd5b7f806e0cbb9fce296bbc336a48f42bf1dbc69722d18d90d6fe705b7582c2bb4bd5546001600160a01b031633036101cc57565b6040516330cd747160e01b8152600490fdfea2646970667358221220e3545f46f6e030391b0d12c92a3be0792face22b28bf905b7a7784e62407548964736f6c63430008180033","linkReferences":{}},"methodIdentifiers":{"pause()":"8456cb59","paused()":"5c975abb","unpause()":"3f4ba83a"},"id":103}