{"abi":[{"type":"function","name":"newSubnetActor","inputs":[{"name":"_params","type":"tuple","internalType":"struct SubnetActorDiamond.ConstructorParams","components":[{"name":"minActivationCollateral","type":"uint256","internalType":"uint256"},{"name":"minValidators","type":"uint64","internalType":"uint64"},{"name":"bottomUpCheckPeriod","type":"uint64","internalType":"uint64"},{"name":"ipcGatewayAddr","type":"address","internalType":"address"},{"name":"activeValidatorsLimit","type":"uint16","internalType":"uint16"},{"name":"majorityPercentage","type":"uint8","internalType":"uint8"},{"name":"consensus","type":"uint8","internalType":"enum ConsensusType"},{"name":"powerScale","type":"int8","internalType":"int8"},{"name":"permissionMode","type":"uint8","internalType":"enum PermissionMode"},{"name":"supplySource","type":"tuple","internalType":"struct SupplySource","components":[{"name":"kind","type":"uint8","internalType":"enum SupplyKind"},{"name":"tokenAddress","type":"address","internalType":"address"}]},{"name":"parentId","type":"tuple","internalType":"struct SubnetID","components":[{"name":"root","type":"uint64","internalType":"uint64"},{"name":"route","type":"address[]","internalType":"address[]"}]}]}],"outputs":[{"name":"subnetAddr","type":"address","internalType":"address"}],"stateMutability":"nonpayable"},{"type":"event","name":"SubnetDeployed","inputs":[{"name":"subnetAddr","type":"address","indexed":false,"internalType":"address"}],"anonymous":false},{"type":"error","name":"NotOwner","inputs":[]},{"type":"error","name":"ReentrancyError","inputs":[]},{"type":"error","name":"WrongGateway","inputs":[]}],"bytecode":{"object":"0x608080604052346100165761276b908161001c8239f35b600080fdfe60808060405260043610156200001457600080fd5b60003560e01c63fc3b0ad3146200002a57600080fd5b3462000b405760031960203682011262000b40576001600160401b036004351162000b4057610180906004353603011262000b405760017f691bb03ffc16c56fc96b82fd16cd1b3715f0bc3cdc6407005f49bb62058600955414620010d85760017f691bb03ffc16c56fc96b82fd16cd1b3715f0bc3cdc6407005f49bb620586009555606460043501356001600160a01b0381169081900362000b40576000546001600160a01b031603620010c657620000e362001217565b60405161012081018181106001600160401b0382111762000bdd576040526008815260005b6101008110620010975750600154604051906001600160a01b03166200012e82620010e7565b81526000602082015260405180816020600954928381520160096000527f6e1540171b6c0c960b71a7020d9f60077f6af931a8bbf590da0223dacf75c7af926000905b8060078301106200102157620001d294549181811062000cc7575b81811062000ca7575b81811062000c87575b81811062000c67575b81811062000c47575b81811062000c27575b81811062000c09575b1062000bf3575b50038262001103565b6040820152620001e28262001146565b52620001ee8162001146565b50600254604051906001600160a01b03166200020a82620010e7565b81526000602082015260405180816020600a549283815201600a6000527fc65a7bb8d6351c1cf70c95a316cc6a92839c986682d98bc35f958f4883f9d2a8926000905b80600783011062000fab57620002a694549181811062000cc75781811062000ca75781811062000c875781811062000c675781811062000c475781811062000c275781811062000c09571062000bf35750038262001103565b6040820152620002b6826200116a565b52620002c2816200116a565b50600354604051906001600160a01b0316620002de82620010e7565b81526000602082015260405180816020600b549283815201600b6000527f0175b7a638427703f0dbe7bb9bbf987a2551717b34e79f33b5b1008d1fa01db9926000905b80600783011062000f35576200037a94549181811062000cc75781811062000ca75781811062000c875781811062000c675781811062000c475781811062000c275781811062000c09571062000bf35750038262001103565b60408201526200038a826200117b565b5262000396816200117b565b50600454604051906001600160a01b0316620003b282620010e7565b81526000602082015260405180816020600c549283815201600c6000527fdf6966c971051c3d54ec59162606531493a51404a002842f56009d7e5cf4a8c7926000905b80600783011062000ebf576200044e94549181811062000cc75781811062000ca75781811062000c875781811062000c675781811062000c475781811062000c275781811062000c09571062000bf35750038262001103565b60408201526200045e826200118c565b526200046a816200118c565b50600554604051906001600160a01b03166200048682620010e7565b81526000602082015260405180816020600d549283815201600d6000527fd7b6990105719101dabeb77144f2a3385c8033acd3af97e9423a695e81ad1eb5926000905b80600783011062000e49576200052294549181811062000cc75781811062000ca75781811062000c875781811062000c675781811062000c475781811062000c275781811062000c09571062000bf35750038262001103565b604082015262000532826200119d565b526200053e816200119d565b50600654604051906001600160a01b03166200055a82620010e7565b81526000602082015260405180816020600e549283815201600e6000527fbb7b4a454dc3493923482f07822329ed19e8244eff582cc204f8554c3620c3fd926000905b80600783011062000dd357620005f694549181811062000cc75781811062000ca75781811062000c875781811062000c675781811062000c475781811062000c275781811062000c09571062000bf35750038262001103565b60408201526200060682620011ae565b526200061281620011ae565b50600754604051906001600160a01b03166200062e82620010e7565b81526000602082015260405180816020600f549283815201600f6000527f8d1108e10bcb7c27dddfc02ed9d693a074039d026cf4ea4240b40f7d581ac802926000905b80600783011062000d5d57620006ca94549181811062000cc75781811062000ca75781811062000c875781811062000c675781811062000c475781811062000c275781811062000c09571062000bf35750038262001103565b6040820152620006da82620011bf565b52620006e681620011bf565b50600854604051906001600160a01b03166200070282620010e7565b81526000602082015260405180816020601054928381520160106000527f1b6847dc741a1b0cd08d278845f9d819d87b734759afb55fe2de5cb82a9ae672926000905b80600783011062000ce7576200079e94549181811062000cc75781811062000ca75781811062000c875781811062000c675781811062000c475781811062000c275781811062000c09571062000bf35750038262001103565b6040820152620007ae82620011d0565b52620007ba81620011d0565b5060405190816114bf8101106001600160401b036114bf8401111762000bdd576114bf62001277833960606114bf830181815282519181018290526080600583901b82018101936020019291600091015b82821062000b455785856114bf8201810360206114bf840101526004356004013581526001600160401b0362000846602460043501620011e2565b1660208201526001600160401b0362000864604460043501620011e2565b1660408201526001600160a01b0362000882600435606401620011f7565b1660608201526084600435013561ffff811680910362000b4057608082015260a4600435013560ff811680910362000b405760a082015260c46004350135600181101562000b405760c082015260e460043501358060000b80910362000b405760e08201526101046004350135600381101562000b4057620009048162001125565b6101008201526101246004350135600281101562000b405762000927816200120c565b6101208201526001600160a01b036200094660043561014401620011f7565b166101408201526004356101648101359036036042190181121562000b4057600435016101806101608301526101c08201906001600160401b036200098e60048301620011e2565b1661018084015260248101356022198236030181121562000b40570190602460048301359201926001600160401b03831162000b40578260051b3603841362000b405780838695949360406101a06101e09501525201919060005b81811062000b0f575050503360406114bf8401015203906000f0801562000b035733600090815260126020526040902080546001600160401b03808216936001600160a01b0316929190841462000aed576001600160401b0360016020950116906001600160401b03191617905533600052601182526040600020601283526001600160401b036040600020541660005282526040600020816bffffffffffffffffffffffff60a01b8254161790557f0431ea4d93af299b92f2c606ddcaf4b31cb0013c5ed1fdea837b8a912347c96582604051838152a160007f691bb03ffc16c56fc96b82fd16cd1b3715f0bc3cdc6407005f49bb620586009555604051908152f35b634e487b7160e01b600052601160045260246000fd5b6040513d6000823e3d90fd5b9193509160019060209081906001600160a01b0362000b2e88620011f7565b168152019401910191849392620009e9565b600080fd5b90919293607f196114bf870182030182528451602060806040606085019360018060a01b0381511686528381015162000b7e8162001125565b84870152015193606060408201528451809452019201906000905b80821062000bb9575050506020806001929601920192019092916200080b565b82516001600160e01b03191684526020938401939092019160019091019062000b99565b634e487b7160e01b600052604160045260246000fd5b6001600160e01b031916815260200186620001c9565b602083811b6001600160e01b031916855290930192600101620001c2565b604083901b6001600160e01b0319168452602090930192600101620001b9565b606083901b6001600160e01b0319168452602090930192600101620001b0565b608083901b6001600160e01b0319168452602090930192600101620001a7565b60a083901b6001600160e01b03191684526020909301926001016200019e565b60c083901b6001600160e01b031916845260209093019260010162000195565b60e083901b6001600160e01b03191684526020909301926001016200018c565b916008919350610100600191865463ffffffff60e01b90818160e01b16835260c08282821b16602085015260a08383821b166040860152606084846080928282851b16818a01521b1690860152838360401b1690850152828260201b16908401521660e082015201940192018492939162000745565b916008919350610100600191865463ffffffff60e01b90818160e01b16835260c08282821b16602085015260a08383821b166040860152606084846080928282851b16818a01521b1690860152838360401b1690850152828260201b16908401521660e082015201940192018492939162000671565b916008919350610100600191865463ffffffff60e01b90818160e01b16835260c08282821b16602085015260a08383821b166040860152606084846080928282851b16818a01521b1690860152838360401b1690850152828260201b16908401521660e08201520194019201849293916200059d565b916008919350610100600191865463ffffffff60e01b90818160e01b16835260c08282821b16602085015260a08383821b166040860152606084846080928282851b16818a01521b1690860152838360401b1690850152828260201b16908401521660e0820152019401920184929391620004c9565b916008919350610100600191865463ffffffff60e01b90818160e01b16835260c08282821b16602085015260a08383821b166040860152606084846080928282851b16818a01521b1690860152838360401b1690850152828260201b16908401521660e0820152019401920184929391620003f5565b916008919350610100600191865463ffffffff60e01b90818160e01b16835260c08282821b16602085015260a08383821b166040860152606084846080928282851b16818a01521b1690860152838360401b1690850152828260201b16908401521660e082015201940192018492939162000321565b916008919350610100600191865463ffffffff60e01b90818160e01b16835260c08282821b16602085015260a08383821b166040860152606084846080928282851b16818a01521b1690860152838360401b1690850152828260201b16908401521660e08201520194019201849293916200024d565b916008919350610100600191865463ffffffff60e01b90818160e01b16835260c08282821b16602085015260a08383821b166040860152606084846080928282851b16818a01521b1690860152838360401b1690850152828260201b16908401521660e082015201940192018492939162000171565b602090604051620010a881620010e7565b60008152600083820152606060408201528282850101520162000108565b604051633bed049960e01b8152600490fd5b6329f745a760e01b8152600490fd5b606081019081106001600160401b0382111762000bdd57604052565b90601f801991011681019081106001600160401b0382111762000bdd57604052565b600311156200113057565b634e487b7160e01b600052602160045260246000fd5b805115620011545760200190565b634e487b7160e01b600052603260045260246000fd5b805160011015620011545760400190565b805160021015620011545760600190565b805160031015620011545760800190565b805160041015620011545760a00190565b805160051015620011545760c00190565b805160061015620011545760e00190565b80516007101562001154576101000190565b35906001600160401b038216820362000b4057565b35906001600160a01b038216820362000b4057565b600211156200113057565b60ff6013541662001228816200120c565b1562001274577f806e0cbb9fce296bbc336a48f42bf1dbc69722d18d90d6fe705b7582c2bb4bd5546001600160a01b031633036200126257565b6040516330cd747160e01b8152600490fd5b56fe60806040523461074b576114bf803803809161001c8260806110f6565b6080396060811261074b576080516001600160401b03811161074b5760808201609f8201121561074b5780608001519061005582611119565b9161006360405193846110f6565b8083526020830180928560800160208460051b8360800101011161074b5760a08101915b60a0600585901b8301018310610f9957505060a051949150506001600160401b03841161074b576101808482031261074b576040519361016085016001600160401b0381118682101761082157604052608081015185526100ea60a08201611144565b60208601526100fb60c08201611144565b604086015261010c60e08201611130565b606086015261010081015161ffff8116810361074b57608086015261012081015160ff8116810361074b5760a0860152610140810151600181101561074b5760c0860152610160810151600081900b810361074b5760e0860152610180810151600381101561074b57610100860152604081830361011f19011261074b57604051610196816110c0565b6101a0820151600281101561074b5781526101b46101c08301611130565b60208201526101208601526101e08101516001600160401b03811161074b576101e4926080019160800101611158565b6101408401526101f460c0611130565b60608401516001600160a01b031615610f875760408401516001600160401b031615610f7557600161010085015161022b816111fb565b610234816111fb565b141580610f6c575b610f5a5760ff60a08501511660338110908115610f4f575b50610f3d57601260e085015160000b13610f2b576101208401518051600281101561070957600114610ea2575b507f806e0cbb9fce296bbc336a48f42bf1dbc69722d18d90d6fe705b7582c2bb4bd580546001600160a01b039283166001600160a01b0319821681179092556040805193909116835260208301919091527f8be0079c531659141344cd1fd0a4f28419497f9722a3daafe3b4186f6b6457e091a16040516001600160401b036020820190811190821117610821576020810160405260008152825160005b8181106108965750506040519260608401906060855251809152608084019060808160051b86010193916000905b82821061084057877f8faa70878671ccd212d20771b795c50af8fd3ff6cf27f4bde57e5d4de0aeb67388806103918a8a6000602085015283820360408501526112c4565b0390a17f806e0cbb9fce296bbc336a48f42bf1dbc69722d18d90d6fe705b7582c2bb4bd46020527f7dfd48dd9def002fa9b4a05bd6b726a6c313c362d3f3e8413d7a7520f0090d258054600160ff1991821681179092557f4d7f4c8a2fb5b35ca3c277c93888b47f0f2229bdcccf66504d1ba48e88b8816480548216831790556348e2b09360e01b6000527f59ba4db4a213e8161de597b8c10db0e7e7ba5ace5c268e36379e249a6d2d42c9805490911682179055610100820151610455816111fb565b61045e816111fb565b14610837575b6101408101518051600880546001600160401b0319166001600160401b039283161790556020919091015180519182116108215768010000000000000000821161082157600954826009558083106107ec575b506020016009600052602060002060005b8381106107cf57606085015160055460c087015187926001600160a01b031690600181101561070957835160025560018060401b0360208501511660018060401b0319600654161760065560018060401b0360408501511660035560ff60e01b60a085015160e01b169160e085015160e81b60ff60e81b1693600160a01b63ff00000160e01b0316179060ff60f01b9060f01b161717176005556040519061056f826110c0565b6008546001600160401b0316825260405160098054808352600091825260008051602061145f83398151915291839160208301915b8181106107ad5750506105b9925003826110f6565b60208301526105fb600073__$a0fe38a9a81205afccc10810b09a4d3f45$__936040518093819263aa5106cb60e01b8352604060048401526044830190611205565b3060248301520381865af490811561075857600091610764575b5060209061063f9360405180809681946390ba52cf60e01b83528660048401526024830190611205565b03915af480156107585760009061071f575b6101209250600455610100810151610668816111fb565b610671816111fb565b600a54600560a11b600160a01b600160e01b0319600554161760055560ff62ffff00608085015160081b1692169062ffffff19161717600a556801000000000000000160018060801b03196013541617601355015180519060028210156107095760ff600754916020610100600160a81b0391015160081b1692169060018060a81b031916171760075560405160eb90816113748239f35b634e487b7160e01b600052602160045260246000fd5b506020823d602011610750575b81610739602093836110f6565b8101031261074b576101209151610651565b600080fd5b3d915061072c565b6040513d6000823e3d90fd5b90503d806000833e61077681836110f6565b81019260208285031261074b578151916001600160401b03831161074b5761063f946020936107a59201611158565b915092610615565b84546001600160a01b03168352600194850194869450602090930192016105a4565b82516001600160a01b0316818301556020909201916001016104c8565b600960005260008051602061145f833981519152908382015b81830181106108155750506104b7565b60008155600101610805565b634e487b7160e01b600052604160045260246000fd5b60008152610464565b90919294602080610888600193607f198b8203018652606060408b51878060a01b03815116845285810151610874816111fb565b868501520151918160408201520190611286565b97019201920190929161034d565b60406108a2828761125c565b5101516001600160a01b036108b7838861125c565b51511690805115610e895760206108ce848961125c565b5101516108da816111fb565b6108e3816111fb565b80610ae557508115610abc5761ffff60008051602061147f83398151915254169161094d604051610913816110db565b602181527f6469616d6f6e644375743a2041646420666163657420686173206e6f20636f646020820152606560f81b604082015282611334565b8151916000935b83851061096a5750505050506001905b0161031f565b6001600160e01b031961097d868461125c565b5116600081815260008051602061149f83398151915260205260409020546001600160a01b0316610aa457610a136040516109b7816110c0565b85815261ffff84166020808301918252600085815260008051602061149f833981519152909152604090209151825491516001600160b01b03199092166001600160a01b03919091161760a09190911b61ffff60a01b16179055565b60008051602061147f83398151915254906801000000000000000082101561082157610a55826001610a72940160008051602061147f83398151915255611304565b90919063ffffffff83549160031b9260e01c831b921b1916179055565b61ffff80821614610a8e57600161ffff81921601940193610954565b634e487b7160e01b600052601160045260246000fd5b6024906040519063ebbf5d0760e01b82526004820152fd5b6040516302b8da0760e21b815260206004820152908190610ae1906024830190611286565b0390fd5b610aee816111fb565b60018103610c5557508115610c3057610b4d604051610b0c816110db565b602881527f4c69624469616d6f6e644375743a205265706c61636520666163657420686173602082015267206e6f20636f646560c01b604082015283611334565b80519060005b828110610b665750505050600190610964565b6001600160e01b0319610b79828461125c565b5116600081815260008051602061149f83398151915260205260409020546001600160a01b0316308114610c1757858114610bfe5715610be657600090815260008051602061149f8339815191526020526040902080546001600160a01b03191685179055600101610b53565b60249060405190637479f93960e01b82526004820152fd5b604051631ac6ce8d60e11b815260048101839052602490fd5b604051632901806d60e11b815260048101839052602490fd5b60405163cd98a96f60e01b815260206004820152908190610ae1906024830190611286565b610c5e816111fb565b60028103610e69575060008051602061147f833981519152549180610e51575080519060005b828110610c975750505050600190610964565b6001600160e01b0319610caa828461125c565b5116908160005260008051602061149f83398151915260205260406000209460405195610cd6876110c0565b546001600160a01b03811680885260a09190911c61ffff16602088015215610e385785516001600160a01b03163014610e1f578015610a8e5760001901948561ffff60208301511603610da4575b5060008051602061147f83398151915254918215610d8e5760019260001901610d4c81611304565b63ffffffff82549160031b1b1916905560008051602061147f8339815191525560005260008051602061149f8339815191526020526000604081205501610c84565b634e487b7160e01b600052603160045260246000fd5b610e199061ffff6020610db689611304565b90549060031b1c60e01b92610dd384610a55858585015116611304565b01516001600160e01b0319909216600090815260008051602061149f83398151915260205260409020805461ffff60a01b19169190921660a01b61ffff60a01b16179055565b38610d24565b604051630df5fd6160e31b815260048101849052602490fd5b604051637a08a22d60e01b815260048101849052602490fd5b6024906040519063d091bc8160e01b82526004820152fd5b604051633ff4d20f60e11b8152602491610e82816111fb565b6004820152fd5b60405163e767f91f60e01b815260048101839052602490fd5b60208101516001600160a01b031615610f19576020908101516040516370a0823160e01b8152600060048201529190829060249082906001600160a01b03165afa8015610758571561028157602090813d8311610f12575b610f0481836110f6565b8101031261074b5738610281565b503d610efa565b6040516376fe282b60e11b8152600490fd5b6040516378b177e560e11b8152600490fd5b6040516375c3b42760e01b8152600490fd5b606491501138610254565b6040516368f7a67560e11b8152600490fd5b5083511561023c565b60405163312f8e0560e01b8152600490fd5b604051638b3ddc3360e01b8152600490fd5b82516001600160401b03811161074b57820160808101906060908903601f19011261074b5760405190606082016001600160401b038111838210176110ab57604052610fe760208201611130565b82526040810151600381101561074b57602083015260608101516001600160401b03811161074b5789608001603f82840101121561074b576020818301015161102f81611119565b9261103d60405194856110f6565b81845260208401908c60800160408460051b86840101011161074b57604084820101915b60408460051b8684010101831061108a5750505050506040820152815260209283019201610087565b82516001600160e01b03198116810361074b57815260209283019201611061565b60246000634e487b7160e01b81526041600452fd5b604081019081106001600160401b0382111761082157604052565b606081019081106001600160401b0382111761082157604052565b601f909101601f19168101906001600160401b0382119082101761082157604052565b6001600160401b0381116108215760051b60200190565b51906001600160a01b038216820361074b57565b51906001600160401b038216820361074b57565b919060408382031261074b5760405192611171846110c0565b8361117b82611144565b815260208281015190926001600160401b03821161074b57019280601f8501121561074b5783516111ab81611119565b946111b960405196876110f6565b818652848087019260051b82010192831161074b5784809101915b8383106111e357505050500152565b81906111ee84611130565b81520191019084906111d4565b6003111561070957565b6040820160018060401b0382511683526020606081809401519460408382015285518094520193019160005b82811061123f575050505090565b83516001600160a01b031685529381019392810192600101611231565b80518210156112705760209160051b010190565b634e487b7160e01b600052603260045260246000fd5b90815180825260208080930193019160005b8281106112a6575050505090565b83516001600160e01b03191685529381019392810192600101611298565b919082519283825260005b8481106112f0575050826000602080949584010152601f8019910116010190565b6020818301810151848301820152016112cf565b9060008051602061147f833981519152805483101561127057600052601c60206000208360031c019260021b1690565b803b1561133f575050565b6040805163919834b960e01b81526001600160a01b0390921660048301526024820152908190610ae19060448301906112c456fe60806040523615609157600080356001600160e01b0319168082527f806e0cbb9fce296bbc336a48f42bf1dbc69722d18d90d6fe705b7582c2bb4bd260205260408220546001600160a01b0316908115606f5750818091368280378136915af43d82803e15606b573d90f35b3d90fd5b630a82dd7360e31b6080526001600160e01b031916608452607f1960a4016080fd5b6005546001600160a01b0316330360a457005b63e7e601db60e01b60805260046080fdfea2646970667358221220ec7914fe7c51d438fc190d8dbf33f262c15ded920984bf42be63d54f5ef51b2464736f6c634300081800336e1540171b6c0c960b71a7020d9f60077f6af931a8bbf590da0223dacf75c7af806e0cbb9fce296bbc336a48f42bf1dbc69722d18d90d6fe705b7582c2bb4bd3806e0cbb9fce296bbc336a48f42bf1dbc69722d18d90d6fe705b7582c2bb4bd2a2646970667358221220527784137aae9474a9797bcd903b09923d003002acc6fcf5f7fcbcfd4a5c877d64736f6c63430008180033","linkReferences":{"src/lib/SubnetIDHelper.sol":{"SubnetIDHelper":[{"start":6232,"length":20}]}}},"methodIdentifiers":{"newSubnetActor((uint256,uint64,uint64,address,uint16,uint8,uint8,int8,uint8,(uint8,address),(uint64,address[])))":"fc3b0ad3"},"id":105}