{"abi":[{"type":"function","name":"performCall","inputs":[{"name":"supplySource","type":"tuple","internalType":"struct SupplySource","components":[{"name":"kind","type":"uint8","internalType":"enum SupplyKind"},{"name":"tokenAddress","type":"address","internalType":"address"}]},{"name":"target","type":"address","internalType":"address payable"},{"name":"data","type":"bytes","internalType":"bytes"},{"name":"value","type":"uint256","internalType":"uint256"}],"outputs":[{"name":"success","type":"bool","internalType":"bool"},{"name":"ret","type":"bytes","internalType":"bytes"}],"stateMutability":"nonpayable"},{"type":"error","name":"NotEnoughBalance","inputs":[]}],"bytecode":{"object":"0x608080604052346100165761041d908161001c8239f35b600080fdfe6080604052600436101561001257600080fd5b6000803560e01c637bf257a81461002857600080fd5b346100b357366003190160a081126100b6576040136100b35761004b60c0604052565b60043560028110156100b65760805260243561006681610113565b60a052610071610129565b6064359167ffffffffffffffff83116100b3575061009661009f923690600401610154565b60843591610213565b906100af604051928392836101be565b0390f35b80fd5b5080fd5b634e487b7160e01b600052604160045260246000fd5b6060810190811067ffffffffffffffff8211176100ec57604052565b6100ba565b90601f8019910116810190811067ffffffffffffffff8211176100ec57604052565b6001600160a01b0381160361012457565b600080fd5b6044359061013682610113565b565b67ffffffffffffffff81116100ec57601f01601f191660200190565b81601f820112156101245780359061016b82610138565b9261017960405194856100f1565b8284526020838301011161012457816000926020809301838601378301015290565b60005b8381106101ae5750506000910152565b818101518382015260200161019e565b909160609215158252604060208301526101e7815180928160408601526020868601910161019b565b601f01601f1916010190565b600211156101fd57565b634e487b7160e01b600052602160045260246000fd5b606093929190600080841561035057608051600281101561033c57610237816101f3565b610256575093945061025293506001600160a01b03166103b5565b9091565b90936001608051610266816101f3565b61026f816101f3565b1461027d575b505050509190565b819396508192945060018060a01b038095169460a0511690826040519160208301908882526040840152604083526102b4836100d0565b6102ec602460405180936102dc602083019763a9059cbb60e01b89525180928585019061019b565b81010360048101845201826100f1565b51925af1936102f961036a565b9285610325575b5050831561031357509138808080610275565b9080519081610320578280fd5b602001fd5b90919450610333925061039a565b90923880610300565b634e487b7160e01b82526021600452602482fd5b5093945061025293509091506001600160a01b031661039a565b3d15610395573d9061037b82610138565b9161038960405193846100f1565b82523d6000602084013e565b606090565b600091829182602083519301915af1906103b261036a565b90565b91908147106103d5576000928392602083519301915af1906103b261036a565b60405163569d45cf60e11b8152600490fdfea2646970667358221220f14cb325452347c8cbe26bef2d6d515a0343f8a6697091cde9fe8b0f3feae70264736f6c63430008180033","linkReferences":{}},"methodIdentifiers":{"performCall((uint8,address),address,bytes,uint256)":"7bf257a8"},"id":130}