{"abi":[{"type":"constructor","inputs":[{"name":"name_","type":"string","internalType":"string"},{"name":"symbol_","type":"string","internalType":"string"},{"name":"initialSupply","type":"uint256","internalType":"uint256"},{"name":"owner","type":"address","internalType":"address"},{"name":"inflationRate_","type":"uint256","internalType":"uint256"}],"stateMutability":"nonpayable"},{"type":"function","name":"allowance","inputs":[{"name":"owner","type":"address","internalType":"address"},{"name":"spender","type":"address","internalType":"address"}],"outputs":[{"name":"","type":"uint256","internalType":"uint256"}],"stateMutability":"view"},{"type":"function","name":"approve","inputs":[{"name":"spender","type":"address","internalType":"address"},{"name":"value","type":"uint256","internalType":"uint256"}],"outputs":[{"name":"","type":"bool","internalType":"bool"}],"stateMutability":"nonpayable"},{"type":"function","name":"balanceOf","inputs":[{"name":"account","type":"address","internalType":"address"}],"outputs":[{"name":"","type":"uint256","internalType":"uint256"}],"stateMutability":"view"},{"type":"function","name":"decimals","inputs":[],"outputs":[{"name":"","type":"uint8","internalType":"uint8"}],"stateMutability":"view"},{"type":"function","name":"inflationRatePercentage","inputs":[],"outputs":[{"name":"","type":"uint256","internalType":"uint256"}],"stateMutability":"view"},{"type":"function","name":"name","inputs":[],"outputs":[{"name":"","type":"string","internalType":"string"}],"stateMutability":"view"},{"type":"function","name":"owner","inputs":[],"outputs":[{"name":"","type":"address","internalType":"address"}],"stateMutability":"view"},{"type":"function","name":"renounceOwnership","inputs":[],"outputs":[],"stateMutability":"nonpayable"},{"type":"function","name":"setInflationRate","inputs":[{"name":"newRate","type":"uint256","internalType":"uint256"}],"outputs":[],"stateMutability":"nonpayable"},{"type":"function","name":"symbol","inputs":[],"outputs":[{"name":"","type":"string","internalType":"string"}],"stateMutability":"view"},{"type":"function","name":"totalSupply","inputs":[],"outputs":[{"name":"","type":"uint256","internalType":"uint256"}],"stateMutability":"view"},{"type":"function","name":"transfer","inputs":[{"name":"to","type":"address","internalType":"address"},{"name":"value","type":"uint256","internalType":"uint256"}],"outputs":[{"name":"","type":"bool","internalType":"bool"}],"stateMutability":"nonpayable"},{"type":"function","name":"transferFrom","inputs":[{"name":"from","type":"address","internalType":"address"},{"name":"to","type":"address","internalType":"address"},{"name":"value","type":"uint256","internalType":"uint256"}],"outputs":[{"name":"","type":"bool","internalType":"bool"}],"stateMutability":"nonpayable"},{"type":"function","name":"transferOwnership","inputs":[{"name":"newOwner","type":"address","internalType":"address"}],"outputs":[],"stateMutability":"nonpayable"},{"type":"event","name":"Approval","inputs":[{"name":"owner","type":"address","indexed":true,"internalType":"address"},{"name":"spender","type":"address","indexed":true,"internalType":"address"},{"name":"value","type":"uint256","indexed":false,"internalType":"uint256"}],"anonymous":false},{"type":"event","name":"OwnershipTransferred","inputs":[{"name":"previousOwner","type":"address","indexed":true,"internalType":"address"},{"name":"newOwner","type":"address","indexed":true,"internalType":"address"}],"anonymous":false},{"type":"event","name":"Transfer","inputs":[{"name":"from","type":"address","indexed":true,"internalType":"address"},{"name":"to","type":"address","indexed":true,"internalType":"address"},{"name":"value","type":"uint256","indexed":false,"internalType":"uint256"}],"anonymous":false},{"type":"error","name":"ERC20InsufficientAllowance","inputs":[{"name":"spender","type":"address","internalType":"address"},{"name":"allowance","type":"uint256","internalType":"uint256"},{"name":"needed","type":"uint256","internalType":"uint256"}]},{"type":"error","name":"ERC20InsufficientBalance","inputs":[{"name":"sender","type":"address","internalType":"address"},{"name":"balance","type":"uint256","internalType":"uint256"},{"name":"needed","type":"uint256","internalType":"uint256"}]},{"type":"error","name":"ERC20InvalidApprover","inputs":[{"name":"approver","type":"address","internalType":"address"}]},{"type":"error","name":"ERC20InvalidReceiver","inputs":[{"name":"receiver","type":"address","internalType":"address"}]},{"type":"error","name":"ERC20InvalidSender","inputs":[{"name":"sender","type":"address","internalType":"address"}]},{"type":"error","name":"ERC20InvalidSpender","inputs":[{"name":"spender","type":"address","internalType":"address"}]},{"type":"error","name":"OwnableInvalidOwner","inputs":[{"name":"owner","type":"address","internalType":"address"}]},{"type":"error","name":"OwnableUnauthorizedAccount","inputs":[{"name":"account","type":"address","internalType":"address"}]}],"bytecode":{"object":"0x60406080815234620004625762000ecb803803806200001e8162000467565b928339810160a082820312620004625781516001600160401b039290838111620004625782620000509183016200048d565b92602092838301519082821162000462576200006e9184016200048d565b90858301519260608101519560018060a01b03918288168098036200046257608001519281518181116200035f576003908154906001948583811c9316801562000457575b8b841014620004415781908b601f94858111620003e8575b50508b90848311600114620003815760009262000375575b505060001982851b1c191690851b1782555b86519283116200035f5760049687548581811c9116801562000354575b8b8210146200033f57828111620002f4575b508991841160011462000289579383949184926000956200027d575b50501b92600019911b1c19161783555b85156200026657600580546001600160a01b0319811688179091558751918791167f8be0079c531659141344cd1fd0a4f28419497f9722a3daafe3b4186f6b6457e0600080a36064821162000213575060065560025490828201809211620001fe575060025560008381528083528481208054830190558451918252917fddf252ad1be2c89b69c2b068fc378daa952ba7f163c4a11628f55a4df523b3ef91a3516109cb9081620005008239f35b601190634e487b7160e01b6000525260246000fd5b62461bcd60e51b8152828101859052602960248201527f496e666c6174696f6e2072617465206d757374206265206265747765656e20306044820152681030b732101898181760b91b6064820152608490fd5b8651631e4fbdf760e01b8152600081850152602490fd5b01519350388062000140565b9190601f1984169288600052848b6000209460005b8d89838310620002dc5750505010620002c1575b50505050811b01835562000150565b01519060f884600019921b161c1916905538808080620002b2565b8686015189559097019694850194889350016200029e565b886000528a6000208380870160051c8201928d881062000335575b0160051c019086905b8281106200032857505062000124565b6000815501869062000318565b925081926200030f565b602289634e487b7160e01b6000525260246000fd5b90607f169062000112565b634e487b7160e01b600052604160045260246000fd5b015190503880620000e3565b60008681528d8120899550929190601f198516908f5b828210620003d05750508411620003b7575b505050811b018255620000f5565b015160001983871b60f8161c19169055388080620003a9565b8385015186558b979095019493840193018f62000397565b909192508560005284826000209181860160051c830193861062000437575b918991869594930160051c01915b8281106200042757508d9150620000cb565b6000815585945089910162000415565b9250819262000407565b634e487b7160e01b600052602260045260246000fd5b92607f1692620000b3565b600080fd5b6040519190601f01601f191682016001600160401b038111838210176200035f57604052565b919080601f84011215620004625782516001600160401b0381116200035f57602090620004c3601f8201601f1916830162000467565b92818452828287010111620004625760005b818110620004eb57508260009394955001015290565b8581018301518482018401528201620004d556fe6080604081815260048036101561001557600080fd5b600092833560e01c90816306fdde031461062757508063095ea7b31461057e57806318160ddd1461055f57806323b872dd1461046c578063313ce5671461045057806370a0823114610419578063715018a6146103b95780638da5cb5b1461039057806395d89b411461026e578063a9059cbb1461023d578063b1551b95146101bb578063b23606641461019c578063dd62ed3e1461014f5763f2fde38b146100bd57600080fd5b3461014b57602036600319011261014b576100d6610767565b906100df6107ee565b6001600160a01b03918216928315610135575050600554826bffffffffffffffffffffffff60a01b821617600555167f8be0079c531659141344cd1fd0a4f28419497f9722a3daafe3b4186f6b6457e08380a380f35b51631e4fbdf760e01b8152908101849052602490fd5b8280fd5b5050346101985780600319360112610198578060209261016d610767565b610175610782565b6001600160a01b0391821683526001865283832091168252845220549051908152f35b5080fd5b5050346101985781600319360112610198576020906006549051908152f35b503461014b57602036600319011261014b578035916101d86107ee565b606483116101e857505060065580f35b906020608492519162461bcd60e51b8352820152602960248201527f496e666c6174696f6e2072617465206d757374206265206265747765656e20306044820152681030b732101898181760b91b6064820152fd5b50503461019857806003193601126101985760209061026761025d610767565b6024359033610798565b5160018152f35b5091903461019857816003193601126101985780519082845460018160011c9060018316928315610386575b6020938484108114610373578388529081156103575750600114610302575b505050829003601f01601f191682019267ffffffffffffffff8411838510176102ef57508291826102eb92528261071e565b0390f35b634e487b7160e01b815260418552602490fd5b8787529192508591837f8a35acfbc15ff81a39ae7d344fd709f28e8600b4aa8c65c6b64bfe7fe36bd19b5b83851061034357505050508301013880806102b9565b80548886018301529301928490820161032d565b60ff1916878501525050151560051b84010190503880806102b9565b634e487b7160e01b895260228a52602489fd5b91607f169161029a565b50503461019857816003193601126101985760055490516001600160a01b039091168152602090f35b83346104165780600319360112610416576103d26107ee565b600580546001600160a01b0319811690915581906001600160a01b03167f8be0079c531659141344cd1fd0a4f28419497f9722a3daafe3b4186f6b6457e08280a380f35b80fd5b5050346101985760203660031901126101985760209181906001600160a01b03610441610767565b16815280845220549051908152f35b5050346101985781600319360112610198576020905160128152f35b50823461041657606036600319011261041657610487610767565b61048f610782565b916044359360018060a01b0383168083526001602052868320338452602052868320549160001983036104cb575b602088610267898989610798565b86831061053357811561051c57331561050557508252600160209081528683203384528152918690209085900390558290610267876104bd565b8751634a1406b160e11b8152908101849052602490fd5b875163e602df0560e01b8152908101849052602490fd5b8751637dc7a0d960e11b8152339181019182526020820193909352604081018790528291506060010390fd5b5050346101985781600319360112610198576020906002549051908152f35b503461014b578160031936011261014b57610597610767565b602435903315610610576001600160a01b03169182156105f957508083602095338152600187528181208582528752205582519081527f8c5be1e5ebec7d5bd14f71427d1e84f3dd0314c0f7b2291e5b200ac8c7c3b925843392a35160018152f35b8351634a1406b160e11b8152908101859052602490fd5b835163e602df0560e01b8152808401869052602490fd5b849150833461014b578260031936011261014b578260035460018160011c9060018316928315610714575b6020938484108114610373578388529081156106f857506001146106a257505050829003601f01601f191682019267ffffffffffffffff8411838510176102ef57508291826102eb92528261071e565b600387529192508591837fc2575a0e9e593c00f959f8c92f12db2869c3395a3b0502d05e2516446f71f85b5b8385106106e457505050508301018580806102b9565b8054888601830152930192849082016106ce565b60ff1916878501525050151560051b84010190508580806102b9565b91607f1691610652565b6020808252825181830181905290939260005b82811061075357505060409293506000838284010152601f8019910116010190565b818101860151848201604001528501610731565b600435906001600160a01b038216820361077d57565b600080fd5b602435906001600160a01b038216820361077d57565b91906001600160a01b03808416156107d5578116156107bc576107ba9261081a565b565b60405163ec442f0560e01b815260006004820152602490fd5b604051634b637e8f60e11b815260006004820152602490fd5b6005546001600160a01b0316330361080257565b60405163118cdaa760e01b8152336004820152602490fd5b6001600160a01b039080821615158061088a575b1561087e57838361083e92610895565b60065492838102938185041490151715610868578116156107bc5760646107ba920490600061081a565b634e487b7160e01b600052601160045260246000fd5b6107ba93929150610895565b50818316151561082e565b6001600160a01b038082169290918361091257509060025490848201809211610868577fddf252ad1be2c89b69c2b068fc378daa952ba7f163c4a11628f55a4df523b3ef926020926002555b1693846108fa5780600254036002555b604051908152a3565b846000526000825260406000208181540190556108f1565b6000908482528160205260408220549086821061096357509181604087602095887fddf252ad1be2c89b69c2b068fc378daa952ba7f163c4a11628f55a4df523b3ef989652838752039120556108e1565b60405163391434e360e21b81526001600160a01b03919091166004820152602481019190915260448101869052606490fdfea26469706673582212203ecb6cb102577f8954b86a549e53e64a00a952b4c0402247d2080b8a39d1854864736f6c63430008180033","linkReferences":{}},"methodIdentifiers":{"allowance(address,address)":"dd62ed3e","approve(address,uint256)":"095ea7b3","balanceOf(address)":"70a08231","decimals()":"313ce567","inflationRatePercentage()":"b2360664","name()":"06fdde03","owner()":"8da5cb5b","renounceOwnership()":"715018a6","setInflationRate(uint256)":"b1551b95","symbol()":"95d89b41","totalSupply()":"18160ddd","transfer(address,uint256)":"a9059cbb","transferFrom(address,address,uint256)":"23b872dd","transferOwnership(address)":"f2fde38b"},"id":112}