{"abi":[{"type":"function","name":"addBootstrapNode","inputs":[{"name":"netAddress","type":"string","internalType":"string"}],"outputs":[],"stateMutability":"nonpayable"},{"type":"function","name":"join","inputs":[{"name":"publicKey","type":"bytes","internalType":"bytes"}],"outputs":[],"stateMutability":"payable"},{"type":"function","name":"kill","inputs":[],"outputs":[],"stateMutability":"nonpayable"},{"type":"function","name":"leave","inputs":[],"outputs":[],"stateMutability":"nonpayable"},{"type":"function","name":"preFund","inputs":[],"outputs":[],"stateMutability":"payable"},{"type":"function","name":"preRelease","inputs":[{"name":"amount","type":"uint256","internalType":"uint256"}],"outputs":[],"stateMutability":"nonpayable"},{"type":"function","name":"setFederatedPower","inputs":[{"name":"validators","type":"address[]","internalType":"address[]"},{"name":"publicKeys","type":"bytes[]","internalType":"bytes[]"},{"name":"powers","type":"uint256[]","internalType":"uint256[]"}],"outputs":[],"stateMutability":"nonpayable"},{"type":"function","name":"stake","inputs":[],"outputs":[],"stateMutability":"payable"},{"type":"function","name":"unstake","inputs":[{"name":"amount","type":"uint256","internalType":"uint256"}],"outputs":[],"stateMutability":"nonpayable"},{"type":"event","name":"ActiveValidatorCollateralUpdated","inputs":[{"name":"validator","type":"address","indexed":false,"internalType":"address"},{"name":"newPower","type":"uint256","indexed":false,"internalType":"uint256"}],"anonymous":false},{"type":"event","name":"ActiveValidatorLeft","inputs":[{"name":"validator","type":"address","indexed":false,"internalType":"address"}],"anonymous":false},{"type":"event","name":"ActiveValidatorReplaced","inputs":[{"name":"oldValidator","type":"address","indexed":false,"internalType":"address"},{"name":"newValidator","type":"address","indexed":false,"internalType":"address"}],"anonymous":false},{"type":"event","name":"NewActiveValidator","inputs":[{"name":"validator","type":"address","indexed":false,"internalType":"address"},{"name":"power","type":"uint256","indexed":false,"internalType":"uint256"}],"anonymous":false},{"type":"event","name":"NewStakingChangeRequest","inputs":[{"name":"op","type":"uint8","indexed":false,"internalType":"enum StakingOperation"},{"name":"validator","type":"address","indexed":false,"internalType":"address"},{"name":"payload","type":"bytes","indexed":false,"internalType":"bytes"},{"name":"configurationNumber","type":"uint64","indexed":false,"internalType":"uint64"}],"anonymous":false},{"type":"event","name":"NewWaitingValidator","inputs":[{"name":"validator","type":"address","indexed":false,"internalType":"address"},{"name":"power","type":"uint256","indexed":false,"internalType":"uint256"}],"anonymous":false},{"type":"event","name":"Paused","inputs":[{"name":"account","type":"address","indexed":false,"internalType":"address"}],"anonymous":false},{"type":"event","name":"SubnetBootstrapped","inputs":[{"name":"","type":"tuple[]","indexed":false,"internalType":"struct Validator[]","components":[{"name":"weight","type":"uint256","internalType":"uint256"},{"name":"addr","type":"address","internalType":"address"},{"name":"metadata","type":"bytes","internalType":"bytes"}]}],"anonymous":false},{"type":"event","name":"Unpaused","inputs":[{"name":"account","type":"address","indexed":false,"internalType":"address"}],"anonymous":false},{"type":"event","name":"WaitingValidatorCollateralUpdated","inputs":[{"name":"validator","type":"address","indexed":false,"internalType":"address"},{"name":"newPower","type":"uint256","indexed":false,"internalType":"uint256"}],"anonymous":false},{"type":"event","name":"WaitingValidatorLeft","inputs":[{"name":"validator","type":"address","indexed":false,"internalType":"address"}],"anonymous":false},{"type":"error","name":"AddressInsufficientBalance","inputs":[{"name":"account","type":"address","internalType":"address"}]},{"type":"error","name":"AddressShouldBeValidator","inputs":[]},{"type":"error","name":"CannotReleaseZero","inputs":[]},{"type":"error","name":"CollateralIsZero","inputs":[]},{"type":"error","name":"DuplicatedGenesisValidator","inputs":[]},{"type":"error","name":"EmptyAddress","inputs":[]},{"type":"error","name":"EnforcedPause","inputs":[]},{"type":"error","name":"ExpectedPause","inputs":[]},{"type":"error","name":"FailedInnerCall","inputs":[]},{"type":"error","name":"InvalidFederationPayload","inputs":[]},{"type":"error","name":"InvalidPublicKeyLength","inputs":[]},{"type":"error","name":"MethodNotAllowed","inputs":[{"name":"reason","type":"string","internalType":"string"}]},{"type":"error","name":"NotAllValidatorsHaveLeft","inputs":[]},{"type":"error","name":"NotEnoughBalance","inputs":[]},{"type":"error","name":"NotEnoughCollateral","inputs":[]},{"type":"error","name":"NotEnoughFunds","inputs":[]},{"type":"error","name":"NotEnoughGenesisValidators","inputs":[]},{"type":"error","name":"NotOwner","inputs":[]},{"type":"error","name":"NotOwnerOfPublicKey","inputs":[]},{"type":"error","name":"NotValidator","inputs":[{"name":"","type":"address","internalType":"address"}]},{"type":"error","name":"PQDoesNotContainAddress","inputs":[]},{"type":"error","name":"PQEmpty","inputs":[]},{"type":"error","name":"ReentrancyError","inputs":[]},{"type":"error","name":"SubnetAlreadyBootstrapped","inputs":[]},{"type":"error","name":"SubnetAlreadyKilled","inputs":[]},{"type":"error","name":"SubnetNotBootstrapped","inputs":[]},{"type":"error","name":"WithdrawExceedingCollateral","inputs":[]}],"bytecode":{"object":"0x6080806040523461001657613c46908161001c8239f35b600080fdfe608080604052600436101561001357600080fd5b600090813560e01c9081630b7fbe60146110005750806310fd426114610e8c5780632e17de7814610e415780633a4b66f114610d6857806341c0e1b514610c935780636170b1621461096957806366783c9b1461088d578063d66d9e19146108305763da5d09ee1461008457600080fd5b346104f65760603660031901126104f6576004356001600160401b03811161082c576100b4903690600401611183565b6024356001600160401b038111610828576100d3903690600401611183565b9190926044356001600160401b038111610824576100f5903690600401611183565b90926100ff6114c7565b7f806e0cbb9fce296bbc336a48f42bf1dbc69722d18d90d6fe705b7582c2bb4bd5546001600160a01b031633036108125760ff600a541660038110156107fe576001036107ce578181036107bc578481036107bc5760055460f81c1561043957865b818110610172575050505050505080f35b61018661018082888a6121ec565b90611f83565b6001600160a01b036101a161019c84868961222d565b61223d565b166001600160a01b0390911603610427576101c061019c82848761222d565b9061020c6101cf82898b6121ec565b6101dd84888b95949561222d565b356101f8604051948593604060208601526060850191612330565b90604083015203601f19810183528261110b565b6001600160401b036013541690604051610225816110d5565b6003815281602082015260018060a01b03851660408201528260005260146020526040600020815160048110156104115760ff8019835416911617815560208201518051906001600160401b0382116103fb57610292826102896001860154611244565b60018601611295565b602090601f83116001146103885791806102c7926002959460009261037d575b50508160011b916000199060031b1c19161790565b60018201555b0190604060018060a01b03910151166001600160601b0360a01b8254161790556001600160401b03600183011161036757600193826001600160401b0386600080516020613b518339815191529501166001600160401b0319601354161760135561035860405193849360809060038652898060a01b0316602086015280604086015284019061134c565b9060608301520390a101610161565b634e487b7160e01b600052601160045260246000fd5b0151905038806102b2565b906001840160005260206000209160005b601f19851681106103e3575091839160019360029695601f198116106103ca575b505050811b0160018201556102cd565b015160001960f88460031b161c191690553880806103ba565b91926020600181928685015181550194019201610399565b634e487b7160e01b600052604160045260246000fd5b634e487b7160e01b600052602160045260246000fd5b604051634be9251d60e11b8152600490fd5b906001600160401b03600694939454168211156107aa57865b828110610508575050505050505080600554600160f81b60018060f81b038216176005557f4914d88063275a25a13b2df37125e216745d812f94c56504be4bd78cf60c9593604051806104a481611dd4565b0390a18154906001600160a01b0316803b15610504578290602460405180948193637903ab2760e11b83528160048401525af180156104f9576104e657505080f35b6104ef906110c2565b6104f65780f35b80fd5b6040513d84823e3d90fd5b5050fd5b61051661018082888a6121ec565b6001600160a01b0361052c61019c84878a61222d565b166001600160a01b03909116036104275761054b61019c82858861222d565b600060ff600a541660038110156107965760010361077757506001600160a01b03166000908152600c60205260409020545b610765576105a361059261019c83868961222d565b61059d83898b6121ec565b91611fbf565b6105c66105b461019c83868961222d565b6105bf83858861222d565b3590612e14565b6105d461019c82858861222d565b6106156105e283858861222d565b35916105ef848a8c6121ec565b9091604051946105fe866110d5565b85526001600160a01b031660208501523691611147565b6040820152601b54600160401b8110156103fb578060016106399201601b55611aa8565b91909161074f578051825560208101516001830180546001600160a01b0319166001600160a01b0392909216919091179055604001518051906001600160401b0382116103fb5761069a826106916002860154611244565b60028601611295565b602090601f83116001146106db578260019594936002936106d19360009261037d5750508160011b916000199060031b1c19161790565b9101555b01610452565b906002840160005260206000209160005b601f1985168110610737575092600292600196959492879383601f1981161061071e575b505050811b019101556106d5565b015160001960f88460031b161c19169055388080610710565b919260206001819286850151815501940192016106ec565b634e487b7160e01b600052600060045260246000fd5b604051630472b35360e41b8152600490fd5b6001600160a01b039091168152600c602052604090206001015461057d565b634e487b7160e01b82526021600452602482fd5b60405163031480b160e51b8152600490fd5b604051637e65935960e01b8152600490fd5b6107fa6107d96114e8565b60405163015538b160e01b815260206004820152918291602483019061134c565b0390fd5b634e487b7160e01b88526021600452602488fd5b6040516330cd747160e01b8152600490fd5b8580fd5b8380fd5b5080fd5b50346104f657806003193601126104f657600080516020613bb1833981519152600181541461087b5780600183925561086761148a565b61086f6114c7565b610877611399565b5580f35b6040516329f745a760e01b8152600490fd5b50346104f65760203660031901126104f657600435600080516020613bb1833981519152600181541461087b576001815581156109575760055460f81c61094557338352601c60205281604084205410610933576108778392338452601c602052604084206108fd82825461138c565b905561090a81855461138c565b8455338452601c602052604084205415610925575b33612172565b61092e336120a0565b61091f565b60405163569d45cf60e11b8152600490fd5b604051631b39f2f360e11b8152600490fd5b604051631036b5ad60e31b8152600490fd5b5060208060031936011261082c576001600160401b0390600435828111610828573660238201121561082857806004013590838211610c8f5760248101906024833692010111610c8f57600193600080516020613bb1833981519152938585541461087b578585556109d961148a565b6109e16114c7565b60055460f81c9586610c82575b3415610c7057336000908152600c6020526040902060020154610bfc5760418503610bea576001600160a01b03903382610a288888611f83565b1603610427578897610a55575050505090610a439133611fbf565b610a4d3433611b79565b610877611e81565b90919294939650610a67368589611147565b856013541692604051610a79816110d5565b60028152858101928352604081019233845285600052601487526040600020915160048110156104115760ff8019845416911617825584820190518051908a82116103fb57610ad282610acc8554611244565b85611295565b8890601f8311600114610b82579180610b0692600296959460009261037d5750508160011b916000199060031b1c19161790565b90555b019151166001600160601b0360a01b8254161790558101848111610367578796600080516020613b5183398151915295610b6f92166001600160401b03196013541617601355604051948594600286523390860152608060408601526080850191612330565b9060608301520390a16108773433611897565b9392918791601f19821690846000528b6000209160005b8d828210610bd4575050968360029810610bbb575b505050811b019055610b09565b015160001960f88460031b161c19169055388080610bae565b838a015185558c96909401939283019201610b99565b6040516318dca5e960e21b8152600490fd5b5060405190610c0a826110d5565b603282527f4d6574686f64206e6f7420616c6c6f7765642069662076616c696461746f722081830152711a185cc8185b1c9958591e481a9bda5b995960721b60408301526107fa60405192839263015538b160e01b84526004840152602483019061134c565b604051635a78c58160e11b8152600490fd5b610c8a611565565b6109ee565b8480fd5b50346104f657806003193601126104f657610cac6114c7565b61ffff806010541681600d541601818111610d545716610d42576005548060f81c15610d30576006805468ff00000000000000001916600160401b17905581906001600160a01b0316803b15610d2d5781906004604051809481936341c0e1b560e01b83525af180156104f957610d21575080f35b610d2a906110c2565b80f35b50fd5b60405163dfd06d8f60e01b8152600490fd5b604051636b62255160e11b8152600490fd5b634e487b7160e01b83526011600452602483fd5b50806003193601126104f657610d7c61148a565b610d846114c7565b610d8c611565565b3415610c7057336000908152600c602052604090206002015415610dd05760055460f81c610dc657610dbe3433611b79565b610d2a611e81565b610d2a3433611897565b6107fa604051610ddf816110d5565b602e81527f4d6574686f64206e6f7420616c6c6f7765642069662076616c696461746f722060208201526d1a185cc81b9bdd081a9bda5b995960921b604082015260405191829163015538b160e01b835260206004840152602483019061134c565b50346104f65760203660031901126104f657600080516020613bb1833981519152600181541461087b57806001839255610e7961148a565b610e816114c7565b6108776004356112dc565b50346104f657602090816003193601126104f6576001600160401b0391600435838111610ffc5736602382011215610ffc57610ed2903690602481600401359101611147565b92610edb61148a565b338352600e825261ffff60408420541615610fe457835115610fd2573383526017825260408320918451918211610fbe57610f1a82610acc8554611244565b80601f8311600114610f5a575081908495610f4a94959261037d5750508160011b916000199060031b1c19161790565b90555b610f5633612251565b5080f35b90601f198316958486528286209286905b888210610fa657505083600195969710610f8d575b505050811b019055610f4d565b015160001960f88460031b161c19169055388080610f80565b80600185968294968601518155019501930190610f6b565b634e487b7160e01b84526041600452602484fd5b604051637138356f60e01b8152600490fd5b604051633b4f6e2b60e21b8152336004820152602490fd5b8280fd5b90508160031936011261082c5734156110b3575060055460f81c61094557338152601c60205260408120541561105a575b338152601c60205260408120611048348254611237565b9055611055348254611237565b815580f35b601d54600160401b81101561109f5761107c81600161109a9301601d556111b3565b81546001600160a01b0360039290921b91821b19163390911b179055565b611031565b634e487b7160e01b82526041600452602482fd5b631036b5ad60e31b8152600490fd5b6001600160401b0381116103fb57604052565b606081019081106001600160401b038211176103fb57604052565b604081019081106001600160401b038211176103fb57604052565b90601f801991011681019081106001600160401b038211176103fb57604052565b6001600160401b0381116103fb57601f01601f191660200190565b9291926111538261112c565b91611161604051938461110b565b82948184528183011161117e578281602093846000960137010152565b600080fd5b9181601f8401121561117e578235916001600160401b03831161117e576020808501948460051b01011161117e57565b601d548110156111ea57601d6000527f6d4407e7be21f808e6509aa9fa9143369579dd7d760fe20a2c09680fc146134f0190600090565b634e487b7160e01b600052603260045260246000fd5b6018548110156111ea5760186000527fb13d2d76d1f4b7be834882e410b3e3a8afaf69f83600ae24db354391d2378d2e0190600090565b9190820180921161036757565b90600182811c92168015611274575b602083101461125e57565b634e487b7160e01b600052602260045260246000fd5b91607f1691611253565b818110611289575050565b6000815560010161127e565b9190601f81116112a457505050565b6112d0926000526020600020906020601f840160051c830193106112d2575b601f0160051c019061127e565b565b90915081906112c3565b6112e4611565565b801561133a57336000908152600c60205260409020600201548015610fe4578110156113295760055460f81c1561131f576112d090336116ad565b6112d0903361157a565b60405162d11df360e61b8152600490fd5b60405163c79cad7b60e01b8152600490fd5b919082519283825260005b848110611378575050826000602080949584010152601f8019910116010190565b602081830181015184830182015201611357565b9190820391821161036757565b60055460f81c61147d575b336000908152600c60205260409020600201548015610fe4576113c633612351565b50600090338252601760205281604081206113e18154611244565b80611440575b50505060055460f81c15611400576112d09150336116ad565b6112d091338152601c60205260408120548061141f575b50503361157a565b8161142e82611439945461138c565b905561091f336120a0565b3880611417565b82601f8211600114611458575050555b8138806113e7565b9091808252611476601f60208420940160051c84016001850161127e565b5555611450565b611485611565565b6113a4565b60ff7fc451c9429c27db68f286ab8a68f311f1dccab703ba9423aed29cd397ae63f86354166114b557565b60405163d93c066560e01b8152600490fd5b60ff60065460401c166114d657565b60405163248c8efb60e11b8152600490fd5b60405190608082018281106001600160401b038211176103fb576040526045825264185c1c195960da1b6060837f4d6574686f64206e6f7420616c6c6f776564206966207065726d697373696f6e60208201527f656420697320656e61626c656420616e64207375626e657420626f6f7473747260408201520152565b60ff600a54166003811015610411576107ce57565b906112d09161158982826122ba565b6116276115b58360016115ae8560018060a01b0316600052600c602052604060002090565b015461138c565b6001600160a01b0383166000908152600c6020526040902060020154811590816116a4575b5015611681576001600160a01b0383166000908152600c602052604090206003600091828155826001820155826002820155016116178154611244565b80611644575b5050505b8261243b565b61163382600b5461138c565b600b556001600160a01b0316612172565b82601f821160011461165c575050555b38808061161d565b909180825261167a601f60208420940160051c84016001850161127e565b5555611654565b6001600160a01b0383166000908152600c60205260409020819060010155611621565b905015386115da565b919060405192602082818601528085526116c6856110f0565b6001600160401b0394856013541690604051966116e2886110d5565b600188528388018281526040890160018060a01b038088169a8b83526000938785526014895260408520915160048110156118835760ff8019845416911617825560018201905180519087821161186f5761174182610acc8554611244565b8a90601f83116001146118075791806117749260029695948a9261037d5750508160011b916000199060031b1c19161790565b90555b019151166001600160601b0360a01b82541617905560018401908282116117f35750600080516020613b5183398151915294926112d0989994926117e592166001600160401b031960135416176013556040519485946001865285015260806040850152608084019061134c565b9060608301520390a16122ba565b634e487b7160e01b81526011600452602490fd5b8388528b88209190601f198416898e5b8282106118585750509160019391856002989796941061183f575b505050811b019055611777565b015160001960f88460031b161c19169055388080611832565b60018596829396860151815501950193018e611817565b634e487b7160e01b87526041600452602487fd5b634e487b7160e01b86526021600452602486fd5b9190604092835193826020860152602085526118b2856110f0565b6001600160401b03601354168151956118ca876110d5565b6000968781526020810182815260018060a01b0386168583015283895260146020528489209082516004811015611a945760ff80198454169116178255518051906001600160401b038211611a805761192a826102896001860154611244565b6020908b601f8411600114611a0f576002949361195d9390928361037d5750508160011b916000199060031b1c19161790565b60018201555b01908460018060a01b03910151166001600160601b0360a01b825416179055600182016001600160401b0381116119fb57916119ed6112d09798926001600160401b03600080516020613b518339815191529695166001600160401b0319601354161760135560808551958695865260018060a01b0389166020870152850152608084019061134c565b9060608301520390a161230d565b634e487b7160e01b88526011600452602488fd5b5090600184018c5260208c20918c5b601f1985168110611a68575091839160019360029695601f19811610611a4f575b505050811b016001820155611963565b015160001960f88460031b161c19169055388080611a3f565b91926020600181928685015181550194019201611a1e565b634e487b7160e01b8b52604160045260248bfd5b634e487b7160e01b8b52602160045260248bfd5b601b548110156111ea57600390601b600052027f3ad8aa4f87544323a9d1e5dd902f40c356527a7955687113db5f9a85ad579dc10190600090565b805460009392611af282611244565b91828252602093600191600181169081600014611b5a5750600114611b19575b5050505050565b90939495506000929192528360002092846000945b838610611b4657505050500101903880808080611b12565b805485870183015294019385908201611b2e565b60ff19168685015250505090151560051b010191503880808080611b12565b90611b84818361230d565b611be7600191611bde611bb58285611bae8860018060a01b0316600052600c602052604060002090565b0154611237565b918285611bd48860018060a01b0316600052600c602052604060002090565b0155600b54611237565b600b55836129c5565b60055460f81c15611bf6575050565b600090601b91601b54928260005b858110611d82575b50505015611c1a575b505050565b6001600160a01b0383166000908152600c6020526040902081810154611c7194909160030160405192611c4c846110d5565b8352602094611c78602085019260018060a01b03809516845260405198898092611ae3565b038861110b565b60408401968752600160401b8110156103fb578085611c9a9201601b55611aa8565b92909261074f576002935183558483019151166001600160601b0360a01b825416179055019251918251916001600160401b0383116103fb57611ce783611ce18754611244565b87611295565b602091601f8411600114611d1d5750508190611d199360009261037d5750508160011b916000199060031b1c19161790565b9055565b91909383601f198116876000526020600020946000905b88838310611d685750505010611d4f575b505050811b019055565b015160001960f88460031b161c19169055388080611d45565b858701518855909601959485019487935090810190611d34565b6000839052600381027f3ad8aa4f87544323a9d1e5dd902f40c356527a7955687113db5f9a85ad579dc201546001600160a01b03888116911614611dc857018390611c04565b50915050388281611c0c565b602080820160208352601b54809152604091604084019360408360051b82010194601b6000527f3ad8aa4f87544323a9d1e5dd902f40c356527a7955687113db5f9a85ad579dc1946000925b858410611e31575050505050505090565b90919293949596856003611e70600193603f198682030188526060908c5481528c86808060a01b03910154168582015281888201520160028c01611ae3565b990194019401929594939190611e20565b600b54600254811015611e92575b50565b61ffff600d54166001600160401b03600654161115611eae5750565b600580546001600160f81b038116600160f81b179091556040517f4914d88063275a25a13b2df37125e216745d812f94c56504be4bd78cf60c95939080611ef481611dd4565b0390a160018060a01b031690611f0d6000548092611237565b91803b1561117e5760246000926040519485938492637903ab2760e11b845260048401525af18015611f475715611e8f576112d0906110c2565b6040513d6000823e3d90fd5b90600161ffff8093160191821161036757565b15611f6d57565b634e487b7160e01b600052600160045260246000fd5b90611f9060418214611f66565b8060011161117e57611fab9136916000190190600101611147565b80516020909101206001600160a01b031690565b6001600160a01b03166000908152600c6020526040902090929190600301906001600160401b0381116103fb5761200081611ffa8454611244565b84611295565b6000601f821160011461203c578190611d199394956000926120315750508160011b916000199060031b1c19161790565b0135905038806102b2565b601f19821694838252602091602081209281905b8882106120885750508360019596971061206e57505050811b019055565b0135600019600384901b60f8161c19169055388080611d45565b80600184968294958701358155019501920190612050565b601d90601d549160005b8381106120b8575b50505050565b6120c1816111b3565b90546003916001600160a01b039190831b1c8116858216146120e75750506001016120aa565b92935093600019918282019182116103675761211684612109612134946111b3565b905490891b1c16916111b3565b90919060018060a01b038084549260031b9316831b921b1916179055565b8254801561215c570192612147846111b3565b81939154921b1b1916905555388080806120b2565b634e487b7160e01b600052603160045260246000fd5b8147106121d4576000918291829182916001600160a01b03165af13d156121cf573d61219d8161112c565b906121ab604051928361110b565b8152600060203d92013e5b156121bd57565b604051630a12f52160e11b8152600490fd5b6121b6565b60405163cd78605960e01b8152306004820152602490fd5b91908110156111ea5760051b81013590601e198136030182121561117e5701908135916001600160401b03831161117e57602001823603811361117e579190565b91908110156111ea5760051b0190565b356001600160a01b038116810361117e5790565b6000818152601960205260408120546122b557601854600160401b81101561109f5790826122a161228a84600160409601601855611200565b819391549060031b91821b91600019901b19161790565b905560185492815260196020522055600190565b905090565b6001600160a01b03166000818152600c602052604090206002015490918082106122fb576122e79161138c565b90600052600c602052600260406000200155565b60405163ac69360360e01b8152600490fd5b60018060a01b0316600052600c602052611d196002604060002001918254611237565b908060209392818452848401376000828201840152601f01601f1916010190565b60008181526019602052604081205490919080156124365760001990808201818111612422576018549083820191821161240e578181036123da575b50505060185480156123c6578101906123a582611200565b909182549160031b1b19169055601855815260196020526040812055600190565b634e487b7160e01b84526031600452602484fd5b6123f86123e961228a93611200565b90549060031b1c928392611200565b905584526019602052604084205538808061238d565b634e487b7160e01b86526011600452602486fd5b634e487b7160e01b85526011600452602485fd5b505090565b909160018060a01b03928383169060009382855260206011815261ffff9560409487868320541661269257808252600e8352878683205416156126815784156125cb5750612488836136cd565b9761249284612dc5565b985b6001808a831611156125bc5781617fff911c1690818452600f85528a6124be848a87205416612dc5565b11156124d3576124ce908261378b565b612494565b505091939597509193955b60105416156125b4576124ef613a9a565b60018252600f83528581818420541692601261250a85612dc5565b95612513613a8c565b60018352522054169161252583612dc5565b1161255b57505091516001600160a01b0390921682526020820152600080516020613b718339815191529080604081015b0390a1565b91509150612556600080516020613b918339815191529361257a6134dc565b6125826131d0565b61258b8461346d565b61259483613627565b516001600160a01b03928316815292909116602083015281906040820190565b505050505050565b505091939597509193956124de565b8294506125ff7f4a4c5d1a281180eea1e99d8177fa4798b9f7e019d5c57e7d8d73c6a22199aa5b939298949996979961301f565b8651908152a1601054166126135750505050565b600080516020613bf1833981519152936012849261262f613a8c565b600183525220541661267561264382612dc5565b9261264c6131d0565b6126558361346d565b516001600160a01b03909216825260208201929092529081906040820190565b0390a1388080806120b2565b8551632a55ca5360e01b8152600490fd5b8496979294989395981561278d575091926126ac85613696565b936126b686612dc5565b93859261fffe968795600196879260011b168160105416925b612712575b50509a516001600160a01b03909816885250505050602084019490945250929350600080516020613bd1833981519152925090508060408101612556565b818116838111612787578e908085111561276b5750508061273561273b92611f53565b90613aa8565b9690965b8910156127665790612756889695949392886136f2565b8987871b169091929394956126cf565b6126d4565b865260128552852054909690612782908716612dc5565b61273f565b506126d4565b949150507f3168ba660eed6ef1dc2258b2247cc05fd0f2f350d39e6ad2e2ebc76a8000b40b95969294506127c19150612e6c565b51908152a1565b6001600160a01b0380821660008181526011602090815260408083205490969594919361ffff91821661295b57808452600e85528188852054161561294a5786156128cc575061282961281a866136cd565b61282387612dc5565b90613993565b60105416156125b45761283a613a9a565b60018252600f83528581818420541692601261285585612dc5565b9561285e613a8c565b60018352522054169161287083612dc5565b116128a557505091516001600160a01b0390921682526020820152600080516020613b71833981519152908060408101612556565b91509150612556600080516020613b91833981519152936128c46134dc565b612582613335565b8491939796506128fd7f4a4c5d1a281180eea1e99d8177fa4798b9f7e019d5c57e7d8d73c6a22199aa5b93966130aa565b8651908152a1601054166129115750505050565b600080516020613bf1833981519152936012849261292d613a8c565b600183525220541661267561294182612dc5565b9261264c613335565b8751632a55ca5360e01b8152600490fd5b96939250505083156129985750600080516020613bd183398151915293506125569061265561298984613696565b61299285612dc5565b906138f3565b92506127c17f3168ba660eed6ef1dc2258b2247cc05fd0f2f350d39e6ad2e2ebc76a8000b40b9492612efb565b919060018060a01b0392838116600094818652602091600e835261ffff91604097838982205416612b725783600a5460081c1684600d541610612b5057612a0a613a9a565b60019260018252600f8652828a8320541688612a2582612dc5565b10612b065750815260118552838982205416612a6f5750505050506125567f19fe3ca603e87854a0747cc10abf06bac64d61bac73d6d15f2fd3ca448f15264939461265583613627565b612a7886613696565b92612a8287612dc5565b935b8186821611612ac8575b505097516001600160a01b039095168552505050506020810191909152909150600080516020613bd1833981519152908060408101612556565b8085612ae786617fff8f95871c169485885260128c5287205416612dc5565b1015612b005790612af98392826136f2565b9050612a84565b50612a8e565b96975089949350600080516020613b918339815191529899925061255695601191612b2f6134dc565b835252205416612b425761258b8461346d565b612b4b84612e6c565b612582565b5050505050612556600080516020613bf183398151915293946126558361346d565b97929150612b8385949796956136cd565b97612b8d85612dc5565b97612b978a6139e2565b84600d5416905b858116828111612c3e5782811015612c22575080612bbe612bc492611f53565b90613b00565b9b909b5b8b1115612be757612bd9908c61378b565b612be28b6139e2565b612b9e565b505093516001600160a01b039095168552505050506020810191909152909250600080516020613b7183398151915291508060408101612556565b849c919c52600f8352612c39858886205416612dc5565b612bc8565b505050505050506125569192939550600080516020613b718339815191529450612655565b6001600160a01b038082166000818152600e6020526040808220549095949361ffff93918416612d935783600a5460081c1684600d541610612d7357612ca7613a9a565b60018352600f602052868320541685612cbf82612dc5565b10612d315750815260116020528490205416612d03576125567f19fe3ca603e87854a0747cc10abf06bac64d61bac73d6d15f2fd3ca448f152649361265583613627565b612556600080516020613bd183398151915293612655612d2284613696565b612d2b85612dc5565b9061389e565b9394509185600080516020613b91833981519152969261255694612d536134dc565b81526011602052205416612d6a5761258b8461346d565b612b4b84612efb565b50505050612556600080516020613bf1833981519152936126558361346d565b50505050612556600080516020613b7183398151915293612655612db6846136cd565b612dbf85612dc5565b906139f9565b60ff600a5416600381101561041157600103612df6576001600160a01b03166000908152600c602052604090205490565b6001600160a01b03166000908152600c602052604090206001015490565b9060018060a01b038216600052600c60205260406000208181549155818114600014612e3f57505050565b811115612e4f576112d091612c63565b6112d0916127c8565b61ffff908116600019019190821161036757565b612e7590613696565b61ffff90816010541691612e8983836136f2565b80612e9384612e58565b1661ffff196010541617601055612ea98361381a565b8116809214612ef757612992826112d093600052601260205260018060a01b0390612ee3612edd8360406000205416612dc5565b8561389e565b600052601260205260406000205416612dc5565b5050565b612f0490613696565b61ffff806010541691612f1783826136f2565b81612f2184612e58565b1661ffff196010541617601055612f378361381a565b818116809314611c15576000918383526012602094601260205260018060a01b0390604090612f74612f6e8460408a205416612dc5565b8761389e565b86526012602052612f8a82604088205416612dc5565b95859361fffe988997600198899160011b168860105416915b612fb6575b505050505050505050505050565b8881168281116130195782811015612ffe575080612735612fd692611f53565b9890985b8b1015612ff957612fec8a988a6136f2565b979687811b8c1690612fa3565b612fa8565b8599919952838352613014878787205416612dc5565b612fda565b50612fa8565b613028906136cd565b61ffff9081600d54169161303c838361378b565b8061304684612e58565b1661ffff19600d541617600d5561305c8361385c565b8116809214612ef757612dbf826112d093600052600f60205260018060a01b03906130966130908360406000205416612dc5565b85613993565b600052600f60205260406000205416612dc5565b6130b3906136cd565b9061ffff9081600d5416906130c8828561378b565b826130d283612e58565b1661ffff19600d541617600d556130e88261385c565b8284168092146131ca57600092919291838352600f92602094600f60205260018060a01b039160409161312961312385604085205416612dc5565b8a613993565b8152600f60205261313f83604083205416612dc5565b95613149896139e2565b9785600d5416985b8681168a81116131bc578a8110156131a1575080612bbe61317192611f53565b9a909a5b89111561319457613186908b61378b565b61318f8a6139e2565b613151565b5050505050505092505050565b849b919b528282526131b7868686205416612dc5565b613175565b505050505050505092505050565b92505050565b61ffff8060105416908115613323579060016131ee82821115611f66565b6000818152601260208181526040808420805487865282862080546001600160a01b0392831680895260118752858920805461ffff199081168d17909155918416808a52868a20805484168c17905588885283546001600160a01b0319908116909217909355898952845416909117909255939692949192613283918961327483612e58565b1690601054161760105561381a565b8481526012602052613299838383205416612dc5565b9585948660028a60105416915b6132b8575b5050505050505050505050565b8a811682811161331d57828110156133025750806127356132d892611f53565b9a909a5b8a10156132fd576132ee89988c6136f2565b999687811b61fffe16906132a6565b6132ab565b859b919b52838352613318878787205416612dc5565b6132dc565b506132ab565b6040516340d9b01160e01b8152600490fd5b61ffff80601054169081156133235790600161335382821115611f66565b6000818152601260208181526040808420805487865282862080546001600160a01b0392831680895260118752858920805461ffff199081168d17909155918416808a52868a20805484168c17905588885283546001600160a01b03199081169092179093558989528454169091179092559396929491926133d9918961327483612e58565b84815260126020526133ef838383205416612dc5565b9585948660028a60105416915b61340d575050505050505050505050565b8a811682811161331d578281101561345257508061273561342d92611f53565b9a909a5b8a10156132fd5761344389988c6136f2565b999687811b61fffe16906133fc565b859b919b52838352613468878787205416612dc5565b613431565b6112d09061282361ffff9161348583600d5416611f53565b9260018060a01b0382169081600052600e60205260406000209085169161ffff1991838382541617905582600052600f6020526040600020906001600160601b0360a01b825416179055600d541617600d55612dc5565b61ffff80600d541690811561332357906001906134fb81831115611f66565b6000828152600f60208181526040808420805486865282862080546001600160a01b03928316808952600e8752858920805461ffff199081168c17909155918416808a52868a20805484168d17905588885283546001600160a01b03199081169092179093558a89528454169091179092559295879593949293929161359591908a61358683612e58565b1690600d541617600d5561385c565b848252600f6020526135ab848484205416612dc5565b958598600281600d5416995b6135c8575050505050505050505050565b8181168a811161331d578a81101561360c575080612bbe6135e892611f53565b9a909a5b8911156132fd576135fd908b61378b565b6136068a6139e2565b876135b7565b859b919b52838352613622878787205416612dc5565b6135ec565b6112d090612d2b61ffff9161363f8360105416611f53565b9260018060a01b0382169081600052601160205260406000209085169161ffff199183838254161790558260005260126020526040600020906001600160601b0360a01b8254161790556010541617601055612dc5565b6001600160a01b031660009081526011602052604090205461ffff169081156136bb57565b60405163f2755e3760e01b8152600490fd5b6001600160a01b03166000908152600e602052604090205461ffff169081156136bb57565b61371761ffff80806010541693169361370d84861115611f66565b1691821115611f66565b6000828152601260208181526040808420805486865282862080546001600160a01b0392831680895260118752858920805461ffff19908116909b1790559216808852938720805490981689179097559390925284546001600160a01b031990811690931790945593909152825416179055565b6137a661ffff8080600d541693169361370d84861115611f66565b6000828152600f60208181526040808420805486865282862080546001600160a01b03928316808952600e8752858920805461ffff19908116909b1790559216808852938720805490981689179097559390925284546001600160a01b031990811690931790945593909152825416179055565b61ffff16600090815260126020908152604080832080546001600160a01b031981169091556001600160a01b0316835260119091529020805461ffff19169055565b61ffff166000908152600f6020908152604080832080546001600160a01b031981169091556001600160a01b03168352600e9091529020805461ffff19169055565b9190915b60018061ffff831611156138ed5781617fff911c1690836138d860008481526012602052604060018060a01b0391205416612dc5565b10156138ed576138e890826136f2565b6138a2565b50509050565b9061fffe91600190838160011b169060008361ffff938460105416915b61391f575b5050505050505050565b84811682811161398d578281101561396757508061273561393f92611f53565b9490945b871015613962576139558694866136f2565b939283811b881690613910565b613915565b835260126020526040832054909490613988906001600160a01b0316612dc5565b613943565b50613915565b9190915b60018061ffff831611156138ed5781617fff911c1690836139cd6000848152600f602052604060018060a01b0391205416612dc5565b11156138ed576139dd908261378b565b613997565b60011b906201fffe61fffe83169216820361036757565b91613a03836139e2565b600061ffff9182600d5416905b838116828111613a825782811015613a5c575080612bbe613a3092611f53565b9690965b861115613a5357613a45908761378b565b613a4e866139e2565b613a10565b50505050915050565b8352600f6020526040832054909690613a7d906001600160a01b0316612dc5565b613a34565b5050505050915050565b61ffff601054161561332357565b61ffff600d54161561332357565b91909161ffff928382166000526012602052613aeb60018060a01b03613ad48160406000205416612dc5565b958316600052601260205260406000205416612dc5565b90818510613af95750509190565b9350919050565b919061ffff808416600052600f602052613b4160018060a01b03613b2a8160406000205416612dc5565b928416600052600f60205260406000205416612dc5565b9384821115613af9575050919056fe1c593a2b803c3f9038e8b6743ba79fbc4276d2770979a01d2768ed12bea3243f143db27bc2036653dc6f962ff9d0b803163d4af50c256ca9e6927b3d6dcd0197faeb8de771b867cf357f6b459a7002b62ec45d544a8078a3ecd91200cc826d75691bb03ffc16c56fc96b82fd16cd1b3715f0bc3cdc6407005f49bb6205860095da148fac2e1063174be7bc0895576bdaba90fd14e575463fa26a967cb895cadd2e8038f5812f763c6ef0c5427cb5a05ce6d7064af2ba7d1d270bc02660b019fda2646970667358221220bc0b85467a26f3870774338c0ac44ff77e5f6f4c2eb930f1aaf79476fe39824564736f6c63430008180033","linkReferences":{}},"methodIdentifiers":{"addBootstrapNode(string)":"10fd4261","join(bytes)":"6170b162","kill()":"41c0e1b5","leave()":"d66d9e19","preFund()":"0b7fbe60","preRelease(uint256)":"66783c9b","setFederatedPower(address[],bytes[],uint256[])":"da5d09ee","stake()":"3a4b66f1","unstake(uint256)":"2e17de78"},"id":102}