{"abi":[{"type":"function","name":"resolveSelectors","inputs":[{"name":"facetName","type":"string","internalType":"string"}],"outputs":[{"name":"facetSelectors","type":"bytes4[]","internalType":"bytes4[]"}],"stateMutability":"pure"}],"bytecode":{"object":"0x6080806040523461001a576117569081610020823930815050f35b600080fdfe608080604052600436101561001357600080fd5b6000803560e01c6366e2898c1461002957600080fd5b602091826003193601126100ff576001600160401b036004358181116100e757366023820112156100e75780600401359182116100eb57610073601f8301601f1916860184610185565b81835236602483830101116100e7579183858361009c94602483970183860137830101526102bf565b60405192828493840190808552835180925280604086019401925b8281106100c657505050500390f35b83516001600160e01b031916855286955093810193928101926001016100b7565b8380fd5b634e487b7160e01b84526041600452602484fd5b5080fd5b608081019081106001600160401b0382111761011e57604052565b634e487b7160e01b600052604160045260246000fd5b604081019081106001600160401b0382111761011e57604052565b60a081019081106001600160401b0382111761011e57604052565b60c081019081106001600160401b0382111761011e57604052565b90601f801991011681019081106001600160401b0382111761011e57604052565b9081519160005b8381106101be575050016000815290565b80602080928401015181850152016101ad565b60405190606082018281106001600160401b0382111761011e576040526040825260006040836020808201520152565b90602090818382031261028d5782516001600160401b039384821161028d570181601f8201121561028d57805193841161011e578360051b906040519461024a85840187610185565b8552838086019282010192831161028d578301905b82821061026d575050505090565b81516001600160e01b03198116810361028d57815290830190830161025f565b600080fd5b6040519061029f82610103565b6060808352602080840152600160408401526367e0badb60e01b90830152565b6040805191602092838101816102d582856101a6565b03916102e9601f1993848101835282610185565b5190208351858101906d11d85d195dd85e511a585b5bdb9960921b8252600e815261031381610134565b519020146117115782518481019061033b8161032f84876101a6565b03848101835282610185565b5190208351858101907114dd589b995d1058dd1bdc911a585b5bdb9960721b82526012815261036981610134565b51902014611711578251848101906103858161032f84876101a6565b5190208351858101907414dd589b995d149959da5cdd1c9e511a585b5bdb99605a1b8252601581526103b681610134565b51902014611711578251848101906103d28161032f84876101a6565b5190208351858101906d13dddb995c9cda1a5c119858d95d60921b8252600e81526103fc81610134565b519020146116cc578251848101906104188161032f84876101a6565b5190208351858101906e111a585b5bdb9910dd5d119858d95d608a1b8252600f815261044381610134565b519020146116945782518481019061045f8161032f84876101a6565b51902083518581019070111a585b5bdb99131bdd5c19519858d95d607a1b82526011815261048c81610134565b51902014611614578251848101906104a88161032f84876101a6565b5190208351858101907111d85d195dd85e51d95d1d195c919858d95d60721b8252601281526104d681610134565b5190201461141d578251848101906104f28161032f84876101a6565b5190208351858101907211d85d195dd85e53585b9859d95c919858d95d606a1b82526013815261052181610134565b519020146113815782518481019061053d8161032f84876101a6565b5190208351858101907411d85d195dd85e53595cdcd95b99d95c919858d95d605a1b82526015815261056e81610134565b5190201461133c5782518481019061058a8161032f84876101a6565b5190208351858101907110da1958dadc1bda5b9d1a5b99d19858d95d60721b8252601281526105b881610134565b519020146112ca578251848101906105d48161032f84876101a6565b51902083518581019073151bdc111bdddb919a5b985b1a5d1e519858d95d60621b82526014815261060481610134565b51902014611274578251848101906106208161032f84876101a6565b51902083518581019071161b995d13595cdcd859da5b99d19858d95d60721b82526012815261064e81610134565b5190201461123c5782518481019061066a8161032f84876101a6565b5190208351858101907514dd589b995d1058dd1bdc91d95d1d195c919858d95d60521b82526016815261069c81610134565b51902014611050578251848101906106b88161032f84876101a6565b5190208351858101907f5375626e65744163746f724d616e6167657246616365740000000000000000008252601781526106f181610134565b51902014610f995782518481019061070d8161032f84876101a6565b5190208351858101907414dd589b995d1058dd1bdc94185d5cd9519858d95d605a1b82526015815261073e81610134565b51902014610f435782518481019061075a8161032f84876101a6565b5190208351858101907514dd589b995d1058dd1bdc94995dd85c99119858d95d60521b82526016815261078c81610134565b51902014610f0b578251848101906107a88161032f84876101a6565b5190208351858101907f5375626e65744163746f72436865636b706f696e74696e6746616365740000008252601d81526107e181610134565b51902014610ec6578251848101906107fd8161032f84876101a6565b51902083518581019072149959da5cdd195c94dd589b995d119858d95d606a1b82526013815261082c81610134565b51902014610e8e578251848101906108488161032f84876101a6565b5190208351858101907014dd589b995d11d95d1d195c919858d95d607a1b82526011815261087581610134565b51902014610d82578251848101906108918161032f84876101a6565b5190208351858101907545524332305072657365744669786564537570706c7960501b8252601681526108c381610134565b51902014610cae578251848101906108df8161032f84876101a6565b5190208351858101907f4e756d626572436f6e747261637446616365744569676874000000000000000082526018815261091881610134565b51902014610c92578251848101906109348161032f84876101a6565b5190208351858101907f4e756d626572436f6e74726163744661636574536576656e000000000000000082526018815261096d81610134565b51902014610c92578251848101906109898161032f84876101a6565b5190208351858101906e53656c6563746f724c69627261727960881b8252600f81526109b481610134565b51902014610c5a578251848101906109d08161032f84876101a6565b51902083518581019068546573745574696c7360b81b8252600981526109f581610134565b51902014610bb057610a1d83519182610a1187820180966101a6565b03908101835282610185565b5190208151838101906e5375626e65744163746f724d6f636b60881b8252600f8152610a4881610134565b51902014610a885760649250519062461bcd60e51b82526004820152601260248201527114d95b1958dd1bdc881b9bdd08199bdd5b9960721b6044820152fd5b908151906102808201918083106001600160401b0384111761011e578284526102608082528282019283526011948201949094526310fd426160e01b6060820152634e71d92d60e01b608082015263350a14bf60e01b60a082015263c7ebdaef60e01b60c08201526330b858b160e11b60e08201526341c0e1b560e01b61010082015263d66d9e1960e01b610120820152638456cb5960e01b610140820152635c975abb60e01b610160820152625bfdf360e51b6101808201526366783c9b60e01b6101a0820152636d2e84f760e11b6101c0820152633a4b66f160e01b6101e08201526379979f5760e01b610200820152631fa5d41d60e11b6102208201526305c2fbcf60e31b61024082015263cc2dc2b960e01b930192909252610bad91610201565b90565b5050908151906101608201918083106001600160401b0384111761011e5782845261014080825282820192835260089482019490945263265f6a3560e21b60608201526315c9f71760e21b60808201526301d283df60e11b60a0820152631e8c229360e21b60c0820152637775600f60e11b60e082015263bc9e2bcf60e01b610100820152633db2bc2b60e21b610120820152632b9840d160e11b930192909252610bad91610201565b5050906080826001610bad945191610c7183610103565b606083528483019485528201526319b8a26360e21b60608201520190610201565b505050610bad90610ca1610292565b8051810182019101610201565b5050908151906101c08201918083106001600160401b0384111761011e578284526101a0808252828201928352600b94820194909452636eb1769f60e11b606082015263095ea7b360e01b60808201526370a0823160e01b60a0820152630852cd8d60e31b60c082015263079cc67960e41b60e082015263313ce56760e01b6101008201526306fdde0360e01b6101208201526395d89b4160e01b6101408201526318160ddd60e01b61016082015263a9059cbb60e01b6101808201526323b872dd60e01b930192909252610bad91610201565b5050908151906102408201918083106001600160401b0384111761011e57828452610220808252828201928352600f948201949094526342bf3cc160e01b60608201526362c9d7fb60e01b608082015263967ba53760e01b60a0820152630be0611160e01b60c0820152631b0766c360e01b60e0820152630a372bf360e41b610100820152630f5849d160e01b61012082015263135c454560e21b6101408201526389bba29960e01b610160820152632a05ad6b60e11b6101808201526354a4eddb60e01b6101a0820152639836b75f60e01b6101c082015263030f605160e01b6101e0820152631163dca560e01b61020082015263a46d044d60e01b930192909252610bad91610201565b5050906080826001610bad945191610ea583610103565b6060835284830194855282015263fc3b0ad360e01b60608201520190610201565b50509060a0826002610bad945191610edd8361014f565b608083528483019485528201526379979f5760e01b606082015263cc2dc2b960e01b60808201520190610201565b5050906080826001610bad945191610f2283610103565b60608352848301948552820152634e71d92d60e01b60608201520190610201565b50509060c0826003610bad945191610f5a8361016a565b60a080845285840195865290830191909152638456cb5960e01b6060830152635c975abb60e01b6080830152631fa5d41d60e11b908201520190610201565b5050908151906101808201918083106001600160401b0384111761011e578284526101608082528282019283526009948201949094526310fd426160e01b60608201526330b858b160e11b60808201526341c0e1b560e01b60a082015263d66d9e1960e01b60c0820152625bfdf360e51b60e08201526366783c9b60e01b610100820152636d2e84f760e11b610120820152633a4b66f160e01b6101408201526305c2fbcf60e31b930192909252610bad91610201565b5050908151906104408201918083106001600160401b0384111761011e57828452610420808252828201928352601f94820194909452633354c3e160e01b6060820152630d450b2360e21b60808201526306c4685360e01b60a0820152632593d53960e11b60c08201526325834a7160e11b60e0820152638ef3f76160e01b61010082015263e02d971b60e01b610120820152630903e69360e41b61014082015263948628a960e01b610160820152636c97478960e11b6101808201526363e6d3b160e11b6101a0820152634baa594f60e11b6101c08201526338a210b360e01b6101e08201526380f7602160e01b610200820152631776451f60e21b610220820152630d6eb59160e41b61024082015263332a5ac960e01b610260820152630acbdfbf60e11b6102808201526352d182d160e01b6102a0820152630c825d9760e11b6102c08201526333f28a0960e21b6102e0820152631015428760e21b61030082015263d081be0360e01b610320820152631f3a0e4160e01b610340820152630396850760e51b61036082015263599c7bd160e01b610380820152634f19de8160e11b6103a082015263c5ab224160e01b6103c0820152637867b64b60e11b6103e08201526356c0f26b60e11b6104008201526380875df760e01b930192909252610bad91610201565b5050906080826001610bad94519161125383610103565b60608352848301948552820152636ec18cf760e11b60608201520190610201565b50509060c0826003610bad94519161128b8361016a565b60a080845285840195865290830191909152630df1446160e01b60608301526304465a5d60e21b608083015263e49a547d60e01b908201520190610201565b50509081519060e08201918083106001600160401b0384111761011e5782845260c08082528282019283526004948201949094526353b4e7bf60e01b606082015263fba0fa4d60e01b608082015263dc749b0560e01b60a082015263ac81837960e01b930192909252610bad91610201565b50509060a0826002610bad9451916113538361014f565b608083528483019485528201526312df86db60e11b6060820152633eeb723f60e01b60808201520190610201565b5050908151906101408201918083106001600160401b0384111761011e578284526101208082528282019283526007948201949094526316989f6f60e21b606082015263018f44b760e41b608082015263028bf0d560e11b60a08201526341c0e1b560e01b60c0820152637903ab2760e11b60e0820152636b2c1eef60e01b6101008201526345f5448560e01b930192909252610bad91610201565b50508051906104608201918083106001600160401b0384111761011e5782825261044080825281850185815292820194909452638789f83b60e01b60608201526306c4685360e01b60808201526316d2bca560e11b60a082015263dd81b5cf60e01b60c0820152630836d45d60e31b60e0820152631c6b349960e11b610100820152632ceacfdd60e21b61012082015263ac12d76360e01b610140820152634aa8f8a560e01b610160820152636520eae760e11b61018082015263444ead5160e01b6101a082015263d6c5c39760e01b6101c082015263544dddff60e01b6101e08201526306ad21bb60e41b61020082015263a517218f60e01b610220820152634b8213b360e11b610240820152630b1ba49b60e41b61026082015263f322913160e01b610280820152630338150f60e01b6102a08201526394074b0360e01b6102c0820152633f6f564960e11b6102e082015263032b960d60e11b61030082015263c66c66a160e01b610320820152633594c3c160e01b610340820152639d3070b560e01b61036082015263211cc54d60e11b610380820152635d02968560e01b6103a082015263599c7bd160e01b6103c08201526305aff0b360e01b6103e0820152638cfd78e760e01b61040082015263017187cd60e11b610420820152631456ce2b60e31b930192909252610bad91610201565b5050908151906101008201918083106001600160401b0384111761011e5782845260e08082528282019283526005948201949094526366ffd66360e11b60608201526314bbdacb60e21b60808201526356fe50af60e11b60a0820152637a0ed62760e01b60c08201526301ffc9a760e01b930192909252610bad91610201565b5050906080826001610bad9451916116ab83610103565b606083528483019485528201526307e4c70760e21b60608201520190610201565b50509060a0826002610bad9451916116e38361014f565b60808352848301948552820152638da5cb5b60e01b606082015263f2fde38b60e01b60808201520190610201565b505050610bad90610ca16101d156fea264697066735822122019ac4380dbbf8817253ddf6905e606f29030b813c096e8a94070b91db75185d964736f6c63430008180033","linkReferences":{}},"methodIdentifiers":{"resolveSelectors(string)":"66e2898c"},"id":121}