{"abi":[{"type":"function","name":"getProof","inputs":[{"name":"data","type":"bytes32[]","internalType":"bytes32[]"},{"name":"node","type":"uint256","internalType":"uint256"}],"outputs":[{"name":"","type":"bytes32[]","internalType":"bytes32[]"}],"stateMutability":"pure"},{"type":"function","name":"getRoot","inputs":[{"name":"data","type":"bytes32[]","internalType":"bytes32[]"}],"outputs":[{"name":"","type":"bytes32","internalType":"bytes32"}],"stateMutability":"pure"},{"type":"function","name":"hashLeafPairs","inputs":[{"name":"left","type":"bytes32","internalType":"bytes32"},{"name":"right","type":"bytes32","internalType":"bytes32"}],"outputs":[{"name":"_hash","type":"bytes32","internalType":"bytes32"}],"stateMutability":"pure"},{"type":"function","name":"log2ceil","inputs":[{"name":"x","type":"uint256","internalType":"uint256"}],"outputs":[{"name":"","type":"uint256","internalType":"uint256"}],"stateMutability":"pure"},{"type":"function","name":"log2ceilBitMagic","inputs":[{"name":"x","type":"uint256","internalType":"uint256"}],"outputs":[{"name":"","type":"uint256","internalType":"uint256"}],"stateMutability":"pure"},{"type":"function","name":"verifyProof","inputs":[{"name":"root","type":"bytes32","internalType":"bytes32"},{"name":"proof","type":"bytes32[]","internalType":"bytes32[]"},{"name":"valueToProve","type":"bytes32","internalType":"bytes32"}],"outputs":[{"name":"","type":"bool","internalType":"bool"}],"stateMutability":"pure"}],"bytecode":{"object":"0x608080604052346100165761079a908161001c8239f35b600080fdfe6080604052600436101561001257600080fd5b6000803560e01c9081632e08d6021461007a5750806358161a4214610075578063b861619514610070578063cf06c7b71461006b578063dd1d2599146100665763e27d51531461006157600080fd5b6103f8565b6103d7565b6103b1565b6102bc565b61020d565b346101515760203660031901126101515760043567ffffffffffffffff811161014d576100ab9036906004016101ad565b600180825111156100fc57805b6100de575b6100da6100c983610438565b516040519081529081906020820190565b0390f35b80825111156100f7576100f181926106bb565b916100b8565b6100bd565b60405162461bcd60e51b815260206004820152602360248201527f776f6e27742067656e657261746520726f6f7420666f722073696e676c65206c60448201526232b0b360e91b6064820152608490fd5b5080fd5b80fd5b634e487b7160e01b600052604160045260246000fd5b6040519190601f01601f1916820167ffffffffffffffff81118382101761019057604052565b610154565b67ffffffffffffffff81116101905760051b60200190565b9080601f830112156102085760209082356101cf6101ca82610195565b61016a565b9360208086848152019260051b82010192831161020857602001905b8282106101f9575050505090565b813581529083019083016101eb565b600080fd5b346102085760603660031901126102085760243567ffffffffffffffff81116102085761023e9036906004016101ad565b60443581516000925b81841061025d5760405160043584148152602090f35b909161027660019161026f868561045b565b5190610698565b9301929190610247565b602090602060408183019282815285518094520193019160005b8281106102a8575050505090565b83518552938101939281019260010161029a565b346102085760403660031901126102085760043567ffffffffffffffff8111610208576102ed9036906004016101ad565b602435908061031261030d6001936103078582511161046f565b51610567565b6104c7565b92600080845b61032b575b604051806100da8882610280565b8351858111156103ab57858493926103709282808098161460001461037a575061035960001986018861045b565b51610364828b61045b565b525b0192841c946106bb565b9392919091610318565b858301908103610396575083610390828b61045b565b52610366565b6103a0908861045b565b51610390828b61045b565b5061031d565b346102085760203660031901126102085760206103cf600435610567565b604051908152f35b346102085760403660031901126102085760206103cf602435600435610698565b34610208576020366003190112610208576000600435600181805b61042c5760405183196001018416841485038152602090f35b92810192811c80610413565b8051156104455760200190565b634e487b7160e01b600052603260045260246000fd5b80518210156104455760209160051b010190565b1561047657565b60405162461bcd60e51b8152602060048201526024808201527f776f6e27742067656e65726174652070726f6f6620666f722073696e676c65206044820152633632b0b360e11b6064820152608490fd5b906104d46101ca83610195565b82815280926104e5601f1991610195565b0190602036910137565b90604082018092116104fd57565b634e487b7160e01b600052601160045260246000fd5b90602082018092116104fd57565b90601082018092116104fd57565b90600882018092116104fd57565b90600482018092116104fd57565b90600282018092116104fd57565b90600182018092116104fd57565b60018111156106925760009080600160801b811015610687575b80680100000000000000006002921015610674575b640100000000811015610661575b6201000081101561064e575b61010081101561063b575b6010811015610628575b6004811015610616575b1015610606575b806105e18119610559565b1614806105fd575b156105f15790565b6105fa90610559565b90565b508015156105e9565b9061061090610559565b906105d6565b61062290821c9361054b565b926105cf565b6106359060041c9361053d565b926105c5565b6106489060081c9361052f565b926105bb565b61065b9060101c93610521565b926105b0565b61066e9060201c93610513565b926105a4565b6106819060401c936104ef565b92610596565b60809250821c610581565b50600090565b818110156106af576000526020525b604060002090565b906000526020526106a7565b9081516001908180821614600014610753576106da8282811c016104c7565b916000196106ea8382018761045b565b51600080526020526107046040600020918551018561045b565b525b600019909101906000805b8382106107215750929450505050565b8260029161073f610732858b61045b565b5161026f8487018c61045b565b610749828961045b565b5201910190610711565b61075e81831c6104c7565b9161070656fea26469706673582212203c72598bd8280a80361a71166ecb860a6dbda8dc3314a51acf4d192c3416a4b464736f6c63430008180033","linkReferences":{}},"methodIdentifiers":{"getProof(bytes32[],uint256)":"b8616195","getRoot(bytes32[])":"2e08d602","hashLeafPairs(bytes32,bytes32)":"dd1d2599","log2ceil(uint256)":"e27d5153","log2ceilBitMagic(uint256)":"cf06c7b7","verifyProof(bytes32,bytes32[],bytes32)":"58161a42"},"id":25}