{"abi":[{"type":"function","name":"submitCheckpoint","inputs":[{"name":"checkpoint","type":"tuple","internalType":"struct BottomUpCheckpoint","components":[{"name":"subnetID","type":"tuple","internalType":"struct SubnetID","components":[{"name":"root","type":"uint64","internalType":"uint64"},{"name":"route","type":"address[]","internalType":"address[]"}]},{"name":"blockHeight","type":"uint256","internalType":"uint256"},{"name":"blockHash","type":"bytes32","internalType":"bytes32"},{"name":"nextConfigurationNumber","type":"uint64","internalType":"uint64"},{"name":"msgs","type":"tuple[]","internalType":"struct IpcEnvelope[]","components":[{"name":"kind","type":"uint8","internalType":"enum IpcMsgKind"},{"name":"to","type":"tuple","internalType":"struct IPCAddress","components":[{"name":"subnetId","type":"tuple","internalType":"struct SubnetID","components":[{"name":"root","type":"uint64","internalType":"uint64"},{"name":"route","type":"address[]","internalType":"address[]"}]},{"name":"rawAddress","type":"tuple","internalType":"struct FvmAddress","components":[{"name":"addrType","type":"uint8","internalType":"uint8"},{"name":"payload","type":"bytes","internalType":"bytes"}]}]},{"name":"from","type":"tuple","internalType":"struct IPCAddress","components":[{"name":"subnetId","type":"tuple","internalType":"struct SubnetID","components":[{"name":"root","type":"uint64","internalType":"uint64"},{"name":"route","type":"address[]","internalType":"address[]"}]},{"name":"rawAddress","type":"tuple","internalType":"struct FvmAddress","components":[{"name":"addrType","type":"uint8","internalType":"uint8"},{"name":"payload","type":"bytes","internalType":"bytes"}]}]},{"name":"nonce","type":"uint64","internalType":"uint64"},{"name":"value","type":"uint256","internalType":"uint256"},{"name":"message","type":"bytes","internalType":"bytes"}]}]},{"name":"signatories","type":"address[]","internalType":"address[]"},{"name":"signatures","type":"bytes[]","internalType":"bytes[]"}],"outputs":[],"stateMutability":"nonpayable"},{"type":"function","name":"validateActiveQuorumSignatures","inputs":[{"name":"signatories","type":"address[]","internalType":"address[]"},{"name":"hash","type":"bytes32","internalType":"bytes32"},{"name":"signatures","type":"bytes[]","internalType":"bytes[]"}],"outputs":[],"stateMutability":"view"},{"type":"event","name":"ActiveValidatorCollateralUpdated","inputs":[{"name":"validator","type":"address","indexed":false,"internalType":"address"},{"name":"newPower","type":"uint256","indexed":false,"internalType":"uint256"}],"anonymous":false},{"type":"event","name":"ActiveValidatorLeft","inputs":[{"name":"validator","type":"address","indexed":false,"internalType":"address"}],"anonymous":false},{"type":"event","name":"ActiveValidatorReplaced","inputs":[{"name":"oldValidator","type":"address","indexed":false,"internalType":"address"},{"name":"newValidator","type":"address","indexed":false,"internalType":"address"}],"anonymous":false},{"type":"event","name":"ConfigurationNumberConfirmed","inputs":[{"name":"number","type":"uint64","indexed":false,"internalType":"uint64"}],"anonymous":false},{"type":"event","name":"NewActiveValidator","inputs":[{"name":"validator","type":"address","indexed":false,"internalType":"address"},{"name":"power","type":"uint256","indexed":false,"internalType":"uint256"}],"anonymous":false},{"type":"event","name":"NewCollateralRelease","inputs":[{"name":"validator","type":"address","indexed":false,"internalType":"address"},{"name":"amount","type":"uint256","indexed":false,"internalType":"uint256"},{"name":"releaseBlock","type":"uint256","indexed":false,"internalType":"uint256"}],"anonymous":false},{"type":"event","name":"NewWaitingValidator","inputs":[{"name":"validator","type":"address","indexed":false,"internalType":"address"},{"name":"power","type":"uint256","indexed":false,"internalType":"uint256"}],"anonymous":false},{"type":"event","name":"Paused","inputs":[{"name":"account","type":"address","indexed":false,"internalType":"address"}],"anonymous":false},{"type":"event","name":"Unpaused","inputs":[{"name":"account","type":"address","indexed":false,"internalType":"address"}],"anonymous":false},{"type":"event","name":"WaitingValidatorCollateralUpdated","inputs":[{"name":"validator","type":"address","indexed":false,"internalType":"address"},{"name":"newPower","type":"uint256","indexed":false,"internalType":"uint256"}],"anonymous":false},{"type":"event","name":"WaitingValidatorLeft","inputs":[{"name":"validator","type":"address","indexed":false,"internalType":"address"}],"anonymous":false},{"type":"error","name":"AddressShouldBeValidator","inputs":[]},{"type":"error","name":"BottomUpCheckpointAlreadySubmitted","inputs":[]},{"type":"error","name":"CannotConfirmFutureChanges","inputs":[]},{"type":"error","name":"CannotSubmitFutureCheckpoint","inputs":[]},{"type":"error","name":"EnforcedPause","inputs":[]},{"type":"error","name":"ExpectedPause","inputs":[]},{"type":"error","name":"InvalidCheckpointEpoch","inputs":[]},{"type":"error","name":"InvalidSignatureErr","inputs":[{"name":"","type":"uint8","internalType":"uint8"}]},{"type":"error","name":"MaxMsgsPerBatchExceeded","inputs":[]},{"type":"error","name":"NotValidator","inputs":[{"name":"","type":"address","internalType":"address"}]},{"type":"error","name":"PQDoesNotContainAddress","inputs":[]},{"type":"error","name":"PQEmpty","inputs":[]},{"type":"error","name":"ReentrancyError","inputs":[]}],"bytecode":{"object":"0x6080806040523461001657613527908161001c8239f35b600080fdfe608080604052600436101561001357600080fd5b600090813560e01c90816379979f57146100b9575063cc2dc2b91461003757600080fd5b346100b65760603660031901126100b6576001600160401b036004358181116100b257366023820112156100b2576100799036906024816004013591016109c2565b6044359182116100b257366023830112156100b2576100a56100af923690602481600401359101610a33565b9060243590611016565b80f35b8280fd5b80fd5b82346100b657600319606036820112610344576001600160401b03600435116103445760a090600435360301126100b6576024356001600160401b03811161034457610109903690600401610918565b6044356001600160401b03811161091457610128903690600401610918565b92909460ff7fc451c9429c27db68f286ab8a68f311f1dccab703ba9423aed29cd397ae63f863541661090557506101b193946101a36101ab9261016f600435600401611196565b60405160208101906101988161018a60043560040185610c85565b03601f198101835282610976565b5190209436916109c2565b933691610a33565b91611016565b6004803560248101358352601a6020526040832091610200916101d5910180610e03565b6001600160401b036101e682610e18565b166001600160401b03198454161783556020810190610e2c565b906001600160401b0382116108cc5761021c8260018501610ea1565b90600183018452602084209184905b8282106108e05785856024600435013560028201556044600435013560038201556001600160401b03610262606460043501610e18565b166001600160401b031960048301541617600482015561028c608460043501600435600401610e2c565b91600160401b83116108cc576005810154836005830155808410610840575b506005018352602083208391805b848410610348576004356024013560015560055486906001600160a01b0316803b156103445781604051809263fba0fa4d60e01b825281838161030460043560040160048301610c85565b03925af180156103395761032a575b506100af610325606460043501610e18565b611403565b6103339061094d565b81610313565b6040513d84823e3d90fd5b5080fd5b803560be198336030181121561083c57600381840135101561083c5761037081840135610baa565b60ff1984541660ff8285013516178455600184016103cf610398602084870101848701610e03565b916103a38380610e03565b906001600160401b036103b583610e18565b166001600160401b03198254161790556020810190610e2c565b906001600160401b03821161078a576103eb8260028901610ea1565b90600287018a5260208a20918a905b8282106108175750505050806020610413920190610e03565b80359060ff8216820361075d5760ff610440921660ff196003880154161760038701556020810190610f9f565b906001600160401b03821161074957610469826104606004890154610ed7565b60048901610fd1565b8890601f83116001146107a95761049892918a918361079e575b50508160011b916000199060031b1c19161790565b60048501555b600584016104b56103988584016040810190610e03565b906001600160401b03821161078a576104d18260068901610ea1565b90600687018a5260208a20918a905b82821061076157505050508060206104f9920190610e03565b80359060ff8216820361075d5760ff610526921660ff196007880154161760078701556020810190610f9f565b906001600160401b0382116107495761054f826105466008890154610ed7565b60088901610fd1565b8890601f83116001146106d8579180610582926105ca95948c926106cd5750508160011b916000199060031b1c19161790565b60088601555b600985016001600160401b036105a2606084880101610e18565b825467ffffffffffffffff1916911617905583016080810135600a86015560a0810190610f9f565b906001600160401b0382116106b9576105f3826105ea600b880154610ed7565b600b8801610fd1565b8790601f8311600114610646579261062983600c946020946001978d9261063b5750508160011b916000199060031b1c19161790565b600b8701555b019301930192916102b9565b013590508c80610483565b600b860189526020892091895b601f19851681106106a1575083602093600196938793600c97601f19811610610687575b505050811b01600b87015561062f565b0135600019600384901b60f8161c191690558b8080610677565b90926020600181928686013581550194019101610653565b634e487b7160e01b88526041600452602488fd5b013590508b80610483565b600887018a5260208a20918a5b601f198516811061073157509183916001936105ca9695601f19811610610717575b505050811b016008860155610588565b0135600019600384901b60f8161c191690558a8080610707565b909260206001819286860135815501940191016106e5565b634e487b7160e01b89526041600452602489fd5b8880fd5b8035916001600160a01b038316830361078657602060019201928186015501906104e0565b8c80fd5b634e487b7160e01b8a52604160045260248afd5b013590508a80610483565b600487939293018a5260208a20908a935b601f19841685106107ff576001945083601f198116106107e5575b505050811b01600485015561049e565b0135600019600384901b60f8161c191690558980806107d5565b818101358355602094850194600190930192016107ba565b8035916001600160a01b038316830361078657602060019201928186015501906103fa565b8680fd5b600c8181020481036108b857600c8481020484036108b8576005820185526020852084600c0281015b82600c028201811061087c5750506102ab565b8087600c925561088e60018201610f5a565b61089a60058201610f5a565b87600982015587600a8201556108b2600b8201610f11565b01610869565b634e487b7160e01b85526011600452602485fd5b634e487b7160e01b84526041600452602484fd5b8035916001600160a01b038316830361083c576020600192019281860155019061022b565b63d93c066560e01b8152600490fd5b8380fd5b9181601f84011215610948578235916001600160401b038311610948576020808501948460051b01011161094857565b600080fd5b6001600160401b03811161096057604052565b634e487b7160e01b600052604160045260246000fd5b90601f801991011681019081106001600160401b0382111761096057604052565b6001600160401b0381116109605760051b60200190565b35906001600160a01b038216820361094857565b92916109cd82610997565b916109db6040519384610976565b829481845260208094019160051b810192831161094857905b828210610a015750505050565b838091610a0d846109ae565b8152019101906109f4565b6001600160401b03811161096057601f01601f191660200190565b92919092610a4084610997565b91604094610a516040519485610976565b839581855260208095019160051b8401938385116109485780925b858410610a7c5750505050505050565b83356001600160401b03811161094857820185601f8201121561094857803591610aa583610a18565b610ab186519182610976565b838152878a85850101116109485760008a858196828097018386013783010152815201930192610a6c565b9035603e1982360301811215610948570190565b35906001600160401b038216820361094857565b9035601e19823603018112156109485701602081359101916001600160401b038211610948578160051b3603831361094857565b60408201916001600160401b03610b4e83610af0565b1681526060610b636020936020810190610b04565b83919560406020839601525201929160005b828110610b83575050505090565b909192938280600192838060a01b03610b9b896109ae565b16815201950193929101610b75565b60031115610bb457565b634e487b7160e01b600052602160045260246000fd5b9035601e19823603018112156109485701602081359101916001600160401b03821161094857813603831361094857565b908060209392818452848401376000828201840152601f01601f1916010190565b610c45610c3a610c2c8380610adc565b604085526040850190610b38565b916020810190610adc565b91602081830391015281359160ff831680930361094857610c72604091610c829484526020810190610bca565b9190928160208201520191610bfb565b90565b60209182825260c090610c988180610adc565b93610caf60a09560a08387015260c0860190610b38565b60409282810135604087015260609460408201356060880152610cd460608301610af0565b94610cf56080936001600160401b0380981660808b01526080810190610b04565b969099601f199960a08b8289030191015287865286860193878960051b8801019b809b6000985b8b8a10610d3457505050505050505050505050505090565b909192939495969798999a9b9c9d8e83838303018a523560be1985360301811215610948578401908135906003821015610948578f8e9383610d768695610baa565b8352610d8481850182610adc565b8985850152898401610d9591610c1c565b610da1828e0183610adc565b848203858f0152610db29190610c1c565b918b610dbf838301610af0565b16908401528d8082013590840152898101610dd991610bca565b90928a818403910152610deb92610bfb565b9f019d9c9b9a60010199980196959493929190610d1c565b903590603e1981360301821215610948570190565b356001600160401b03811681036109485790565b903590601e198136030182121561094857018035906001600160401b03821161094857602001918160051b3603831361094857565b81810292918115918404141715610e7457565b634e487b7160e01b600052601160045260246000fd5b818110610e95575050565b60008155600101610e8a565b90600160401b811161096057815490808355818110610ebf57505050565b610ed59260005260206000209182019101610e8a565b565b90600182811c92168015610f07575b6020831014610ef157565b634e487b7160e01b600052602260045260246000fd5b91607f1691610ee6565b610f1b8154610ed7565b9081610f25575050565b81601f60009311600114610f37575055565b908083918252610f56601f60208420940160051c840160018501610e8a565b5555565b6003610ed591600081556001810180546000825580610f83575b50506000600282015501610f11565b610f9891600052602060002090810190610e8a565b3880610f74565b903590601e198136030182121561094857018035906001600160401b0382116109485760200191813603831361094857565b9190601f8111610fe057505050565b610ed5926000526020600020906020601f840160051c8301931061100c575b601f0160051c0190610e8a565b9091508190610fff565b92919083519361102585610997565b60406110346040519283610976565b86825261104087610997565b60209790601f190136848a013760005b81811061111957505060009661ffff80600d541660019283916001945b6110c6575b5050505050506064611091611098969760ff60055460e01c1690610e61565b0491611a1f565b90156110a15750565b6006811015610bb45760405163282ef1c160e01b815260ff9091166004820152602490fd5b90919293949a848616828111611112576000908152600f84528c902054849392918691859161110791611101906001600160a01b0316611b65565b90611a12565b9d970116949361106d565b509a611072565b9197916001600160a01b038061112f83886119e8565b5116600052600e845261ffff8a600020541615611172579061115e60019261115783896119e8565b5116611b65565b61116882876119e8565b5201979197611050565b8990611180602493886119e8565b519151633b4f6e2b60e21b815291166004820152fd5b6001600160401b03908160055460a01c16916080820190836111b88385610e2c565b90501161126157600154600354906020850135928184111561124f57821561123957829116049060018201809211610e74576111f391610e61565b9081811161122757146112225761120991610e2c565b905014610ed55760405163fae4eadb60e01b8152600490fd5b505050565b60405163dd88982f60e01b8152600490fd5b634e487b7160e01b600052601260045260246000fd5b60405163d6bb62dd60e01b8152600490fd5b60405163351c700760e01b8152600490fd5b60041115610bb457565b9060405191826000825461129081610ed7565b908184526020946001916001811690816000146112fe57506001146112bf575b505050610ed592500383610976565b600090815285812095935091905b8183106112e6575050610ed593508201013880806112b0565b855488840185015294850194879450918301916112cd565b92505050610ed594925060ff191682840152151560051b8201013880806112b0565b908082146113ff576113328154610ed7565b906001600160401b038211610960576113558261134f8554610ed7565b85610fd1565b600090601f8311600114611394576113859291600091836113895750508160011b916000199060031b1c19161790565b9055565b015490503880610483565b815260208082208483528183209291601f1985169083905b8282106113e65750509084600195949392106113cd575b505050811b019055565b015460001960f88460031b161c191690553880806113c3565b84958192958501548155600180910196019401906113ac565b5050565b601354906001600160401b03908116818316811061142d5760405163040aaa0560e11b8152600490fd5b818360401c168110611222578180604094851c165b8282821611156114ab57505060018101918211610e74577f246f00b61ce672242f33bb680a47147cd54d3dfd04dbb76956ba42f88087bf639260209267ffffffffffffffff60401b60135491831b169067ffffffffffffffff60401b19161760135551908152a1565b6114c8816001600160401b03166000526014602052604060002090565b600281015481546001600160a01b0391821692919060ff166114e981611273565b6002810361155a5750506001600160a01b039091166000908152600c6020526040902061151c9160010190600301611320565b611539816001600160401b03166000526014602052604060002090565b906000808355600260019361154f858201610f11565b015501168290611442565b909291945061156881611273565b60039281840361170e575050611581600180950161127d565b8051946020958201918981888501940312610948578681015189811161094857810183603f820112156109485787810151906115bc82610a18565b946115c98d519687610976565b8286528c8383010111610948578b9291899160005b8281106116f757505090600091860101520151938061160f8560018060a01b0316600052600c602052604060002090565b01928051928a8411610960578a986116318561162b8854610ed7565b88610fd1565b8093601f861160011461168157505050918061166a92611671979695946000926116765750508160011b916000199060031b1c19161790565b9055611b21565b61151c565b015190503880610483565b909193601f9a9998979695939a1984168660005283600020936000905b8282106116dd5750509a846116719a9b9c106116c3575b50505050811b019055611b21565b01519060f884600019921b161c19169055388080806116b5565b838e015186558f9c5094870194928301929081019061169e565b818101909501518786018401528d948b93016115de565b919092611721600196959680960161127d565b602081805181010312610948576020869101519461173e81611273565b0361194c576117d79061176f85876117688660018060a01b0316600052600c602052604060002090565b0154611b14565b90600261178e8560018060a01b0316600052600c602052604060002090565b015482159081611943575b5015611920576001600160a01b0384166000908152600c602052604090206117d191906000808255808a830155600282015501610f11565b8261203f565b600b6117e4848254611b14565b90556117f260155443611a12565b88518981018181108a82111761190b578a528181526020810185815260009684885260166020528b88209283549161ffff93838580951694859160101c16018581116118f75785168b528582016020528e8b2092518355519101557f083b080788e20bd0930c2bca2ae4fbc51a59ced08c1b5992271f8cb439498a639460609490939092909161188190612577565b1661ffff198254161790558a519182528560208301528a820152a16005541690813b156100b257829160248392895195869384926345f5448560e01b845260048401525af19081156118ec5750908492916118dd575b5061151c565b6118e69061094d565b386118d7565b8651903d90823e3d90fd5b634e487b7160e01b8c52601160045260248cfd5b60246000634e487b7160e01b81526041600452fd5b506001600160a01b0383166000908152600c6020526040902081908701556117d1565b90501538611799565b50928361197c84836119756119ae96979860018060a01b0316600052600c602052604060002090565b0154611a12565b6001600160a01b0382166000908152600c60205260409020909283910155600b6119a7868254611a12565b9055611bf0565b6005541690813b15610948578551916316989f6f60e21b83528260048160009485945af19081156118ec5750908492916118dd575061151c565b80518210156119fc5760209160051b010190565b634e487b7160e01b600052603260045260246000fd5b91908201809211610e7457565b84519294600094908415611b075782518514801590611afc575b611aef579392919085945b848610611a67575050505050501015611a5f57600090600590565b600190600090565b909192939495611a81611a7a88846119e8565b5184611bb4565b50611a8b81611273565b611ade576001600160a01b0380611aa28a886119e8565b5116911603611ace57611ac2600191611abb89886119e8565b5190611a12565b96019493929190611a44565b5050505050505050600090600390565b505050505050505050600090600490565b5050505050905090600190565b508351851415611a39565b5050505050905090600290565b91908203918211610e7457565b9060018060a01b038216600052600c60205260406000208181549155818114600014611b4c57505050565b811115611b5c57610ed591611edd565b610ed59161237a565b600160ff600a5416611b7681610baa565b03611b96576001600160a01b03166000908152600c602052604090205490565b6001600160a01b03166000908152600c602052604090206001015490565b8151919060418303611be557611bde92506020820151906060604084015193015160001a9061258a565b9192909190565b505060009160029190565b919060018060a01b0392838116600094818652602091600e835261ffff91604097838982205416611dec5783600a5460081c1684600d541610611dca57611c356130f5565b60019260018252600f8652828a8320541688611c5082611b65565b10611d565750815260118552838982205416611cbf575050505050611cba7f19fe3ca603e87854a0747cc10abf06bac64d61bac73d6d15f2fd3ca448f152649394611c9a83612af6565b516001600160a01b03909216825260208201929092529081906040820190565b0390a1565b611cc886612fd1565b92611cd287611b65565b935b8186821611611d18575b505097516001600160a01b0390951685525050505060208101919091529091506000805160206134b2833981519152908060408101611cba565b8085611d3786617fff8f95871c169485885260128c5287205416611b65565b1015611d505790611d498392826131c7565b9050611cd4565b50611cde565b9697508994935060008051602061349283398151915298999250611cba95601191611d7f6126a2565b835252205416611dbc575b611d938461261a565b611d9c83612af6565b516001600160a01b03928316815292909116602083015281906040820190565b611dc584612947565b611d8a565b5050505050611cba6000805160206134d28339815191529394611c9a8361261a565b97929150611dfd8594979695612f9a565b97611e0785611b65565b97611e118a612ff6565b84600d5416905b858116828111611eb85782811015611e9c575080611e38611e3e92612577565b906133c9565b9b909b5b8b1115611e6157611e53908c61312e565b611e5c8b612ff6565b611e18565b505093516001600160a01b03909516855250505050602081019190915290925060008051602061347283398151915291508060408101611cba565b849c919c52600f8352611eb3858886205416611b65565b611e42565b50505050505050611cba91929395506000805160206134728339815191529450611c9a565b6001600160a01b038082166000818152600e6020526040808220549095949361ffff9391841661200d5783600a5460081c1684600d541610611fed57611f216130f5565b60018352600f602052868320541685611f3982611b65565b10611fab5750815260116020528490205416611f7d57611cba7f19fe3ca603e87854a0747cc10abf06bac64d61bac73d6d15f2fd3ca448f1526493611c9a83612af6565b611cba6000805160206134b283398151915293611c9a611f9c84612fd1565b611fa585611b65565b906132da565b93945091856000805160206134928339815191529692611cba94611fcd61280b565b81526011602052205416611fe457611d938461261a565b611dc5846129d2565b50505050611cba6000805160206134d283398151915293611c9a8361261a565b50505050611cba60008051602061347283398151915293611c9a61203084612f9a565b61203985611b65565b9061300d565b909160018060a01b03928383169060009382855260206011815261ffff9560409487868320541661224457808252600e83528786832054161561223357841561219c575061208c83612f9a565b9761209684611b65565b985b6001808a8316111561218d5781617fff911c1690818452600f85528a6120c2848a87205416611b65565b11156120d7576120d2908261312e565b612098565b505091939597509193955b6010541615612185576120f36130f5565b60018252600f83528581818420541692601261210e85611b65565b95612117613103565b60018352522054169161212983611b65565b1161215e57505091516001600160a01b0390921682526020820152600080516020613472833981519152908060408101611cba565b91509150611cba6000805160206134928339815191529361217d6126a2565b611d8a612d1b565b505050505050565b505091939597509193956120e2565b8294506121d07f4a4c5d1a281180eea1e99d8177fa4798b9f7e019d5c57e7d8d73c6a22199aa5b9392989499969799612b6a565b8651908152a1601054166121e5575b50505050565b6000805160206134d28339815191529360128492612201613103565b600183525220541661222761221582611b65565b9261221e612d1b565b611c9a8361261a565b0390a1388080806121df565b8551632a55ca5360e01b8152600490fd5b8496979294989395981561233f5750919261225e85612fd1565b9361226886611b65565b93859261fffe968795600196879260011b168160105416925b6122c4575b50509a516001600160a01b039098168852505050506020840194909452509293506000805160206134b2833981519152925090508060408101611cba565b818116838111612339578e908085111561231d575050806122e76122ed92612577565b90613420565b9690965b8910156123185790612308889695949392886131c7565b8987871b16909192939495612281565b612286565b865260128552852054909690612334908716611b65565b6122f1565b50612286565b949150507f3168ba660eed6ef1dc2258b2247cc05fd0f2f350d39e6ad2e2ebc76a8000b40b95969294506123739150612947565b51908152a1565b6001600160a01b0380821660008181526011602090815260408083205490969594919361ffff91821661250d57808452600e8552818885205416156124fc57861561247e57506123db6123cc86612f9a565b6123d587611b65565b906130a0565b6010541615612185576123ec6130f5565b60018252600f83528581818420541692601261240785611b65565b95612410613103565b60018352522054169161242283611b65565b1161245757505091516001600160a01b0390921682526020820152600080516020613472833981519152908060408101611cba565b91509150611cba6000805160206134928339815191529361247661280b565b611d8a612e62565b8491939796506124af7f4a4c5d1a281180eea1e99d8177fa4798b9f7e019d5c57e7d8d73c6a22199aa5b9396612bf5565b8651908152a1601054166124c35750505050565b6000805160206134d283398151915293601284926124df613103565b60018352522054166122276124f382611b65565b9261221e612e62565b8751632a55ca5360e01b8152600490fd5b969392505050831561254a57506000805160206134b28339815191529350611cba90611c9a61253b84612fd1565b61254485611b65565b90613329565b92506123737f3168ba660eed6ef1dc2258b2247cc05fd0f2f350d39e6ad2e2ebc76a8000b40b94926129d2565b90600161ffff80931601918211610e7457565b91907f7fffffffffffffffffffffffffffffff5d576e7357a4501ddfe92f46681b20a0841161260e57926020929160ff608095604051948552168484015260408301526060820152600092839182805260015afa156126025780516001600160a01b038116156125f957918190565b50809160019190565b604051903d90823e3d90fd5b50505060009160039190565b610ed5906123d561ffff9161263283600d5416612577565b9260018060a01b0382169081600052600e60205260406000209085169161ffff1991838382541617905582600052600f6020526040600020906bffffffffffffffffffffffff60a01b825416179055600d541617600d55611b65565b61ffff9081166000190191908211610e7457565b61ffff80600d54169081156127f957906001906126c181831115613111565b6000828152600f60208181526040808420805486865282862080546001600160a01b03928316808952600e8752858920805461ffff199081168c17909155918416808a52868a20805484168d17905588885283546001600160a01b03199081169092179093558a89528454169091179092559295879593949293929161275b91908a61274c8361268e565b1690600d541617600d55613256565b848252600f602052612771848484205416611b65565b958598600281600d5416995b61278f575b5050505050505050505050565b8181168a81116127f3578a8110156127d8575080611e386127af92612577565b9a909a5b8911156127d3576127c4908b61312e565b6127cd8a612ff6565b8761277d565b612782565b859b919b528383526127ee878787205416611b65565b6127b3565b50612782565b6040516340d9b01160e01b8152600490fd5b61ffff80600d54169081156127f9579060019061282a81831115613111565b6000828152600f60208181526040808420805486865282862080546001600160a01b03928316808952600e8752858920805461ffff199081168c17909155918416808a52868a20805484168d17905588885283546001600160a01b03199081169092179093558a8952845416909117909255929587959394929392916128b591908a61274c8361268e565b848252600f6020526128cb848484205416611b65565b958598600281600d5416995b6128e8575050505050505050505050565b8181168a81116127f3578a81101561292c575080611e3861290892612577565b9a909a5b8911156127d35761291d908b61312e565b6129268a612ff6565b876128d7565b859b919b52838352612942878787205416611b65565b61290c565b61295090612fd1565b61ffff9081601054169161296483836131c7565b8061296e8461268e565b1661ffff19601054161760105561298483613298565b81168092146113ff5761254482610ed593600052601260205260018060a01b03906129be6129b88360406000205416611b65565b856132da565b600052601260205260406000205416611b65565b6129db90612fd1565b61ffff8060105416916129ee83826131c7565b816129f88461268e565b1661ffff196010541617601055612a0e83613298565b818116809314611222576000918383526012602094601260205260018060a01b0390604090612a4b612a458460408a205416611b65565b876132da565b86526012602052612a6182604088205416611b65565b95859361fffe988997600198899160011b168860105416915b612a8d575b505050505050505050505050565b888116828111612af05782811015612ad55750806122e7612aad92612577565b9890985b8b1015612ad057612ac38a988a6131c7565b979687811b8c1690612a7a565b612a7f565b8599919952838352612aeb878787205416611b65565b612ab1565b50612a7f565b610ed590611fa561ffff91612b0e8360105416612577565b9260018060a01b0382169081600052601160205260406000209085169161ffff199183838254161790558260005260126020526040600020906bffffffffffffffffffffffff60a01b8254161790556010541617601055611b65565b612b7390612f9a565b61ffff9081600d541691612b87838361312e565b80612b918461268e565b1661ffff19600d541617600d55612ba783613256565b81168092146113ff5761203982610ed593600052600f60205260018060a01b0390612be1612bdb8360406000205416611b65565b856130a0565b600052600f60205260406000205416611b65565b612bfe90612f9a565b9061ffff9081600d541690612c13828561312e565b82612c1d8361268e565b1661ffff19600d541617600d55612c3382613256565b828416809214612d1557600092919291838352600f92602094600f60205260018060a01b0391604091612c74612c6e85604085205416611b65565b8a6130a0565b8152600f602052612c8a83604083205416611b65565b95612c9489612ff6565b9785600d5416985b8681168a8111612d07578a811015612cec575080611e38612cbc92612577565b9a909a5b891115612cdf57612cd1908b61312e565b612cda8a612ff6565b612c9c565b5050505050505092505050565b849b919b52828252612d02868686205416611b65565b612cc0565b505050505050505092505050565b92505050565b61ffff80601054169081156127f957906001612d3982821115613111565b6000818152601260208181526040808420805487865282862080546001600160a01b0392831680895260118752858920805461ffff199081168d17909155918416808a52868a20805484168c17905588885283546001600160a01b0319908116909217909355898952845416909117909255939692949192612dce9189612dbf8361268e565b16906010541617601055613298565b8481526012602052612de4838383205416611b65565b9585948660028a60105416915b612e02575050505050505050505050565b8a81168281116127f35782811015612e475750806122e7612e2292612577565b9a909a5b8a10156127d357612e3889988c6131c7565b999687811b61fffe1690612df1565b859b919b52838352612e5d878787205416611b65565b612e26565b61ffff80601054169081156127f957906001612e8082821115613111565b6000818152601260208181526040808420805487865282862080546001600160a01b0392831680895260118752858920805461ffff199081168d17909155918416808a52868a20805484168c17905588885283546001600160a01b0319908116909217909355898952845416909117909255939692949192612f069189612dbf8361268e565b8481526012602052612f1c838383205416611b65565b9585948660028a60105416915b612f3a575050505050505050505050565b8a81168281116127f35782811015612f7f5750806122e7612f5a92612577565b9a909a5b8a10156127d357612f7089988c6131c7565b999687811b61fffe1690612f29565b859b919b52838352612f95878787205416611b65565b612f5e565b6001600160a01b03166000908152600e602052604090205461ffff16908115612fbf57565b60405163f2755e3760e01b8152600490fd5b6001600160a01b031660009081526011602052604090205461ffff16908115612fbf57565b60011b906201fffe61fffe831692168203610e7457565b9161301783612ff6565b600061ffff9182600d5416905b8381168281116130965782811015613070575080611e3861304492612577565b9690965b86111561306757613059908761312e565b61306286612ff6565b613024565b50505050915050565b8352600f6020526040832054909690613091906001600160a01b0316611b65565b613048565b5050505050915050565b9190915b60018061ffff831611156130ef5781617fff911c1690836130da6000848152600f602052604060018060a01b0391205416611b65565b11156130ef576130ea908261312e565b6130a4565b50509050565b61ffff600d5416156127f957565b61ffff60105416156127f957565b1561311857565b634e487b7160e01b600052600160045260246000fd5b61315361ffff8080600d541693169361314984861115613111565b1691821115613111565b6000828152600f60208181526040808420805486865282862080546001600160a01b03928316808952600e8752858920805461ffff19908116909b1790559216808852938720805490981689179097559390925284546001600160a01b031990811690931790945593909152825416179055565b6131e261ffff80806010541693169361314984861115613111565b6000828152601260208181526040808420805486865282862080546001600160a01b0392831680895260118752858920805461ffff19908116909b1790559216808852938720805490981689179097559390925284546001600160a01b031990811690931790945593909152825416179055565b61ffff166000908152600f6020908152604080832080546001600160a01b031981169091556001600160a01b03168352600e9091529020805461ffff19169055565b61ffff16600090815260126020908152604080832080546001600160a01b031981169091556001600160a01b0316835260119091529020805461ffff19169055565b9190915b60018061ffff831611156130ef5781617fff911c16908361331460008481526012602052604060018060a01b0391205416611b65565b10156130ef5761332490826131c7565b6132de565b9061fffe91600190838160011b169060008361ffff938460105416915b613355575b5050505050505050565b8481168281116133c3578281101561339d5750806122e761337592612577565b9490945b8710156133985761338b8694866131c7565b939283811b881690613346565b61334b565b8352601260205260408320549094906133be906001600160a01b0316611b65565b613379565b5061334b565b919061ffff808416600052600f60205261340a60018060a01b036133f38160406000205416611b65565b928416600052600f60205260406000205416611b65565b93848211156134195750509190565b9350919050565b91909161ffff92838216600052601260205261346360018060a01b0361344c8160406000205416611b65565b958316600052601260205260406000205416611b65565b90818510613419575050919056fe143db27bc2036653dc6f962ff9d0b803163d4af50c256ca9e6927b3d6dcd0197faeb8de771b867cf357f6b459a7002b62ec45d544a8078a3ecd91200cc826d75da148fac2e1063174be7bc0895576bdaba90fd14e575463fa26a967cb895cadd2e8038f5812f763c6ef0c5427cb5a05ce6d7064af2ba7d1d270bc02660b019fda2646970667358221220217109a7048cec87f64af38209d45365cef2eb78d8b129ef78e4b001c2d3c1ab64736f6c63430008180033","linkReferences":{}},"methodIdentifiers":{"submitCheckpoint(((uint64,address[]),uint256,bytes32,uint64,(uint8,((uint64,address[]),(uint8,bytes)),((uint64,address[]),(uint8,bytes)),uint64,uint256,bytes)[]),address[],bytes[])":"79979f57","validateActiveQuorumSignatures(address[],bytes32,bytes[])":"cc2dc2b9"},"id":100}