{"abi":[{"type":"constructor","inputs":[{"name":"_name","type":"string","internalType":"string"},{"name":"_symbol","type":"string","internalType":"string"},{"name":"_initialSupply","type":"uint256","internalType":"uint256"}],"stateMutability":"nonpayable"},{"type":"function","name":"allowance","inputs":[{"name":"owner","type":"address","internalType":"address"},{"name":"spender","type":"address","internalType":"address"}],"outputs":[{"name":"","type":"uint256","internalType":"uint256"}],"stateMutability":"view"},{"type":"function","name":"approve","inputs":[{"name":"spender","type":"address","internalType":"address"},{"name":"value","type":"uint256","internalType":"uint256"}],"outputs":[{"name":"","type":"bool","internalType":"bool"}],"stateMutability":"nonpayable"},{"type":"function","name":"balanceOf","inputs":[{"name":"account","type":"address","internalType":"address"}],"outputs":[{"name":"","type":"uint256","internalType":"uint256"}],"stateMutability":"view"},{"type":"function","name":"currentSupply","inputs":[],"outputs":[{"name":"","type":"uint256","internalType":"uint256"}],"stateMutability":"view"},{"type":"function","name":"decimals","inputs":[],"outputs":[{"name":"","type":"uint8","internalType":"uint8"}],"stateMutability":"view"},{"type":"function","name":"mint","inputs":[{"name":"_to","type":"address","internalType":"address"},{"name":"_amount","type":"uint256","internalType":"uint256"}],"outputs":[],"stateMutability":"nonpayable"},{"type":"function","name":"name","inputs":[],"outputs":[{"name":"","type":"string","internalType":"string"}],"stateMutability":"view"},{"type":"function","name":"owner","inputs":[],"outputs":[{"name":"","type":"address","internalType":"address"}],"stateMutability":"view"},{"type":"function","name":"renounceOwnership","inputs":[],"outputs":[],"stateMutability":"nonpayable"},{"type":"function","name":"symbol","inputs":[],"outputs":[{"name":"","type":"string","internalType":"string"}],"stateMutability":"view"},{"type":"function","name":"totalSupply","inputs":[],"outputs":[{"name":"","type":"uint256","internalType":"uint256"}],"stateMutability":"view"},{"type":"function","name":"transfer","inputs":[{"name":"to","type":"address","internalType":"address"},{"name":"value","type":"uint256","internalType":"uint256"}],"outputs":[{"name":"","type":"bool","internalType":"bool"}],"stateMutability":"nonpayable"},{"type":"function","name":"transferFrom","inputs":[{"name":"from","type":"address","internalType":"address"},{"name":"to","type":"address","internalType":"address"},{"name":"value","type":"uint256","internalType":"uint256"}],"outputs":[{"name":"","type":"bool","internalType":"bool"}],"stateMutability":"nonpayable"},{"type":"function","name":"transferOwnership","inputs":[{"name":"newOwner","type":"address","internalType":"address"}],"outputs":[],"stateMutability":"nonpayable"},{"type":"event","name":"Approval","inputs":[{"name":"owner","type":"address","indexed":true,"internalType":"address"},{"name":"spender","type":"address","indexed":true,"internalType":"address"},{"name":"value","type":"uint256","indexed":false,"internalType":"uint256"}],"anonymous":false},{"type":"event","name":"OwnershipTransferred","inputs":[{"name":"previousOwner","type":"address","indexed":true,"internalType":"address"},{"name":"newOwner","type":"address","indexed":true,"internalType":"address"}],"anonymous":false},{"type":"event","name":"Transfer","inputs":[{"name":"from","type":"address","indexed":true,"internalType":"address"},{"name":"to","type":"address","indexed":true,"internalType":"address"},{"name":"value","type":"uint256","indexed":false,"internalType":"uint256"}],"anonymous":false},{"type":"error","name":"ERC20InsufficientAllowance","inputs":[{"name":"spender","type":"address","internalType":"address"},{"name":"allowance","type":"uint256","internalType":"uint256"},{"name":"needed","type":"uint256","internalType":"uint256"}]},{"type":"error","name":"ERC20InsufficientBalance","inputs":[{"name":"sender","type":"address","internalType":"address"},{"name":"balance","type":"uint256","internalType":"uint256"},{"name":"needed","type":"uint256","internalType":"uint256"}]},{"type":"error","name":"ERC20InvalidApprover","inputs":[{"name":"approver","type":"address","internalType":"address"}]},{"type":"error","name":"ERC20InvalidReceiver","inputs":[{"name":"receiver","type":"address","internalType":"address"}]},{"type":"error","name":"ERC20InvalidSender","inputs":[{"name":"sender","type":"address","internalType":"address"}]},{"type":"error","name":"ERC20InvalidSpender","inputs":[{"name":"spender","type":"address","internalType":"address"}]},{"type":"error","name":"OwnableInvalidOwner","inputs":[{"name":"owner","type":"address","internalType":"address"}]},{"type":"error","name":"OwnableUnauthorizedAccount","inputs":[{"name":"account","type":"address","internalType":"address"}]}],"bytecode":{"object":"0x60406080815234620003e85762000d8b803803806200001e81620003ed565b9283398101606082820312620003e85781516001600160401b039290838111620003e857826200005091830162000413565b60209283830151858111620003e85786916200006e91850162000413565b920151938151818111620002e8576003908154906001948583811c93168015620003dd575b88841014620003c7578190601f9384811162000371575b5088908483116001146200030a57600092620002fe575b505060001982851b1c191690851b1782555b8451928311620002e85760049485548581811c91168015620002dd575b88821014620002c8578281116200027d575b5086918411600114620002125793839491849260009562000206575b50501b92600019911b1c19161781555b3315620001ef5760058054336001600160a01b0319821681179092556001600160a01b03167f8be0079c531659141344cd1fd0a4f28419497f9722a3daafe3b4186f6b6457e0600080a3600060065560025490838201809211620001da57506000917fddf252ad1be2c89b69c2b068fc378daa952ba7f163c4a11628f55a4df523b3ef9160025533835282815284832084815401905584519384523393a3516109059081620004868239f35b601190634e487b7160e01b6000525260246000fd5b6024906000855191631e4fbdf760e01b8352820152fd5b0151935038806200011e565b9190601f198416928660005284886000209460005b8a898383106200026557505050106200024a575b50505050811b0181556200012e565b01519060f884600019921b161c19169055388080806200023b565b86860151895590970196948501948893500162000227565b86600052876000208380870160051c8201928a8810620002be575b0160051c019086905b828110620002b157505062000102565b60008155018690620002a1565b9250819262000298565b602287634e487b7160e01b6000525260246000fd5b90607f1690620000f0565b634e487b7160e01b600052604160045260246000fd5b015190503880620000c1565b90879350601f19831691866000528a6000209260005b8c8282106200035a575050841162000341575b505050811b018255620000d3565b015160001983871b60f8161c1916905538808062000333565b8385015186558b9790950194938401930162000320565b90915084600052886000208480850160051c8201928b8610620003bd575b918991869594930160051c01915b828110620003ad575050620000aa565b600081558594508991016200039d565b925081926200038f565b634e487b7160e01b600052602260045260246000fd5b92607f169262000093565b600080fd5b6040519190601f01601f191682016001600160401b03811183821017620002e857604052565b919080601f84011215620003e85782516001600160401b038111620002e85760209062000449601f8201601f19168301620003ed565b92818452828287010111620003e85760005b8181106200047157508260009394955001015290565b85810183015184820184015282016200045b56fe6080604081815260048036101561001557600080fd5b600092833560e01c90816306fdde031461065457508063095ea7b3146105ab57806318160ddd1461058c57806323b872dd14610499578063313ce5671461047d57806340c10f19146103ce57806370a0823114610397578063715018a614610337578063771282f6146103185780638da5cb5b146102ef57806395d89b41146101cd578063a9059cbb1461019c578063dd62ed3e1461014f5763f2fde38b146100bd57600080fd5b3461014b57602036600319011261014b576100d6610794565b906100df6108a3565b6001600160a01b03918216928315610135575050600554826bffffffffffffffffffffffff60a01b821617600555167f8be0079c531659141344cd1fd0a4f28419497f9722a3daafe3b4186f6b6457e08380a380f35b51631e4fbdf760e01b8152908101849052602490fd5b8280fd5b5050346101985780600319360112610198578060209261016d610794565b6101756107af565b6001600160a01b0391821683526001865283832091168252845220549051908152f35b5080fd5b5050346101985780600319360112610198576020906101c66101bc610794565b60243590336107c5565b5160018152f35b5091903461019857816003193601126101985780519082845460018160011c90600183169283156102e5575b60209384841081146102d2578388529081156102b65750600114610261575b505050829003601f01601f191682019267ffffffffffffffff84118385101761024e575082918261024a92528261074b565b0390f35b634e487b7160e01b815260418552602490fd5b8787529192508591837f8a35acfbc15ff81a39ae7d344fd709f28e8600b4aa8c65c6b64bfe7fe36bd19b5b8385106102a25750505050830101388080610218565b80548886018301529301928490820161028c565b60ff1916878501525050151560051b8401019050388080610218565b634e487b7160e01b895260228a52602489fd5b91607f16916101f9565b50503461019857816003193601126101985760055490516001600160a01b039091168152602090f35b5050346101985781600319360112610198576020906006549051908152f35b83346103945780600319360112610394576103506108a3565b600580546001600160a01b0319811690915581906001600160a01b03167f8be0079c531659141344cd1fd0a4f28419497f9722a3daafe3b4186f6b6457e08280a380f35b80fd5b5050346101985760203660031901126101985760209181906001600160a01b036103bf610794565b16815280845220549051908152f35b50903461014b578060031936011261014b576103e8610794565b90602435916103f56108a3565b6001600160a01b03169283156104685760025490838201809211610455575084927fddf252ad1be2c89b69c2b068fc378daa952ba7f163c4a11628f55a4df523b3ef9260209260025585855284835280852082815401905551908152a380f35b634e487b7160e01b865260119052602485fd5b84602492519163ec442f0560e01b8352820152fd5b5050346101985781600319360112610198576020905160128152f35b508234610394576060366003190112610394576104b4610794565b6104bc6107af565b916044359360018060a01b0383168083526001602052868320338452602052868320549160001983036104f8575b6020886101c68989896107c5565b868310610560578115610549573315610532575082526001602090815286832033845281529186902090859003905582906101c6876104ea565b8751634a1406b160e11b8152908101849052602490fd5b875163e602df0560e01b8152908101849052602490fd5b8751637dc7a0d960e11b8152339181019182526020820193909352604081018790528291506060010390fd5b5050346101985781600319360112610198576020906002549051908152f35b503461014b578160031936011261014b576105c4610794565b60243590331561063d576001600160a01b031691821561062657508083602095338152600187528181208582528752205582519081527f8c5be1e5ebec7d5bd14f71427d1e84f3dd0314c0f7b2291e5b200ac8c7c3b925843392a35160018152f35b8351634a1406b160e11b8152908101859052602490fd5b835163e602df0560e01b8152808401869052602490fd5b849150833461014b578260031936011261014b578260035460018160011c9060018316928315610741575b60209384841081146102d25783885290811561072557506001146106cf57505050829003601f01601f191682019267ffffffffffffffff84118385101761024e575082918261024a92528261074b565b600387529192508591837fc2575a0e9e593c00f959f8c92f12db2869c3395a3b0502d05e2516446f71f85b5b8385106107115750505050830101858080610218565b8054888601830152930192849082016106fb565b60ff1916878501525050151560051b8401019050858080610218565b91607f169161067f565b6020808252825181830181905290939260005b82811061078057505060409293506000838284010152601f8019910116010190565b81810186015184820160400152850161075e565b600435906001600160a01b03821682036107aa57565b600080fd5b602435906001600160a01b03821682036107aa57565b916001600160a01b0380841692831561088a5716928315610871576000908382528160205260408220549083821061083f575091604082827fddf252ad1be2c89b69c2b068fc378daa952ba7f163c4a11628f55a4df523b3ef958760209652828652038282205586815220818154019055604051908152a3565b60405163391434e360e21b81526001600160a01b03919091166004820152602481019190915260448101839052606490fd5b60405163ec442f0560e01b815260006004820152602490fd5b604051634b637e8f60e11b815260006004820152602490fd5b6005546001600160a01b031633036108b757565b60405163118cdaa760e01b8152336004820152602490fdfea2646970667358221220615651001933091cabccb58d5fd10f3dbc32eb9b80a9edb42bbbfee2649a6a0c64736f6c63430008180033","linkReferences":{}},"methodIdentifiers":{"allowance(address,address)":"dd62ed3e","approve(address,uint256)":"095ea7b3","balanceOf(address)":"70a08231","currentSupply()":"771282f6","decimals()":"313ce567","mint(address,uint256)":"40c10f19","name()":"06fdde03","owner()":"8da5cb5b","renounceOwnership()":"715018a6","symbol()":"95d89b41","totalSupply()":"18160ddd","transfer(address,uint256)":"a9059cbb","transferFrom(address,address,uint256)":"23b872dd","transferOwnership(address)":"f2fde38b"},"id":111}