{"abi":[{"type":"function","name":"applyMsg","inputs":[{"name":"arrivingFrom","type":"tuple","internalType":"struct SubnetID","components":[{"name":"root","type":"uint64","internalType":"uint64"},{"name":"route","type":"address[]","internalType":"address[]"}]},{"name":"crossMsg","type":"tuple","internalType":"struct IpcEnvelope","components":[{"name":"kind","type":"uint8","internalType":"enum IpcMsgKind"},{"name":"to","type":"tuple","internalType":"struct IPCAddress","components":[{"name":"subnetId","type":"tuple","internalType":"struct SubnetID","components":[{"name":"root","type":"uint64","internalType":"uint64"},{"name":"route","type":"address[]","internalType":"address[]"}]},{"name":"rawAddress","type":"tuple","internalType":"struct FvmAddress","components":[{"name":"addrType","type":"uint8","internalType":"uint8"},{"name":"payload","type":"bytes","internalType":"bytes"}]}]},{"name":"from","type":"tuple","internalType":"struct IPCAddress","components":[{"name":"subnetId","type":"tuple","internalType":"struct SubnetID","components":[{"name":"root","type":"uint64","internalType":"uint64"},{"name":"route","type":"address[]","internalType":"address[]"}]},{"name":"rawAddress","type":"tuple","internalType":"struct FvmAddress","components":[{"name":"addrType","type":"uint8","internalType":"uint8"},{"name":"payload","type":"bytes","internalType":"bytes"}]}]},{"name":"nonce","type":"uint64","internalType":"uint64"},{"name":"value","type":"uint256","internalType":"uint256"},{"name":"message","type":"bytes","internalType":"bytes"}]}],"outputs":[],"stateMutability":"nonpayable"},{"type":"function","name":"getNextBottomUpMsgBatch","inputs":[],"outputs":[{"name":"batch","type":"tuple","internalType":"struct BottomUpMsgBatch","components":[{"name":"subnetID","type":"tuple","internalType":"struct SubnetID","components":[{"name":"root","type":"uint64","internalType":"uint64"},{"name":"route","type":"address[]","internalType":"address[]"}]},{"name":"blockHeight","type":"uint256","internalType":"uint256"},{"name":"msgs","type":"tuple[]","internalType":"struct IpcEnvelope[]","components":[{"name":"kind","type":"uint8","internalType":"enum IpcMsgKind"},{"name":"to","type":"tuple","internalType":"struct IPCAddress","components":[{"name":"subnetId","type":"tuple","internalType":"struct SubnetID","components":[{"name":"root","type":"uint64","internalType":"uint64"},{"name":"route","type":"address[]","internalType":"address[]"}]},{"name":"rawAddress","type":"tuple","internalType":"struct FvmAddress","components":[{"name":"addrType","type":"uint8","internalType":"uint8"},{"name":"payload","type":"bytes","internalType":"bytes"}]}]},{"name":"from","type":"tuple","internalType":"struct IPCAddress","components":[{"name":"subnetId","type":"tuple","internalType":"struct SubnetID","components":[{"name":"root","type":"uint64","internalType":"uint64"},{"name":"route","type":"address[]","internalType":"address[]"}]},{"name":"rawAddress","type":"tuple","internalType":"struct FvmAddress","components":[{"name":"addrType","type":"uint8","internalType":"uint8"},{"name":"payload","type":"bytes","internalType":"bytes"}]}]},{"name":"nonce","type":"uint64","internalType":"uint64"},{"name":"value","type":"uint256","internalType":"uint256"},{"name":"message","type":"bytes","internalType":"bytes"}]}]}],"stateMutability":"view"},{"type":"function","name":"registerSubnet","inputs":[{"name":"subnet","type":"tuple","internalType":"struct SubnetID","components":[{"name":"root","type":"uint64","internalType":"uint64"},{"name":"route","type":"address[]","internalType":"address[]"}]}],"outputs":[],"stateMutability":"nonpayable"},{"type":"function","name":"setSubnet","inputs":[{"name":"subnet","type":"tuple","internalType":"struct SubnetID","components":[{"name":"root","type":"uint64","internalType":"uint64"},{"name":"route","type":"address[]","internalType":"address[]"}]},{"name":"bottomUpPeriod","type":"uint256","internalType":"uint256"}],"outputs":[],"stateMutability":"nonpayable"},{"type":"event","name":"NewBottomUpMsgBatch","inputs":[{"name":"epoch","type":"uint256","indexed":true,"internalType":"uint256"}],"anonymous":false},{"type":"event","name":"NewTopDownMessage","inputs":[{"name":"subnet","type":"address","indexed":true,"internalType":"address"},{"name":"message","type":"tuple","indexed":false,"internalType":"struct IpcEnvelope","components":[{"name":"kind","type":"uint8","internalType":"enum IpcMsgKind"},{"name":"to","type":"tuple","internalType":"struct IPCAddress","components":[{"name":"subnetId","type":"tuple","internalType":"struct SubnetID","components":[{"name":"root","type":"uint64","internalType":"uint64"},{"name":"route","type":"address[]","internalType":"address[]"}]},{"name":"rawAddress","type":"tuple","internalType":"struct FvmAddress","components":[{"name":"addrType","type":"uint8","internalType":"uint8"},{"name":"payload","type":"bytes","internalType":"bytes"}]}]},{"name":"from","type":"tuple","internalType":"struct IPCAddress","components":[{"name":"subnetId","type":"tuple","internalType":"struct SubnetID","components":[{"name":"root","type":"uint64","internalType":"uint64"},{"name":"route","type":"address[]","internalType":"address[]"}]},{"name":"rawAddress","type":"tuple","internalType":"struct FvmAddress","components":[{"name":"addrType","type":"uint8","internalType":"uint8"},{"name":"payload","type":"bytes","internalType":"bytes"}]}]},{"name":"nonce","type":"uint64","internalType":"uint64"},{"name":"value","type":"uint256","internalType":"uint256"},{"name":"message","type":"bytes","internalType":"bytes"}]}],"anonymous":false},{"type":"error","name":"CannotSendCrossMsgToItself","inputs":[]},{"type":"error","name":"InvalidXnetMessage","inputs":[{"name":"reason","type":"uint8","internalType":"enum InvalidXnetMessageReason"}]},{"type":"error","name":"MethodNotAllowed","inputs":[{"name":"reason","type":"string","internalType":"string"}]},{"type":"error","name":"NotRegisteredSubnet","inputs":[]}],"bytecode":{"object":"0x6080806040523461001657612bc0908161001c8239f35b600080fdfe6080604081815260048036101561001557600080fd5b600092833560e01c9081634b8e4e8f1461047957508063830238c31461038d57806397c2cd8b146102445763c8251fe81461004f57600080fd5b346102405781600319360112610240576001600160401b0390803582811161023c5761007e90369083016107f0565b9282845116916001600160401b03199283601254161760125560209182860193845180519087821161022957600160401b821161022957859060135483601355808410610205575b500160138a52895b8281106101dc575050506001966024356001558251926390ba52cf60e01b845285858501528584806101036024820186610bb0565b038173__$a0fe38a9a81205afccc10810b09a4d3f45$__5af480156101d2578a906101a0575b600594508a52601f8652892091878584019251169082541617905501925190815194851161018d5750819061015e8585610c1f565b0191855280852090855b848110610173578680f35b83516001600160a01b031683820155928101928501610168565b634e487b7160e01b875260419052602486fd5b508584813d83116101cb575b6101b6818361079f565b810103126101c75760059351610129565b8980fd5b503d6101ac565b81513d8c823e3d90fd5b81516001600160a01b0316600080516020612b6b833981519152820155908601906001016100ce565b6102239084600080516020612b6b8339815191529182019101610c08565b386100c6565b634e487b7160e01b8a526041855260248afd5b8480fd5b8280fd5b50903461024057602080600319360112610389576001600160401b039280358481116103855761027790369083016107f0565b9280516390ba52cf60e01b815283838201528381806102996024820189610bb0565b038173__$a0fe38a9a81205afccc10810b09a4d3f45$__5af490811561037b57908492918891610345575b50906005918852601f83528720838101878751166001600160401b031982541617905501930151908151948511610332575081906103028585610c1f565b0191845280842090845b848110610317578580f35b83516001600160a01b0316838201559281019260010161030c565b634e487b7160e01b865260419052602485fd5b8381939492503d8311610374575b61035d818361079f565b81010312610370575183919060056102c4565b8680fd5b503d610353565b82513d89823e3d90fd5b8580fd5b8380fd5b509034610240576003198181360112610389576001600160401b038335818111610385576103be90369086016107f0565b91602435908282116103705760c0908236030112610385578351936103e285610769565b81860135600381101561047557855260248201358381116104755761040c908736918501016108f9565b602086015260448201358381116104755761042c908736918501016108f9565b9085015261043c606482016107c0565b60608501526084810135608085015260a4810135918211610385576104729461046892369201016108b2565b60a0830152611312565b80f35b8780fd5b915050346102405782600319360112610240579161049683610738565b61049e610988565b8352606082602094838682015201526001906104bc60015443610c53565b8152602384528281208351936104d185610738565b6104da826109a2565b85526003600283015492878701938452019081546104f7816107d9565b926105048351948561079f565b818452855287852085908985015b8383106105a7575050505080860191825261053d8151968888525160608989015260808801906105ca565b9251908601525194601f1991828682030160608701528651928382528282019083808660051b850101990195925b85841061057857888a0389f35b9091929394959685806105948c8686869f030188528b516106c9565b9b9901979695919091019301919061056b565b97600c8b829c989a6105b885610b40565b81520192019201919099979599610512565b604082016001600160401b0382511683526020606081809401519460408382015285518094520193019160005b828110610605575050505090565b83516001600160a01b0316855293810193928101926001016105f7565b6003111561062c57565b634e487b7160e01b600052602160045260246000fd5b60005b8381106106555750506000910152565b8181015183820152602001610645565b9060209161067e81518092818552858086019101610642565b601f01601f1916010190565b604060206106c693816106a48551858452858401906105ca565b940151908281860391015260ff81511684520151918160208201520190610665565b90565b6106c69181516106d881610622565b815260a061070a6106f8602085015160c0602086015260c085019061068a565b6040850151848203604086015261068a565b926001600160401b0360608201511660608401526080810151608084015201519060a0818403910152610665565b606081019081106001600160401b0382111761075357604052565b634e487b7160e01b600052604160045260246000fd5b60c081019081106001600160401b0382111761075357604052565b604081019081106001600160401b0382111761075357604052565b90601f801991011681019081106001600160401b0382111761075357604052565b35906001600160401b03821682036107d457565b600080fd5b6001600160401b0381116107535760051b60200190565b91906040838203126107d4576040519261080984610784565b83610813826107c0565b815260209182810135906001600160401b0382116107d457019280601f850112156107d4578335610843816107d9565b94610851604051968761079f565b818652848087019260051b8201019283116107d4578401905b828210610878575050500152565b81356001600160a01b03811681036107d457815290840190840161086a565b6001600160401b03811161075357601f01601f191660200190565b81601f820112156107d4578035906108c982610897565b926108d7604051948561079f565b828452602083830101116107d457816000926020809301838601378301015290565b91906040838203126107d4576040519261091284610784565b838135916001600160401b03928381116107d457846109329183016107f0565b82526020810135908382116107d457016040818503126107d4576040519361095985610784565b813560ff811681036107d457855260208201359384116107d45760209361098092016108b2565b828401520152565b6040519061099582610784565b6060602083600081520152565b90604051916109b083610784565b826001600160401b0382541681526001809201916040519283849282548083526020809301936000526020600020926000905b828210610a02575050505050602092916109fe91038461079f565b0152565b84546001600160a01b031686528896509485019493830193908301906109e3565b90600182811c92168015610a53575b6020831014610a3d57565b634e487b7160e01b600052602260045260246000fd5b91607f1691610a32565b90604051918260008254610a7081610a23565b90818452602094600191600181169081600014610ae05750600114610aa1575b505050610a9f9250038361079f565b565b600090815285812095935091905b818310610ac8575050610a9f9350820101388080610a90565b85548884018501529485019487945091830191610aaf565b92505050610a9f94925060ff191682840152151560051b820101388080610a90565b9060405191610b1083610784565b602083610b1c836109a2565b8152610980600360405194610b3086610784565b60ff600282015416865201610a5d565b90604051610b4d81610769565b60a0610bab600b839560ff815416610b6481610622565b8552610b7260018201610b02565b6020860152610b8360058201610b02565b60408601526001600160401b036009820154166060860152600a810154608086015201610a5d565b910152565b604082016001600160401b0382511683526020606081809401519460408382015285518094520193019160005b828110610beb575050505090565b83516001600160a01b031685529381019392810192600101610bdd565b818110610c13575050565b60008155600101610c08565b90600160401b811161075357815490808355818110610c3d57505050565b610a9f9260005260206000209182019101610c08565b8115610c99576001600160401b038291160460018101809111610c8357818102918183041490151715610c835790565b634e487b7160e01b600052601160045260246000fd5b634e487b7160e01b600052601260045260246000fd5b519081151582036107d457565b908160209103126107d4575160028110156107d45790565b604060206106c693816106a4855185845285840190610bb0565b6106c6918151610cfd81610622565b815260a061070a610d1d602085015160c0602086015260c0850190610cd4565b60408501518482036040860152610cd4565b90610d4290604083526040830190610cee565b906020906020818403910152606060408301926001600160401b036012541681526040602082015260135480945201916013600052600080516020612b6b833981519152916000905b828210610d99575050505090565b83546001600160a01b031685529384019360019384019390910190610d8b565b6002111561062c57565b9060016001600160401b0380931601918211610c8357565b51906001600160a01b03821682036107d457565b908160409103126107d45760405190610e0782610784565b805160028110156107d4578252610e2090602001610ddb565b602082015290565b90610e3b90604083526040830190610bb0565b906020906020818403910152606060408301926001600160401b036012541681526040602082015260135480945201916013600052600080516020612b6b833981519152916000905b828210610e92575050505090565b83546001600160a01b031685529384019360019384019390910190610e84565b8151610ebd81610622565b610ec681610622565b60ff199060ff828454169116178255600180830160209182860151948551926001600160401b039586855116916001600160401b031992838254161790558560028401950151805190888211610753578790610f228389610c1f565b01600096875287872086885b8481106112f757505050505085600384019801519760ff89511682825416179055856004840198015197885188811161122957610f6b8254610a23565b99601f9a8b81116112cb575b5088908b831160011461126c57610fa692918991836110d8575b50508160011b916000199060031b1c19161790565b90555b6005830160408a01519081519089825116858254161790558760068601910151908151918a8311611258578990610fe08484610c1f565b0190885288882087895b84811061123d57505050505086600785019101519160ff835116908254161790558560088401910151805190888211611229576110278354610a23565b8a81116111fd575b5087908a83116001146111915782600b959360a0979593611065938b926110d85750508160011b916000199060031b1c19161790565b90555b60098201908860608c015116908254161790556080890151600a8201550196015192835194851161117d5761109d8754610a23565b868111611147575b50809585116001146110e35750509282916110d494926110d85750508160011b916000199060031b1c19161790565b9055565b015190503880610f91565b8683528083209195919391928591601f19831691905b8883831061112d5750505010611114575b505050811b019055565b015160001960f88460031b161c1916905538808061110a565b8587015188559096019594850194879350908101906110f9565b61116e908885528285208880890160051c820192858a10611174575b0160051c0190610c08565b386110a5565b92508192611163565b634e487b7160e01b83526041600452602483fd5b8388528888208793929091601f1984168a5b8c8282106111e757505091600b979593918560a09a989694106111ce575b505050811b019055611068565b015160001960f88460031b161c191690553880806111c1565b8385015186558b979095019493840193016111a3565b611223908489528989208c80860160051c8201928c8710611174570160051c0190610c08565b3861102f565b634e487b7160e01b87526041600452602487fd5b83516001600160a01b031683820155928b0192899101610fea565b634e487b7160e01b89526041600452602489fd5b8389528989208893929091601f1984168b5b8d8282106112b5575050841161129c575b505050811b019055610fa9565b015160001960f88460031b161c1916905538808061128f565b8385015186558c9790950194938401930161127e565b6112f190848a528a8a208d80860160051c8201928d8710611174570160051c0190610c08565b38610f77565b83516001600160a01b031683820155928a0192889101610f2e565b602090818301918251519173__$a0fe38a9a81205afccc10810b09a4d3f45$__604093845192630c133d1360e31b845260049385818061135c602496848a84015287830190610bb0565b0381875af49081156117b857600091611783575b50611759578551600061138282610784565b80825286820152865163855f7e4560e01b81528681806113a48d8a8301610d2f565b038173__$33b79814e84bf6cf5e47244090b19ce5f8$__5af490811561174e57600091611721575b506113d681610db9565b600181036116435750506113e990611ba9565b901561163957600381016001600160401b03808254891c168160608c0151160361160857858793838a67ffffffffffffffff60401b61143461144f9661146f9a985480941c16610dc3565b8d1b169067ffffffffffffffff60401b1916179055016109a2565b8751632cff562160e11b8152868101849052938492839290830190610bb0565b0381855af49081156115c457839186916000916115cf575b5081516380875df760e01b815292839182906001600160a01b03165afa9081156115c457916114db93918593600091611597575b50965b5151865163c836244d60e01b815294859384928392918301610e28565b03915af490811561158c57600091611557575b50156115185750506115009082611cc4565b901561150f57610a9f91611b3c565b610a9f91611ace565b610a9f9392506021908251818101908282526115488161153a878201896106c9565b03601f19810183528261079f565b51902060005252600020610eb2565b90508181813d8311611585575b61156e818361079f565b810103126107d45761157f90610caf565b386114ee565b503d611564565b83513d6000823e3d90fd5b6115b79150873d89116115bd575b6115af818361079f565b810190610def565b386114bb565b503d6115a5565b85513d6000823e3d90fd5b925050508381813d8311611601575b6115e8818361079f565b810103126107d457846115fb8492610ddb565b38611487565b503d6115de565b5050509294505050610a9f9391519263bc0f01cf60e01b90840152600281840152825261163482610738565b611943565b5050505050505050565b909792915061165181610db9565b15611664575b509183916114db936114be565b9095506001600160401b039081600354871c168260608a015116036116f757509183916116c561169c6114db95600354891c16610dc3565b67ffffffffffffffff60401b6003549160401b169067ffffffffffffffff60401b191617600355565b60008387516116d381610784565b828152015285516116e381610784565b600081526000848201529691935091611657565b939550505050610a9f9391519263bc0f01cf60e01b90840152600281840152825261163482610738565b6117419150873d8911611747575b611739818361079f565b810190610cbc565b386113cc565b503d61172f565b88513d6000823e3d90fd5b509294505050610a9f9391519263bc0f01cf60e01b90840152600181840152825261163482610738565b90508581813d83116117b1575b61179a818361079f565b810103126107d4576117ab90610caf565b38611370565b503d611790565b87513d6000823e3d90fd5b51906001600160401b03821682036107d457565b91906040838203126107d457604051926117f084610784565b836117fa826117c3565b815260209182810151906001600160401b0382116107d457019280601f850112156107d457835161182a816107d9565b94611838604051968761079f565b818652848087019260051b8201019283116107d45784809101915b83831061186257505050500152565b819061186d84610ddb565b8152019101908490611853565b81601f820112156107d457805161189081610897565b9261189e604051948561079f565b818452602082840101116107d4576106c69160208085019101610642565b91906040838203126107d457604051926118d584610784565b838151916001600160401b03928381116107d457846118f59183016117d7565b82526020810151908382116107d457016040818503126107d4576040519361191c85610784565b815160ff811681036107d457855260208201519384116107d457602093610980920161187a565b61194c81611dc5565b611aca576002815161195d81610622565b61196681610622565b14611aca57604051634dbefc2d60e11b8152606060048201529061198e906064830190610cee565b916001602483015260031982840301604483015281806119b16000958694610665565b038173__$33b79814e84bf6cf5e47244090b19ce5f8$__5af4908115611abf5782916119e6575b506119e39150611e14565b50565b90503d8083833e6119f7818361079f565b8101906020818303126102405780516001600160401b039182821161023c570160c0818403126103895760405193611a2e85610769565b81516003811015611abb5785526020820151838111611abb5784611a539184016118bc565b60208601526040820151838111611abb5784611a709184016118bc565b6040860152611a81606083016117c3565b60608601526080820151608086015260a0820151928311611ab8575091611aad916119e394930161187a565b60a0820152386119d8565b80fd5b5080fd5b6040513d84823e3d90fd5b5050565b611ad781611dc5565b611aca5760028151611ae881610622565b611af181610622565b14611aca57604051634dbefc2d60e11b81526060600482015290611b19906064830190610cee565b916002602483015260031982840301604483015281806119b16000958694610665565b611b4581611dc5565b611aca5760028151611b5681610622565b611b5f81610622565b14611aca57604051634dbefc2d60e11b81526060600482015290611b87906064830190610cee565b9181806119b16000958694856024850152600319848303016044850152610665565b611be773__$a0fe38a9a81205afccc10810b09a4d3f45$__91604051906390ba52cf60e01b8252818060209485938460048401526024830190610bb0565b0381865af4908115611c8b57600091611c97575b50600052601f8152611c3c81604060002093611c19600486016109a2565b906040518080958194630c133d1360e31b83528660048401526024830190610bb0565b03915af4918215611c8b57600092611c55575b50501591565b90809250813d8311611c84575b611c6c818361079f565b810103126107d457611c7d90610caf565b3880611c4f565b503d611c62565b6040513d6000823e3d90fd5b90508181813d8311611cbd575b611cae818361079f565b810103126107d4575138611bfb565b503d611ca4565b9190604051611d2281602093611cf28583019763065c4c3160e11b89526060602485015260848401906106c9565b908051611cfe81610db9565b60448401528501516001600160a01b0316606483015203601f19810183528261079f565b600080948192519073__$33b79814e84bf6cf5e47244090b19ce5f8$__5af4903d15611dbd573d93611d5385610897565b94611d61604051968761079f565b85523d818387013e5b8483611d77575050509190565b919450929150805181019360408286031261038957611d97818301610caf565b936040830151906001600160401b038211611ab85750816106c69495960192010161187a565b606093611d6a565b8051611dd081610622565b611dd981610622565b15611de75760a00151511590565b608001511590565b906020828203126107d45781516001600160401b0381116107d4576106c692016117d7565b906020918281019283515173__$a0fe38a9a81205afccc10810b09a4d3f45$__90604091825191630c133d1360e31b83526004906024938683820152868180611e5f88820186610bb0565b0381875af49081156125b35760009161257e575b5061256857845163c836244d60e01b80825290878180611e9586888301610e28565b0381885af49081156117b857600091612533575b506125235785880151519086519263855f7e4560e01b8452888480611ed08d898301610d2f565b038173__$33b79814e84bf6cf5e47244090b19ce5f8$__5af493841561174e57600094612504575b508751631ccc893360e11b815285810189905260008180611f30611f1f6044830187610bb0565b828103600319018d84015288610bb0565b03818a5af49081156123a857611f6095949392918b916000916124e9575b508a51809781928683528a8301610e28565b03818a5af49485156123a8576000956124b2575b50600090611f8185610db9565b600185036123b357505087516308c7427760e11b81528581018a90529060008280611fae8b820187610bb0565b03818a5af49182156123a857918a91611fdc949360009261238b575b508a5194859283928352898301610e28565b0381895af491821561174e57908991600093612353575b50826122d6575b50505b61223d575b61200b81610db9565b15908115612235575b50612033575050505050608091925061202c816127ce565b0151151590565b6001600160401b0395949580600354861c168181146121ec5761209e97989961208460016000930167ffffffffffffffff60401b6003549160401b169067ffffffffffffffff60401b191617600355565b515186518099819263089032d560e01b8352868301610e28565b0381865af49687156115c457600097612210575b506120bc87611ba9565b9190156122005760038201908154906120dc8183168060608c0152610dc3565b16906001600160401b03191617905560026080870151910180549182018092116121ec575583516304e384ff60e21b81529081018790529486928692918391829161212991830190610bb0565b03915af49283156121e157600093612187575b50518381526001600160a01b03909216927ffdd39ce2560484814971f663392e78ae37dc62ba184b3370d830371dd271a8b79291829161217f91908301906106c9565b0390a2600090565b92508383813d83116121da575b61219e818361079f565b810103126107d45761217f6121d37ffdd39ce2560484814971f663392e78ae37dc62ba184b3370d830371dd271a8b794610ddb565b935061213c565b503d612194565b50513d6000823e3d90fd5b84601184634e487b7160e01b600052526000fd5b8551630e991abd60e41b81528390fd5b61222e9197503d806000833e612226818361079f565b810190611def565b95386120b2565b905038612014565b875161224881610622565b61225181610622565b61200257855163015538b160e01b8152808401889052604f818701527f70726f7061676174696f6e206f6620605472616e7366657260206d657373616760448201527f6573206e6f742073757070706f7274656420666f72207375626e65747320776960648201526e746820455243323020737570706c7960881b608482015260a490fd5b6122f99250885180938192632cff562160e11b835284898401528a830190610bb0565b0381885af480156117b85760009061231d575b61231691506125be565b8738611ffa565b508781813d831161234c575b612333818361079f565b810103126107d45761234761231691610ddb565b61230c565b503d612329565b8281939294503d8311612384575b61236b818361079f565b810103126107d45761237d8991610caf565b9138611ff3565b503d612361565b6123a19192503d806000833e612226818361079f565b9038611fca565b89513d6000823e3d90fd5b915091506123c083610db9565b8183156123cf575b5050611ffd565b885163089032d560e01b815291829081906123ec90898301610e28565b0381895af49081156124a85782918a91612425949161248e575b50895180948192632cff562160e11b8352848a8401528b830190610bb0565b0381895af490811561248357809161244a575b5061244391506125be565b38816123c8565b90508882813d831161247c575b612461818361079f565b81010312611ab8575061247661244391610ddb565b38612438565b503d612457565b8851903d90823e3d90fd5b6124a291503d8085833e612226818361079f565b38612406565b88513d84823e3d90fd5b9094508981813d83116124e2575b6124ca818361079f565b810103126107d4576124db90610caf565b9338611f74565b503d6124c0565b6124fe91503d806000833e612226818361079f565b38611f4e565b61251c919450893d8b1161174757611739818361079f565b9238611ef8565b8551632f3335ff60e21b81528390fd5b90508781813d8311612561575b61254a818361079f565b810103126107d45761255b90610caf565b38611ea9565b503d612540565b845163bc0f01cf60e01b81526001818401528490fd5b90508681813d83116125ac575b612595818361079f565b810103126107d4576125a690610caf565b38611e73565b503d61258b565b86513d6000823e3d90fd5b604080516380875df760e01b815291829060049082906001600160a01b03165afa8015611c8b57600191600091612608575b50516125fb81610db9565b61260481610db9565b1490565b612621915060403d6040116115bd576115af818361079f565b386125f0565b601381146119e357601354906001600160401b0382116107535761264b8282610c1f565b600090815260208120600080516020612b6b83398151915280545b848410612674575050505050565b600191820180546001600160a01b0390921684860155939091019290612666565b80548210156126b157600052600c602060002091020190600090565b634e487b7160e01b600052603260045260246000fd5b8054600160401b811015610753576126e491600182018155612695565b9190916126f457610a9f91610eb2565b634e487b7160e01b600052600060045260246000fd5b6040519061271782610784565b81612720610988565b81526020610bab610988565b80518210156126b15760209160051b010190565b61274a8154610a23565b9081612754575050565b81601f60009311600114612766575055565b908083918252612785601f60208420940160051c840160018501610c08565b5555565b6003610a9f916000815560018101805460008255806127b2575b50506000600282015501612740565b6127c791600052602060002090810190610c08565b38806127a3565b6127da60015443610c53565b90600354906001600160401b038216916001600160401b03612803606094806060860152610dc3565b16906001600160401b031916176003558260005260236020526040806000209360028501805415612b23575050600384015460035460c01c14600014612b1457600384015491612852836107d9565b9361285f8351958661079f565b838552601f1961286e856107d9565b019060005b828110612acb5750505081519461288986610738565b825161289481610784565b6001600160401b0360125416815283518081602060135492838152016013600052600080516020612b6b8339815191529260005b818110612aa95750506128dd9250038261079f565b60208201528652602086019343855283870195865260005b818110612a725750437f4ecfe3c1ed32ef0a63d3801d51eb20214db90b14dc5fd1ca58a9de54f16f46a6600080a26000600383015580612a04575b5090600361293e92016126c7565b8151600052602360205260002092516001600160401b038151166001600160401b0319855416178455602060018501910151908151916001600160401b038311610753576020906129928484989798610c1f565b0190600052602060002060005b8381106129e7575050505051600282015581515191600360009201915b8381106129c95750505050565b806129e16129da600193855161272c565b51856126c7565b016129bc565b82516001600160a01b03168183015560209092019160010161299f565b600c9080600c0290600c820403610c8357600383016000526020600020908101905b818110612a34575050612930565b806000849255612a4660018201612789565b612a5260058201612789565b600060098201556000600a820155612a6c600b8201612740565b01612a26565b80612aa281612a8660019460038801612695565b50612a928b5191610b40565b612a9c838361272c565b5261272c565b50016128f5565b84546001600160a01b03168352600194850194869450602090930192016128c8565b6020908551612ad981610769565b60008152612ae561270a565b83820152612af161270a565b87820152600084820152600060808201528360a082015282828a01015201612873565b5090506003610a9f92016126c7565b60039394508592506012610a9f9603612b3e575b55016126c7565b6001600160401b03601254166001600160401b0319845416178355612b6560018401612627565b612b3756fe66de8ffda797e3de9c05e8fc57b3bf0ec28a930d40b0d285d93c06501cf6a090a2646970667358221220266a82dce0af394dbe6efa7db7711bc23b9efde723c3d8a382e4ebabfd795b9464736f6c63430008180033","linkReferences":{"src/lib/CrossMsgHelper.sol":{"CrossMsgHelper":[{"start":5060,"length":20},{"start":6609,"length":20},{"start":7496,"length":20},{"start":7920,"length":20}]},"src/lib/SubnetIDHelper.sol":{"SubnetIDHelper":[{"start":291,"length":20},{"start":697,"length":20},{"start":4923,"length":20},{"start":7114,"length":20},{"start":7741,"length":20}]}}},"methodIdentifiers":{"applyMsg((uint64,address[]),(uint8,((uint64,address[]),(uint8,bytes)),((uint64,address[]),(uint8,bytes)),uint64,uint256,bytes))":"830238c3","getNextBottomUpMsgBatch()":"4b8e4e8f","registerSubnet((uint64,address[]))":"97c2cd8b","setSubnet((uint64,address[]),uint256)":"c8251fe8"},"id":128}